{
  "contractName": "AviAnalysis",
  "abi": [
    {
      "constant": true,
      "inputs": [],
      "name": "getSignatures",
      "outputs": [
        {
          "components": [
            {
              "name": "creatTime",
              "type": "uint32"
            },
            {
              "name": "deleteTime",
              "type": "uint32"
            },
            {
              "name": "itemType",
              "type": "string"
            },
            {
              "name": "itemName",
              "type": "string"
            },
            {
              "name": "idSeq",
              "type": "string"
            },
            {
              "components": [
                {
                  "name": "mark",
                  "type": "uint8"
                },
                {
                  "name": "seq",
                  "type": "uint8"
                },
                {
                  "name": "startOffset",
                  "type": "int8"
                },
                {
                  "name": "fieldSize",
                  "type": "int8"
                },
                {
                  "name": "id",
                  "type": "string"
                },
                {
                  "name": "fieldValue",
                  "type": "string"
                },
                {
                  "name": "valueType",
                  "type": "string"
                }
              ],
              "name": "checkValue",
              "type": "tuple"
            }
          ],
          "name": "",
          "type": "tuple[]"
        }
      ],
      "payable": false,
      "stateMutability": "view",
      "type": "function"
    },
    {
      "constant": true,
      "inputs": [
        {
          "components": [
            {
              "name": "creatTime",
              "type": "uint32"
            },
            {
              "name": "deleteTime",
              "type": "uint32"
            },
            {
              "name": "itemType",
              "type": "string"
            },
            {
              "name": "itemName",
              "type": "string"
            },
            {
              "name": "idSeq",
              "type": "string"
            },
            {
              "components": [
                {
                  "name": "mark",
                  "type": "uint8"
                },
                {
                  "name": "seq",
                  "type": "uint8"
                },
                {
                  "name": "startOffset",
                  "type": "int8"
                },
                {
                  "name": "fieldSize",
                  "type": "int8"
                },
                {
                  "name": "id",
                  "type": "string"
                },
                {
                  "name": "fieldValue",
                  "type": "string"
                },
                {
                  "name": "valueType",
                  "type": "string"
                }
              ],
              "name": "checkValue",
              "type": "tuple"
            }
          ],
          "name": "s",
          "type": "tuple"
        }
      ],
      "name": "devideString",
      "outputs": [
        {
          "name": "",
          "type": "string[]"
        }
      ],
      "payable": false,
      "stateMutability": "pure",
      "type": "function"
    },
    {
      "constant": true,
      "inputs": [
        {
          "name": "isSeqs",
          "type": "string[]"
        }
      ],
      "name": "isMovi",
      "outputs": [
        {
          "name": "",
          "type": "uint256"
        }
      ],
      "payable": false,
      "stateMutability": "pure",
      "type": "function"
    },
    {
      "constant": true,
      "inputs": [
        {
          "name": "header",
          "type": "string"
        },
        {
          "components": [
            {
              "name": "idSeq",
              "type": "string[]"
            },
            {
              "name": "idSeqStart",
              "type": "uint256[]"
            }
          ],
          "name": "chunk",
          "type": "tuple"
        }
      ],
      "name": "compareResult",
      "outputs": [
        {
          "name": "",
          "type": "string[]"
        },
        {
          "name": "",
          "type": "uint256"
        }
      ],
      "payable": false,
      "stateMutability": "view",
      "type": "function"
    },
    {
      "constant": true,
      "inputs": [
        {
          "components": [
            {
              "name": "mark",
              "type": "uint8"
            },
            {
              "name": "seq",
              "type": "uint8"
            },
            {
              "name": "startOffset",
              "type": "int8"
            },
            {
              "name": "fieldSize",
              "type": "int8"
            },
            {
              "name": "id",
              "type": "string"
            },
            {
              "name": "fieldValue",
              "type": "string"
            },
            {
              "name": "valueType",
              "type": "string"
            }
          ],
          "name": "field",
          "type": "tuple"
        },
        {
          "components": [
            {
              "name": "idSeq",
              "type": "string[]"
            },
            {
              "name": "idSeqStart",
              "type": "uint256[]"
            }
          ],
          "name": "chunk",
          "type": "tuple"
        }
      ],
      "name": "isField",
      "outputs": [
        {
          "name": "",
          "type": "int256"
        }
      ],
      "payable": false,
      "stateMutability": "pure",
      "type": "function"
    },
    {
      "constant": true,
      "inputs": [
        {
          "components": [
            {
              "name": "mark",
              "type": "uint8"
            },
            {
              "name": "seq",
              "type": "uint8"
            },
            {
              "name": "startOffset",
              "type": "int8"
            },
            {
              "name": "fieldSize",
              "type": "int8"
            },
            {
              "name": "id",
              "type": "string"
            },
            {
              "name": "fieldValue",
              "type": "string"
            },
            {
              "name": "valueType",
              "type": "string"
            }
          ],
          "name": "field",
          "type": "tuple"
        },
        {
          "name": "header",
          "type": "string"
        },
        {
          "components": [
            {
              "name": "idSeq",
              "type": "string[]"
            },
            {
              "name": "idSeqStart",
              "type": "uint256[]"
            }
          ],
          "name": "chunk",
          "type": "tuple"
        }
      ],
      "name": "avivalueCheck",
      "outputs": [
        {
          "name": "",
          "type": "bool"
        }
      ],
      "payable": false,
      "stateMutability": "pure",
      "type": "function"
    },
    {
      "constant": true,
      "inputs": [
        {
          "name": "size",
          "type": "string"
        }
      ],
      "name": "getAviFieldSize",
      "outputs": [
        {
          "name": "",
          "type": "uint256"
        }
      ],
      "payable": false,
      "stateMutability": "pure",
      "type": "function"
    }
  ],
  "bytecode": "0x6080604052738694f17af4a47ad5780f7cb8feb6f197398a14626000806101000a81548173ffffffffffffffffffffffffffffffffffffffff021916908373ffffffffffffffffffffffffffffffffffffffff16021790555073a0367516a1f68657f6f38f91071e799f28a935f8600160006101000a81548173ffffffffffffffffffffffffffffffffffffffff021916908373ffffffffffffffffffffffffffffffffffffffff160217905550733c0e7d21f1d74ba51a58f4cb1a22626464876b21600260006101000a81548173ffffffffffffffffffffffffffffffffffffffff021916908373ffffffffffffffffffffffffffffffffffffffff16021790555034801561010e57600080fd5b50612c8c8061011e6000396000f300608060405260043610610082576000357c0100000000000000000000000000000000000000000000000000000000900463ffffffff1680628aeecd146100875780631513ce64146100c5578063386cd802146101025780634c90b5301461013f578063963015ce1461017c578063ad6f80ff146101b9578063c9f56aa2146101e4575b600080fd5b34801561009357600080fd5b506100ae60048036036100a991908101906122ff565b610221565b6040516100bc92919061285f565b60405180910390f35b3480156100d157600080fd5b506100ec60048036036100e7919081019061236b565b61056b565b6040516100f991906128b1565b60405180910390f35b34801561010e57600080fd5b506101296004803603610124919081019061246e565b610bef565b604051610136919061283d565b60405180910390f35b34801561014b57600080fd5b506101666004803603610161919081019061227d565b610d3f565b60405161017391906129a0565b60405180910390f35b34801561018857600080fd5b506101a3600480360361019e9190810190612402565b610f6e565b6040516101b091906128ee565b60405180910390f35b3480156101c557600080fd5b506101ce6110da565b6040516101db919061288f565b60405180910390f35b3480156101f057600080fd5b5061020b60048036036102069190810190612191565b61145f565b60405161021891906129a0565b60405180910390f35b60606000806060806000606060008060009650606460405190808252806020026020018201604052801561026957816020015b60608152602001906001900390816102545790505b5095506102746110da565b9450600093505b8451841015610557576102a4858581518110151561029557fe5b90602001906020020151610bef565b925060016102b18461145f565b01915089600001515182141561054a57600090505b818110156103e7578960000151818151811015156102e057fe5b906020019060200201516040518082805190602001908083835b60208310151561031f57805182526020820191506020810190506020830392506102fa565b6001836020036101000a038019825116818451168082178552505050505050905001915050604051809103902060001916838281518110151561035e57fe5b906020019060200201516040518082805190602001908083835b60208310151561039d5780518252602082019150602081019050602083039250610378565b6001836020036101000a0380198251168184511680821785525050505050509050019150506040518091039020600019161415156103da576103e7565b80806001019150506102c6565b8181141561054957600085858151811015156103ff57fe5b9060200190602002015160a001516000015160ff161415156104cd5760011515610445868681518110151561043057fe5b9060200190602002015160a001518d8d61056b565b151514156104c857848481518110151561045b57fe5b9060200190602002015160400151868880600101995081518110151561047d57fe5b90602001906020020181905250848481518110151561049857fe5b906020019060200201516060015186888060010199508151811015156104ba57fe5b906020019060200201819052505b610548565b84848151811015156104db57fe5b906020019060200201516040015186888060010199508151811015156104fd57fe5b90602001906020020181905250848481518110151561051857fe5b9060200190602002015160600151868880600101995081518110151561053a57fe5b906020019060200201819052505b5b5b838060010194505061027b565b858798509850505050505050509250929050565b60008060608060008061057e8988610f6e565b94507fffffffffffffffffffffffffffffffffffffffffffffffffffffffffffffffff85141515610bde5760088760200151868151811015156105bd57fe5b906020019060200201510191507fffffffffffffffffffffffffffffffffffffffffffffffffffffffffffffffff896040015160000b141561081a576106b28873__Strings_______________________________631dcd9b55909185600887016040518463ffffffff167c010000000000000000000000000000000000000000000000000000000002815260040161065893929190612962565b60006040518083038186803b15801561067057600080fd5b505af4158015610684573d6000803e3d6000fd5b505050506040513d6000823e3d601f19601f820116820180604052506106ad91908101906122be565b610d3f565b90508773__Strings_______________________________631dcd9b559091600885018460088701016040518463ffffffff167c010000000000000000000000000000000000000000000000000000000002815260040161071593929190612962565b60006040518083038186803b15801561072d57600080fd5b505af4158015610741573d6000803e3d6000fd5b505050506040513d6000823e3d601f19601f8201168201806040525061076a91908101906122be565b73__Strings_______________________________638e7e34d790916040518263ffffffff167c01000000000000000000000000000000000000000000000000000000000281526004016107be9190612909565b60006040518083038186803b1580156107d657600080fd5b505af41580156107ea573d6000803e3d6000fd5b505050506040513d6000823e3d601f19601f820116820180604052506108139190810190612213565b925061099e565b8773__Strings_______________________________631dcd9b55909160028c604001510260000b600886010160028d606001510260000b60028e604001510260000b6008880101016040518463ffffffff167c010000000000000000000000000000000000000000000000000000000002815260040161089d93929190612962565b60006040518083038186803b1580156108b557600080fd5b505af41580156108c9573d6000803e3d6000fd5b505050506040513d6000823e3d601f19601f820116820180604052506108f291908101906122be565b73__Strings_______________________________638e7e34d790916040518263ffffffff167c01000000000000000000000000000000000000000000000000000000000281526004016109469190612909565b60006040518083038186803b15801561095e57600080fd5b505af4158015610972573d6000803e3d6000fd5b505050506040513d6000823e3d601f19601f8201168201806040525061099b9190810190612213565b92505b60405180807f494e54000000000000000000000000000000000000000000000000000000000081525060030190506040518091039020600019168960c001516040518082805190602001908083835b602083101515610a1257805182526020820191506020810190506020830392506109ed565b6001836020036101000a0380198251168184511680821785525050505050509050019150506040518091039020600019161415610afd57610af68373__BytesUtil_____________________________6302d06d0590916040518263ffffffff167c0100000000000000000000000000000000000000000000000000000000028152600401610aa191906128cc565b60206040518083038186803b158015610ab957600080fd5b505af4158015610acd573d6000803e3d6000fd5b505050506040513d601f19601f82011682018060405250610af191908101906124af565b61154a565b9350610b01565b8293505b7fffffffffffffffffffffffffffffffffffffffffffffffffffffffffffffffff8473__Strings_______________________________638a0807b790918c60a001516040518363ffffffff167c0100000000000000000000000000000000000000000000000000000000028152600401610b7d92919061292b565b60206040518083038186803b158015610b9557600080fd5b505af4158015610ba9573d6000803e3d6000fd5b505050506040513d601f19601f82011682018060405250610bcd9190810190612254565b141515610bdd5760019550610be3565b5b600095505b50505050509392505050565b6060806000806004856080015151811515610c0657fe5b04604051908082528060200260200182016040528015610c3a57816020015b6060815260200190600190039081610c255790505b50925060009150600090505b846080015151811015610d3457846080015173__Strings_______________________________631dcd9b55909183600485016040518463ffffffff167c0100000000000000000000000000000000000000000000000000000000028152600401610cb393929190612962565b60006040518083038186803b158015610ccb57600080fd5b505af4158015610cdf573d6000803e3d6000fd5b505050506040513d6000823e3d601f19601f82011682018060405250610d0891908101906122be565b8383806001019450815181101515610d1c57fe5b90602001906020020181905250600481019050610c46565b829350505050919050565b6000606060008373__Strings_______________________________63171ec7a590916040518263ffffffff167c0100000000000000000000000000000000000000000000000000000000028152600401610d9a9190612909565b60006040518083038186803b158015610db257600080fd5b505af4158015610dc6573d6000803e3d6000fd5b505050506040513d6000823e3d601f19601f82011682018060405250610def91908101906122be565b91508173__Strings_______________________________638e7e34d790916040518263ffffffff167c0100000000000000000000000000000000000000000000000000000000028152600401610e469190612909565b60006040518083038186803b158015610e5e57600080fd5b505af4158015610e72573d6000803e3d6000fd5b505050506040513d6000823e3d601f19601f82011682018060405250610e9b9190810190612213565b73__BytesUtil_____________________________6302d06d0590916040518263ffffffff167c0100000000000000000000000000000000000000000000000000000000028152600401610eef91906128cc565b60206040518083038186803b158015610f0757600080fd5b505af4158015610f1b573d6000803e3d6000fd5b505050506040513d601f19601f82011682018060405250610f3f91908101906124af565b90506000600282811515610f4f57fe5b06141515610f5e576001810190505b6002810290508092505050919050565b6000806000809150600090505b8360000151518110156110ae57836000015181815181101515610f9a57fe5b906020019060200201516040518082805190602001908083835b602083101515610fd95780518252602082019150602081019050602083039250610fb4565b6001836020036101000a03801982511681845116808217855250505050505090500191505060405180910390206000191685608001516040518082805190602001908083835b602083101515611044578051825260208201915060208101905060208303925061101f565b6001836020036101000a03801982511681845116808217855250505050505090500191505060405180910390206000191614156110a05781856020015160ff161415156110985781806001019250506110a1565b8092506110d2565b5b8080600101915050610f7b565b7fffffffffffffffffffffffffffffffffffffffffffffffffffffffffffffffff92505b505092915050565b60606110e4611732565b600080606060006060604051908101604052806000809054906101000a900473ffffffffffffffffffffffffffffffffffffffff1673ffffffffffffffffffffffffffffffffffffffff1663ad6f80ff6040518163ffffffff167c0100000000000000000000000000000000000000000000000000000000028152600401600060405180830381600087803b15801561117c57600080fd5b505af1158015611190573d6000803e3d6000fd5b505050506040513d6000823e3d601f19601f820116820180604052506111b991908101906121d2565b8152602001600160009054906101000a900473ffffffffffffffffffffffffffffffffffffffff1673ffffffffffffffffffffffffffffffffffffffff1663ad6f80ff6040518163ffffffff167c0100000000000000000000000000000000000000000000000000000000028152600401600060405180830381600087803b15801561124457600080fd5b505af1158015611258573d6000803e3d6000fd5b505050506040513d6000823e3d601f19601f8201168201806040525061128191908101906121d2565b8152602001600260009054906101000a900473ffffffffffffffffffffffffffffffffffffffff1673ffffffffffffffffffffffffffffffffffffffff1663ad6f80ff6040518163ffffffff167c0100000000000000000000000000000000000000000000000000000000028152600401600060405180830381600087803b15801561130c57600080fd5b505af1158015611320573d6000803e3d6000fd5b505050506040513d6000823e3d601f19601f8201168201806040525061134991908101906121d2565b815250945060009350600092505b600383101561138557848360038110151561136e57fe5b602002015151840193508280600101935050611357565b836040519080825280602002602001820160405280156113bf57816020015b6113ac61175a565b8152602001906001900390816113a45790505b509150600092505b600383101561145457600090505b84836003811015156113e357fe5b6020020151518110156114475784836003811015156113fe57fe5b60200201518181518110151561141057fe5b906020019060200201518282600786020181518110151561142d57fe5b9060200190602002018190525080806001019150506113d5565b82806001019350506113c7565b819550505050505090565b600080600090505b825181101561154357828181518110151561147e57fe5b906020019060200201516040518082805190602001908083835b6020831015156114bd5780518252602082019150602081019050602083039250611498565b6001836020036101000a03801982511681845116808217855250505050505090500191505060405180910390206000191660405180807f6d6f7669000000000000000000000000000000000000000000000000000000008152506004019050604051809103902060001916141561153657809150611544565b8080600101915050611467565b5b50919050565b6060600080600080606060008088141561159b576040805190810160405280600181526020017f30000000000000000000000000000000000000000000000000000000000000008152509650611727565b600088129550856115ac57876115b1565b876000035b94508493505b6000851415156115dd578280600101935050600a858115156115d557fe5b0494506115b7565b85156115ea578260010192505b826040519080825280601f01601f19166020018201604052801561161d5781602001602082028038833980820191505090505b5091506001830390505b6000841415156116bc57600a8481151561163d57fe5b066030017f01000000000000000000000000000000000000000000000000000000000000000282828060019003935081518110151561167857fe5b9060200101907effffffffffffffffffffffffffffffffffffffffffffffffffffffffffffff1916908160001a905350600a848115156116b457fe5b049350611627565b8515611723577f2d000000000000000000000000000000000000000000000000000000000000008260008151811015156116f257fe5b9060200101907effffffffffffffffffffffffffffffffffffffffffffffffffffffffffffff1916908160001a9053505b8196505b505050505050919050565b6060604051908101604052806003905b60608152602001906001900390816117425790505090565b61018060405190810160405280600063ffffffff168152602001600063ffffffff16815260200160608152602001606081526020016060815260200161179e6117a4565b81525090565b60e060405190810160405280600060ff168152602001600060ff1681526020016000800b81526020016000800b81526020016060815260200160608152602001606081525090565b600082601f83011215156117ff57600080fd5b813561181261180d826129e8565b6129bb565b9150818183526020840193506020810190508360005b83811015611858578135860161183e8882611a65565b845260208401935060208301925050600181019050611828565b5050505092915050565b600082601f830112151561187557600080fd5b813561188861188382612a10565b6129bb565b9150818183526020840193506020810190508360005b838110156118ce57813586016118b48882611a65565b84526020840193506020830192505060018101905061189e565b5050505092915050565b600082601f83011215156118eb57600080fd5b81516118fe6118f982612a38565b6129bb565b9150818183526020840193506020810190508360005b83811015611944578151860161192a8882611f21565b845260208401935060208301925050600181019050611914565b5050505092915050565b600082601f830112151561196157600080fd5b813561197461196f82612a60565b6129bb565b9150818183526020840193506020810190508385602084028201111561199957600080fd5b60005b838110156119c957816119af8882612119565b84526020840193506020830192505060018101905061199c565b5050505092915050565b600082601f83011215156119e657600080fd5b81516119f96119f482612a88565b6129bb565b91508082526020830160208301858383011115611a1557600080fd5b611a20838284612c0e565b50505092915050565b6000611a358251612bc1565b905092915050565b6000611a498235612bcb565b905092915050565b6000611a5d8251612bcb565b905092915050565b600082601f8301121515611a7857600080fd5b8135611a8b611a8682612ab4565b6129bb565b91508082526020830160208301858383011115611aa757600080fd5b611ab2838284612bff565b50505092915050565b600082601f8301121515611ace57600080fd5b8151611ae1611adc82612ab4565b6129bb565b91508082526020830160208301858383011115611afd57600080fd5b611b08838284612c0e565b50505092915050565b600082601f8301121515611b2457600080fd5b8135611b37611b3282612ae0565b6129bb565b91508082526020830160208301858383011115611b5357600080fd5b611b5e838284612bff565b50505092915050565b600082601f8301121515611b7a57600080fd5b8151611b8d611b8882612ae0565b6129bb565b91508082526020830160208301858383011115611ba957600080fd5b611bb4838284612c0e565b50505092915050565b600060408284031215611bcf57600080fd5b611bd960406129bb565b9050600082013567ffffffffffffffff811115611bf557600080fd5b611c01848285016117ec565b600083015250602082013567ffffffffffffffff811115611c2157600080fd5b611c2d8482850161194e565b60208301525092915050565b600060e08284031215611c4b57600080fd5b611c5560e06129bb565b90506000611c6584828501612169565b6000830152506020611c7984828501612169565b6020830152506040611c8d84828501611a3d565b6040830152506060611ca184828501611a3d565b606083015250608082013567ffffffffffffffff811115611cc157600080fd5b611ccd84828501611a65565b60808301525060a082013567ffffffffffffffff811115611ced57600080fd5b611cf984828501611a65565b60a08301525060c082013567ffffffffffffffff811115611d1957600080fd5b611d2584828501611a65565b60c08301525092915050565b600060e08284031215611d4357600080fd5b611d4d60e06129bb565b90506000611d5d8482850161217d565b6000830152506020611d718482850161217d565b6020830152506040611d8584828501611a51565b6040830152506060611d9984828501611a51565b606083015250608082015167ffffffffffffffff811115611db957600080fd5b611dc584828501611abb565b60808301525060a082015167ffffffffffffffff811115611de557600080fd5b611df184828501611abb565b60a08301525060c082015167ffffffffffffffff811115611e1157600080fd5b611e1d84828501611abb565b60c08301525092915050565b600060e08284031215611e3b57600080fd5b611e4560e06129bb565b90506000611e5584828501612169565b6000830152506020611e6984828501612169565b6020830152506040611e7d84828501611a3d565b6040830152506060611e9184828501611a3d565b606083015250608082013567ffffffffffffffff811115611eb157600080fd5b611ebd84828501611a65565b60808301525060a082013567ffffffffffffffff811115611edd57600080fd5b611ee984828501611a65565b60a08301525060c082013567ffffffffffffffff811115611f0957600080fd5b611f1584828501611a65565b60c08301525092915050565b600060c08284031215611f3357600080fd5b611f3d60c06129bb565b90506000611f4d84828501612155565b6000830152506020611f6184828501612155565b602083015250604082015167ffffffffffffffff811115611f8157600080fd5b611f8d84828501611abb565b604083015250606082015167ffffffffffffffff811115611fad57600080fd5b611fb984828501611abb565b606083015250608082015167ffffffffffffffff811115611fd957600080fd5b611fe584828501611abb565b60808301525060a082015167ffffffffffffffff81111561200557600080fd5b61201184828501611d31565b60a08301525092915050565b600060c0828403121561202f57600080fd5b61203960c06129bb565b9050600061204984828501612141565b600083015250602061205d84828501612141565b602083015250604082013567ffffffffffffffff81111561207d57600080fd5b61208984828501611a65565b604083015250606082013567ffffffffffffffff8111156120a957600080fd5b6120b584828501611a65565b606083015250608082013567ffffffffffffffff8111156120d557600080fd5b6120e184828501611a65565b60808301525060a082013567ffffffffffffffff81111561210157600080fd5b61210d84828501611c39565b60a08301525092915050565b60006121258235612bd8565b905092915050565b60006121398251612bd8565b905092915050565b600061214d8235612be2565b905092915050565b60006121618251612be2565b905092915050565b60006121758235612bf2565b905092915050565b60006121898251612bf2565b905092915050565b6000602082840312156121a357600080fd5b600082013567ffffffffffffffff8111156121bd57600080fd5b6121c984828501611862565b91505092915050565b6000602082840312156121e457600080fd5b600082015167ffffffffffffffff8111156121fe57600080fd5b61220a848285016118d8565b91505092915050565b60006020828403121561222557600080fd5b600082015167ffffffffffffffff81111561223f57600080fd5b61224b848285016119d3565b91505092915050565b60006020828403121561226657600080fd5b600061227484828501611a29565b91505092915050565b60006020828403121561228f57600080fd5b600082013567ffffffffffffffff8111156122a957600080fd5b6122b584828501611b11565b91505092915050565b6000602082840312156122d057600080fd5b600082015167ffffffffffffffff8111156122ea57600080fd5b6122f684828501611b67565b91505092915050565b6000806040838503121561231257600080fd5b600083013567ffffffffffffffff81111561232c57600080fd5b61233885828601611b11565b925050602083013567ffffffffffffffff81111561235557600080fd5b61236185828601611bbd565b9150509250929050565b60008060006060848603121561238057600080fd5b600084013567ffffffffffffffff81111561239a57600080fd5b6123a686828701611e29565b935050602084013567ffffffffffffffff8111156123c357600080fd5b6123cf86828701611b11565b925050604084013567ffffffffffffffff8111156123ec57600080fd5b6123f886828701611bbd565b9150509250925092565b6000806040838503121561241557600080fd5b600083013567ffffffffffffffff81111561242f57600080fd5b61243b85828601611e29565b925050602083013567ffffffffffffffff81111561245857600080fd5b61246485828601611bbd565b9150509250929050565b60006020828403121561248057600080fd5b600082013567ffffffffffffffff81111561249a57600080fd5b6124a68482850161201d565b91505092915050565b6000602082840312156124c157600080fd5b60006124cf8482850161212d565b91505092915050565b60006124e382612b26565b808452602084019350836020820285016124fc85612b0c565b60005b8481101561253557838303885261251783835161264d565b925061252282612b5d565b91506020880197506001810190506124ff565b508196508694505050505092915050565b600061255182612b31565b8084526020840193508360208202850161256a85612b19565b60005b848110156125a3578383038852612585838351612763565b925061259082612b6a565b915060208801975060018101905061256d565b508196508694505050505092915050565b6125bd81612b77565b82525050565b60006125ce82612b3c565b8084526125e2816020860160208601612c0e565b6125eb81612c41565b602085010191505092915050565b61260281612b83565b82525050565b61261181612b8d565b82525050565b600061262282612b52565b808452612636816020860160208601612c0e565b61263f81612c41565b602085010191505092915050565b600061265882612b47565b80845261266c816020860160208601612c0e565b61267581612c41565b602085010191505092915050565b600061268e82612b47565b8084526126a2816020860160208601612c0e565b6126ab81612c41565b602085010191505092915050565b600060e0830160008301516126d1600086018261282e565b5060208301516126e4602086018261282e565b5060408301516126f76040860182612608565b50606083015161270a6060860182612608565b5060808301518482036080860152612722828261264d565b91505060a083015184820360a086015261273c828261264d565b91505060c083015184820360c0860152612756828261264d565b9150508091505092915050565b600060c08301600083015161277b600086018261281f565b50602083015161278e602086018261281f565b50604083015184820360408601526127a6828261264d565b915050606083015184820360608601526127c0828261264d565b915050608083015184820360808601526127da828261264d565b91505060a083015184820360a08601526127f482826126b9565b9150508091505092915050565b61280a81612b9a565b82525050565b61281981612b9a565b82525050565b61282881612ba4565b82525050565b61283781612bb4565b82525050565b6000602082019050818103600083015261285781846124d8565b905092915050565b6000604082019050818103600083015261287981856124d8565b90506128886020830184612801565b9392505050565b600060208201905081810360008301526128a98184612546565b905092915050565b60006020820190506128c660008301846125b4565b92915050565b600060208201905081810360008301526128e681846125c3565b905092915050565b600060208201905061290360008301846125f9565b92915050565b600060208201905081810360008301526129238184612617565b905092915050565b600060408201905081810360008301526129458185612617565b905081810360208301526129598184612683565b90509392505050565b6000606082019050818103600083015261297c8186612617565b905061298b6020830185612810565b6129986040830184612810565b949350505050565b60006020820190506129b56000830184612801565b92915050565b6000604051905081810181811067ffffffffffffffff821117156129de57600080fd5b8060405250919050565b600067ffffffffffffffff8211156129ff57600080fd5b602082029050602081019050919050565b600067ffffffffffffffff821115612a2757600080fd5b602082029050602081019050919050565b600067ffffffffffffffff821115612a4f57600080fd5b602082029050602081019050919050565b600067ffffffffffffffff821115612a7757600080fd5b602082029050602081019050919050565b600067ffffffffffffffff821115612a9f57600080fd5b601f19601f8301169050602081019050919050565b600067ffffffffffffffff821115612acb57600080fd5b601f19601f8301169050602081019050919050565b600067ffffffffffffffff821115612af757600080fd5b601f19601f8301169050602081019050919050565b6000602082019050919050565b6000602082019050919050565b600081519050919050565b600081519050919050565b600081519050919050565b600081519050919050565b600081519050919050565b6000602082019050919050565b6000602082019050919050565b60008115159050919050565b6000819050919050565b60008160000b9050919050565b6000819050919050565b600063ffffffff82169050919050565b600060ff82169050919050565b6000819050919050565b60008160000b9050919050565b6000819050919050565b600063ffffffff82169050919050565b600060ff82169050919050565b82818337600083830152505050565b60005b83811015612c2c578082015181840152602081019050612c11565b83811115612c3b576000848401525b50505050565b6000601f19601f83011690509190505600a265627a7a723058207dd094fb746e89d74713fcde15e16fddfcfd0f9764c010750960abe5697d4cc86c6578706572696d656e74616cf50037",
  "source": "pragma solidity ^0.4.24;\r\npragma experimental ABIEncoderV2;\r\n\r\nimport \"./signatureShape.sol\";\r\nimport \"./strings.sol\";\r\nimport \"./bytesUtil.sol\";\r\nimport \"./intUtil.sol\";\r\nimport \"./compareShape.sol\";\r\n\r\ncontract AviDataInterface1 is SignatureShape{\r\n    function getSignatures() public view returns (Signature[] memory);\r\n}\r\n\r\ncontract AviDataInterface2 is SignatureShape{\r\n   function getSignatures() public view returns (Signature[] memory);\r\n}\r\n\r\ncontract AviDataInterface3 is SignatureShape{\r\n   function getSignatures() public view returns (Signature[] memory);\r\n}\r\n\r\ncontract AviDataInterface4 is SignatureShape{\r\n   function getSignatures() public view returns (Signature[] memory);\r\n}\r\n\r\ncontract AviDataInterface5 is SignatureShape{\r\n   function getSignatures() public view returns (Signature[] memory);\r\n}\r\ncontract AviDataInterface6 is SignatureShape{\r\n   function getSignatures() public view returns (Signature[] memory);\r\n}\r\n\r\n//0x4c6609896274ea3b52f92a79d15be352a18bed65\r\ncontract AviAnalysis is SignatureShape, CompareShape {\r\n    using Strings for *;\r\n    using BytesUtil for *;\r\n    using IntUtil for *;\r\n\r\n    AviDataInterface1 aviContract1 = AviDataInterface1(0x8694f17af4a47ad5780f7cb8feb6f197398a1462);\r\n    AviDataInterface2 aviContract2 = AviDataInterface2(0xa0367516a1f68657f6f38f91071e799f28a935f8);\r\n    AviDataInterface3 aviContract3 = AviDataInterface3(0x3c0e7d21f1d74ba51a58f4cb1a22626464876b21);\r\n\r\n    function getSignatures() public view returns (Signature[] memory){\r\n        Signature[][3] memory sigsEach = [aviContract1.getSignatures(), aviContract2.getSignatures(), aviContract3.getSignatures()];\r\n\r\n        uint len = 0;\r\n        for(uint i = 0; i < sigsEach.length; i++){\r\n            len += sigsEach[i].length;\r\n        }\r\n        Signature[] memory sigsAll = new Signature[](len);\r\n\r\n        for(i = 0; i < sigsEach.length; i++){\r\n            for(uint j = 0; j < sigsEach[i].length; j++){\r\n                sigsAll[i * 7 + j] = sigsEach[i][j];\r\n            }\r\n        }\r\n\r\n        return sigsAll;\r\n    }\r\n\r\n    function devideString(Signature s) public pure returns (string[] memory){\r\n        string[] memory idSeqArr = new string[](bytes(s.idSeq).length / 4);\r\n        uint count = 0;\r\n        for(uint i = 0; i < bytes(s.idSeq).length; i += 4){\r\n            idSeqArr[count++] = s.idSeq.substring(i, i + 4);\r\n        }\r\n        return idSeqArr;\r\n    }\r\n\r\n    function isMovi(string[] memory isSeqs) public pure returns (uint){\r\n        for(uint i = 0; i < isSeqs.length; i++){\r\n            if(keccak256(\"movi\") == keccak256(bytes(isSeqs[i]))){\r\n                return i;\r\n            }\r\n        }\r\n    } \r\n\r\n    function compareResult(string memory header, Compare chunk) public view returns (string[] memory, uint) {\r\n        uint cnt = 0;\r\n        string[] memory result = new string[](100);\r\n        \r\n        Signature[] memory signatures = getSignatures();\r\n\r\n        for(uint i = 0; i < signatures.length; i++){\r\n            string[] memory devide = devideString(signatures[i]);\r\n            uint movi = isMovi(devide) + 1;\r\n            //  \r\n            //if(devide.length == chunk.idSeq.length){\r\n            if(movi == chunk.idSeq.length){\r\n            //     \r\n                uint j;\r\n                //for(j = 0; j < devide.length; j++){\r\n                for(j = 0; j < movi; j++){\r\n                    if(keccak256(bytes(devide[j])) != keccak256(bytes(chunk.idSeq[j]))){\r\n                        break;\r\n                    }\r\n                }\r\n                //j == devide.length\r\n                if(j == movi){\r\n                    if(signatures[i].checkValue.mark != 0){\r\n                        if(avivalueCheck(signatures[i].checkValue, header, chunk) == true){\r\n                            result[cnt++] = signatures[i].itemType;\r\n                            result[cnt++] = signatures[i].itemName;\r\n                        }\r\n                    }else{\r\n                        result[cnt++] = signatures[i].itemType;\r\n                        result[cnt++] = signatures[i].itemName;\r\n                    }\r\n                }\r\n            }\r\n        }\r\n        return (result, cnt);\r\n    }\r\n\r\n    //      \r\n    function isField(FieldValue field, Compare chunk) public pure returns (int) {\r\n        uint count = 0;\r\n        for(uint i = 0; i < chunk.idSeq.length; i++){\r\n            if(keccak256(bytes(field.id)) == keccak256(bytes(chunk.idSeq[i]))){\r\n                if(field.seq != count){\r\n                    count++;\r\n                    continue;\r\n                }\r\n                else{\r\n                    return int(i);\r\n                }\r\n            }\r\n        }\r\n        return -1;\r\n    }\r\n\r\n    function avivalueCheck(FieldValue field, string memory header, Compare chunk) public pure returns (bool){\r\n        //      \r\n        int fieldIndex = isField(field, chunk);\r\n        string memory value;\r\n        bytes memory valueByte;\r\n        if(fieldIndex != -1){\r\n            uint start = chunk.idSeqStart[uint(fieldIndex)] + 8;\r\n            if(field.startOffset == -1){\r\n                //   value \r\n                uint n = getAviFieldSize(header.substring(start, start + 8));\r\n                valueByte = header.substring(start + 8, start + 8 + n).fromHex();\r\n            }\r\n            else{\r\n                //    value \r\n                valueByte = header.substring(start + 8 + uint(field.startOffset * 2), start + 8 + uint(field.startOffset * 2) + uint(field.fieldSize * 2)).fromHex();\r\n            }\r\n\r\n            //  true\r\n            if(keccak256(bytes(field.valueType)) == keccak256(\"INT\")){\r\n                value = int(valueByte.bytesToUint()).int2str();\r\n            }\r\n            else{\r\n                value = string(valueByte);\r\n            }\r\n            if(value.indexOf(field.fieldValue) != -1)\r\n                return true;\r\n        }\r\n        // false\r\n        return false;\r\n    }\r\n\r\n    function getAviFieldSize(string memory size) public pure returns (uint) {\r\n        string memory s = size.reverseValue();\r\n        uint n = s.fromHex().bytesToUint();\r\n        if(n % 2 != 0)\r\n            n += 1;\r\n        n = n * 2;\r\n        return n;\r\n    }\r\n}\r\n",
  "sourcePath": "C:\\Users\\Eunsil\\KlaytnProject\\finalfinalfinalproject\\contracts\\aviAnalysis.sol",
  "compiler": {
    "name": "solc",
    "version": "0.4.25+commit.59dbf8f1.Emscripten.clang"
  },
  "schemaVersion": "2.0.2",
  "updatedAt": "2019-09-10T09:07:06.363Z"
}