{
  "contractName": "AviInitData1",
  "abi": [
    {
      "constant": true,
      "inputs": [
        {
          "name": "",
          "type": "uint256"
        }
      ],
      "name": "signatures",
      "outputs": [
        {
          "name": "creatTime",
          "type": "uint32"
        },
        {
          "name": "deleteTime",
          "type": "uint32"
        },
        {
          "name": "itemType",
          "type": "string"
        },
        {
          "name": "itemName",
          "type": "string"
        },
        {
          "name": "idSeq",
          "type": "string"
        },
        {
          "components": [
            {
              "name": "mark",
              "type": "uint8"
            },
            {
              "name": "seq",
              "type": "uint8"
            },
            {
              "name": "startOffset",
              "type": "int8"
            },
            {
              "name": "fieldSize",
              "type": "int8"
            },
            {
              "name": "id",
              "type": "string"
            },
            {
              "name": "fieldValue",
              "type": "string"
            },
            {
              "name": "valueType",
              "type": "string"
            }
          ],
          "name": "checkValue",
          "type": "tuple"
        }
      ],
      "payable": false,
      "stateMutability": "view",
      "type": "function"
    },
    {
      "inputs": [],
      "payable": false,
      "stateMutability": "nonpayable",
      "type": "constructor"
    },
    {
      "constant": true,
      "inputs": [],
      "name": "getSignatures",
      "outputs": [
        {
          "components": [
            {
              "name": "creatTime",
              "type": "uint32"
            },
            {
              "name": "deleteTime",
              "type": "uint32"
            },
            {
              "name": "itemType",
              "type": "string"
            },
            {
              "name": "itemName",
              "type": "string"
            },
            {
              "name": "idSeq",
              "type": "string"
            },
            {
              "components": [
                {
                  "name": "mark",
                  "type": "uint8"
                },
                {
                  "name": "seq",
                  "type": "uint8"
                },
                {
                  "name": "startOffset",
                  "type": "int8"
                },
                {
                  "name": "fieldSize",
                  "type": "int8"
                },
                {
                  "name": "id",
                  "type": "string"
                },
                {
                  "name": "fieldValue",
                  "type": "string"
                },
                {
                  "name": "valueType",
                  "type": "string"
                }
              ],
              "name": "checkValue",
              "type": "tuple"
            }
          ],
          "name": "",
          "type": "tuple[]"
        }
      ],
      "payable": false,
      "stateMutability": "view",
      "type": "function"
    },
    {
      "constant": false,
      "inputs": [],
      "name": "init",
      "outputs": [],
      "payable": false,
      "stateMutability": "nonpayable",
      "type": "function"
    }
  ],
  "bytecode": "0x60806040523480156200001157600080fd5b506200002b62000031640100000000026401000000009004565b6200327d565b6200003b62003025565b6001600080820160006101000a81549063ffffffff02191690556000820160046101000a81549063ffffffff02191690556001820160006200007e91906200306d565b6002820160006200009091906200306d565b600382016000620000a291906200306d565b60048201600080820160006101000a81549060ff02191690556000820160016101000a81549060ff02191690556000820160026101000a81549060ff02191690556000820160036101000a81549060ff02191690556001820160006200010991906200306d565b6002820160006200011b91906200306d565b6003820160006200012d91906200306d565b5050505060e060405190810160405280600160ff168152602001600060ff1681526020017fffffffffffffffffffffffffffffffffffffffffffffffffffffffffffffffff60000b81526020017fffffffffffffffffffffffffffffffffffffffffffffffffffffffffffffffff60000b81526020016040805190810160405280600481526020017f495346540000000000000000000000000000000000000000000000000000000081525081526020016040805190810160405280600b81526020017f474f4d20454e434f44455200000000000000000000000000000000000000000081525081526020016040805190810160405280600381526020017f5354520000000000000000000000000000000000000000000000000000000000815250815250905080600160040160008201518160000160006101000a81548160ff021916908360ff16021790555060208201518160000160016101000a81548160ff021916908360ff16021790555060408201518160000160026101000a81548160ff021916908360000b60ff16021790555060608201518160000160036101000a81548160ff021916908360000b60ff160217905550608082015181600101908051906020019062000302929190620030b9565b5060a082015181600201908051906020019062000321929190620030b9565b5060c082015181600301908051906020019062000340929190620030b9565b509050506040805190810160405280600a81526020017f4156495f454449544f52000000000000000000000000000000000000000000008152506001800190805190602001906200039392919062003140565b506040805190810160405280600681526020017f474f4d4d4958000000000000000000000000000000000000000000000000000081525060016002019080519060200190620003e492919062003140565b50606060405190810160405280603881526020017f415649206864726c617669687374726c73747268737472667374726c7374726881526020017f73747266494e464f495346544a554e4b6d6f7669696478310000000000000000815250600160030190805190602001906200045c92919062003140565b5042600160000160006101000a81548163ffffffff021916908363ffffffff1602179055506000600160000160046101000a81548163ffffffff021916908363ffffffff16021790555060006001908060018154018082558091505090600182039060005260206000209060080201600090919290919091506000820160009054906101000a900463ffffffff168160000160006101000a81548163ffffffff021916908363ffffffff1602179055506000820160049054906101000a900463ffffffff168160000160046101000a81548163ffffffff021916908363ffffffff160217905550600182018160010190805460018160011615610100020316600290046200056c929190620031c7565b506002820181600201908054600181600116156101000203166002900462000596929190620031c7565b5060038201816003019080546001816001161561010002031660029004620005c0929190620031c7565b5060048201816004016000820160009054906101000a900460ff168160000160006101000a81548160ff021916908360ff1602179055506000820160019054906101000a900460ff168160000160016101000a81548160ff021916908360ff1602179055506000820160029054906101000a900460000b8160000160026101000a81548160ff021916908360000b60ff1602179055506000820160039054906101000a900460000b8160000160036101000a81548160ff021916908360000b60ff16021790555060018201816001019080546001816001161561010002031660029004620006b0929190620031c7565b5060028201816002019080546001816001161561010002031660029004620006da929190620031c7565b506003820181600301908054600181600116156101000203166002900462000704929190620031c7565b5050505050506001600080820160006101000a81549063ffffffff02191690556000820160046101000a81549063ffffffff02191690556001820160006200074d91906200306d565b6002820160006200075f91906200306d565b6003820160006200077191906200306d565b60048201600080820160006101000a81549060ff02191690556000820160016101000a81549060ff02191690556000820160026101000a81549060ff02191690556000820160036101000a81549060ff0219169055600182016000620007d891906200306d565b600282016000620007ea91906200306d565b600382016000620007fc91906200306d565b5050505060e060405190810160405280600160ff168152602001600060ff1681526020017fffffffffffffffffffffffffffffffffffffffffffffffffffffffffffffffff60000b81526020017fffffffffffffffffffffffffffffffffffffffffffffffffffffffffffffffff60000b81526020016040805190810160405280600481526020017f495346540000000000000000000000000000000000000000000000000000000081525081526020016040805190810160405280600881526020017f42616e646963757400000000000000000000000000000000000000000000000081525081526020016040805190810160405280600381526020017f5354520000000000000000000000000000000000000000000000000000000000815250815250905080600160040160008201518160000160006101000a81548160ff021916908360ff16021790555060208201518160000160016101000a81548160ff021916908360ff16021790555060408201518160000160026101000a81548160ff021916908360000b60ff16021790555060608201518160000160036101000a81548160ff021916908360000b60ff1602179055506080820151816001019080519060200190620009d1929190620030b9565b5060a0820151816002019080519060200190620009f0929190620030b9565b5060c082015181600301908051906020019062000a0f929190620030b9565b509050506040805190810160405280600a81526020017f4156495f454449544f520000000000000000000000000000000000000000000081525060018001908051906020019062000a6292919062003140565b506040805190810160405280600881526020017f42616e64696375740000000000000000000000000000000000000000000000008152506001600201908051906020019062000ab392919062003140565b50608060405190810160405280605481526020017f415649206864726c617669687374726c73747268737472664a554e4b7374726c81526020017f73747268737472664a554e4b7374726c73747268737472664a554e4b4a554e4b81526020017f494e464f495346544a554e4b6d6f7669696478310000000000000000000000008152506001600301908051906020019062000b5192919062003140565b5042600160000160006101000a81548163ffffffff021916908363ffffffff1602179055506000600160000160046101000a81548163ffffffff021916908363ffffffff16021790555060006001908060018154018082558091505090600182039060005260206000209060080201600090919290919091506000820160009054906101000a900463ffffffff168160000160006101000a81548163ffffffff021916908363ffffffff1602179055506000820160049054906101000a900463ffffffff168160000160046101000a81548163ffffffff021916908363ffffffff1602179055506001820181600101908054600181600116156101000203166002900462000c61929190620031c7565b506002820181600201908054600181600116156101000203166002900462000c8b929190620031c7565b506003820181600301908054600181600116156101000203166002900462000cb5929190620031c7565b5060048201816004016000820160009054906101000a900460ff168160000160006101000a81548160ff021916908360ff1602179055506000820160019054906101000a900460ff168160000160016101000a81548160ff021916908360ff1602179055506000820160029054906101000a900460000b8160000160026101000a81548160ff021916908360000b60ff1602179055506000820160039054906101000a900460000b8160000160036101000a81548160ff021916908360000b60ff1602179055506001820181600101908054600181600116156101000203166002900462000da5929190620031c7565b506002820181600201908054600181600116156101000203166002900462000dcf929190620031c7565b506003820181600301908054600181600116156101000203166002900462000df9929190620031c7565b5050505050506001600080820160006101000a81549063ffffffff02191690556000820160046101000a81549063ffffffff021916905560018201600062000e4291906200306d565b60028201600062000e5491906200306d565b60038201600062000e6691906200306d565b60048201600080820160006101000a81549060ff02191690556000820160016101000a81549060ff02191690556000820160026101000a81549060ff02191690556000820160036101000a81549060ff021916905560018201600062000ecd91906200306d565b60028201600062000edf91906200306d565b60038201600062000ef191906200306d565b5050505060e060405190810160405280600160ff168152602001600360ff1681526020017fffffffffffffffffffffffffffffffffffffffffffffffffffffffffffffffff60000b81526020017fffffffffffffffffffffffffffffffffffffffffffffffffffffffffffffffff60000b81526020016040805190810160405280600481526020017f4a554e4b0000000000000000000000000000000000000000000000000000000081525081526020016040805190810160405280600b81526020017f4c61766635332e32342e3200000000000000000000000000000000000000000081525081526020016040805190810160405280600381526020017f5354520000000000000000000000000000000000000000000000000000000000815250815250905080600160040160008201518160000160006101000a81548160ff021916908360ff16021790555060208201518160000160016101000a81548160ff021916908360ff16021790555060408201518160000160026101000a81548160ff021916908360000b60ff16021790555060608201518160000160036101000a81548160ff021916908360000b60ff1602179055506080820151816001019080519060200190620010c6929190620030b9565b5060a0820151816002019080519060200190620010e5929190620030b9565b5060c082015181600301908051906020019062001104929190620030b9565b509050506040805190810160405280600a81526020017f4156495f454449544f52000000000000000000000000000000000000000000008152506001800190805190602001906200115792919062003140565b506040805190810160405280601581526020017f47696c69736f667420566964656f20456469746f72000000000000000000000081525060016002019080519060200190620011a892919062003140565b50608060405190810160405280604481526020017f415649206864726c617669687374726c73747268737472664a554e4b7374726c81526020017f73747268737472664a554e4b767072704a554e4b4a554e4b4a554e4b6d6f766981526020017f6964783100000000000000000000000000000000000000000000000000000000815250600160030190805190602001906200124692919062003140565b5042600160000160006101000a81548163ffffffff021916908363ffffffff1602179055506000600160000160046101000a81548163ffffffff021916908363ffffffff16021790555060006001908060018154018082558091505090600182039060005260206000209060080201600090919290919091506000820160009054906101000a900463ffffffff168160000160006101000a81548163ffffffff021916908363ffffffff1602179055506000820160049054906101000a900463ffffffff168160000160046101000a81548163ffffffff021916908363ffffffff1602179055506001820181600101908054600181600116156101000203166002900462001356929190620031c7565b506002820181600201908054600181600116156101000203166002900462001380929190620031c7565b5060038201816003019080546001816001161561010002031660029004620013aa929190620031c7565b5060048201816004016000820160009054906101000a900460ff168160000160006101000a81548160ff021916908360ff1602179055506000820160019054906101000a900460ff168160000160016101000a81548160ff021916908360ff1602179055506000820160029054906101000a900460000b8160000160026101000a81548160ff021916908360000b60ff1602179055506000820160039054906101000a900460000b8160000160036101000a81548160ff021916908360000b60ff160217905550600182018160010190805460018160011615610100020316600290046200149a929190620031c7565b5060028201816002019080546001816001161561010002031660029004620014c4929190620031c7565b5060038201816003019080546001816001161561010002031660029004620014ee929190620031c7565b5050505050506001600080820160006101000a81549063ffffffff02191690556000820160046101000a81549063ffffffff02191690556001820160006200153791906200306d565b6002820160006200154991906200306d565b6003820160006200155b91906200306d565b60048201600080820160006101000a81549060ff02191690556000820160016101000a81549060ff02191690556000820160026101000a81549060ff02191690556000820160036101000a81549060ff0219169055600182016000620015c291906200306d565b600282016000620015d491906200306d565b600382016000620015e691906200306d565b5050505060e060405190810160405280600060ff168152602001600060ff1681526020016000800b81526020016000800b81526020016040805190810160405280600181526020017f300000000000000000000000000000000000000000000000000000000000000081525081526020016040805190810160405280600181526020017f300000000000000000000000000000000000000000000000000000000000000081525081526020016040805190810160405280600181526020017f3000000000000000000000000000000000000000000000000000000000000000815250815250905080600160040160008201518160000160006101000a81548160ff021916908360ff16021790555060208201518160000160016101000a81548160ff021916908360ff16021790555060408201518160000160026101000a81548160ff021916908360000b60ff16021790555060608201518160000160036101000a81548160ff021916908360000b60ff16021790555060808201518160010190805190602001906200177b929190620030b9565b5060a08201518160020190805190602001906200179a929190620030b9565b5060c0820151816003019080519060200190620017b9929190620030b9565b509050506040805190810160405280600a81526020017f4156495f454449544f52000000000000000000000000000000000000000000008152506001800190805190602001906200180c92919062003140565b506040805190810160405280600581526020017f5665676173000000000000000000000000000000000000000000000000000000815250600160020190805190602001906200185d92919062003140565b5060a060405190810160405280606481526020017f415649206864726c617669687374726c7374726873747266696e64787374726c81526020017f73747268737472664a554e4b696e64786f646d6c646d6c684a554e4b5644455881526020017f4c41434550415220494e464f54434f445443444f4a554e4b6d6f76696964783181526020017f4a554e4b00000000000000000000000000000000000000000000000000000000815250600160030190805190602001906200192192919062003140565b5042600160000160006101000a81548163ffffffff021916908363ffffffff1602179055506000600160000160046101000a81548163ffffffff021916908363ffffffff16021790555060006001908060018154018082558091505090600182039060005260206000209060080201600090919290919091506000820160009054906101000a900463ffffffff168160000160006101000a81548163ffffffff021916908363ffffffff1602179055506000820160049054906101000a900463ffffffff168160000160046101000a81548163ffffffff021916908363ffffffff1602179055506001820181600101908054600181600116156101000203166002900462001a31929190620031c7565b506002820181600201908054600181600116156101000203166002900462001a5b929190620031c7565b506003820181600301908054600181600116156101000203166002900462001a85929190620031c7565b5060048201816004016000820160009054906101000a900460ff168160000160006101000a81548160ff021916908360ff1602179055506000820160019054906101000a900460ff168160000160016101000a81548160ff021916908360ff1602179055506000820160029054906101000a900460000b8160000160026101000a81548160ff021916908360000b60ff1602179055506000820160039054906101000a900460000b8160000160036101000a81548160ff021916908360000b60ff1602179055506001820181600101908054600181600116156101000203166002900462001b75929190620031c7565b506002820181600201908054600181600116156101000203166002900462001b9f929190620031c7565b506003820181600301908054600181600116156101000203166002900462001bc9929190620031c7565b5050505050506001600080820160006101000a81549063ffffffff02191690556000820160046101000a81549063ffffffff021916905560018201600062001c1291906200306d565b60028201600062001c2491906200306d565b60038201600062001c3691906200306d565b60048201600080820160006101000a81549060ff02191690556000820160016101000a81549060ff02191690556000820160026101000a81549060ff02191690556000820160036101000a81549060ff021916905560018201600062001c9d91906200306d565b60028201600062001caf91906200306d565b60038201600062001cc191906200306d565b5050505060e060405190810160405280600160ff168152602001600160ff1681526020017fffffffffffffffffffffffffffffffffffffffffffffffffffffffffffffffff60000b81526020017fffffffffffffffffffffffffffffffffffffffffffffffffffffffffffffffff60000b81526020016040805190810160405280600481526020017f737472680000000000000000000000000000000000000000000000000000000081525081526020016040805190810160405280600481526020017f617564730000000000000000000000000000000000000000000000000000000081525081526020016040805190810160405280600381526020017f5354520000000000000000000000000000000000000000000000000000000000815250815250905080600160040160008201518160000160006101000a81548160ff021916908360ff16021790555060208201518160000160016101000a81548160ff021916908360ff16021790555060408201518160000160026101000a81548160ff021916908360000b60ff16021790555060608201518160000160036101000a81548160ff021916908360000b60ff160217905550608082015181600101908051906020019062001e96929190620030b9565b5060a082015181600201908051906020019062001eb5929190620030b9565b5060c082015181600301908051906020019062001ed4929190620030b9565b509050506040805190810160405280600a81526020017f4156495f454449544f520000000000000000000000000000000000000000000081525060018001908051906020019062001f2792919062003140565b506040805190810160405280600f81526020017f50696e6e61636c652053747564696f00000000000000000000000000000000008152506001600201908051906020019062001f7892919062003140565b50606060405190810160405280604081526020017f415649206864726c617669687374726c7374726873747266696e64787374726c81526020017f73747268737472664a554e4b696e64786f646d6c646d6c686d6f7669696478318152506001600301908051906020019062001ff092919062003140565b5042600160000160006101000a81548163ffffffff021916908363ffffffff1602179055506000600160000160046101000a81548163ffffffff021916908363ffffffff16021790555060006001908060018154018082558091505090600182039060005260206000209060080201600090919290919091506000820160009054906101000a900463ffffffff168160000160006101000a81548163ffffffff021916908363ffffffff1602179055506000820160049054906101000a900463ffffffff168160000160046101000a81548163ffffffff021916908363ffffffff1602179055506001820181600101908054600181600116156101000203166002900462002100929190620031c7565b50600282018160020190805460018160011615610100020316600290046200212a929190620031c7565b506003820181600301908054600181600116156101000203166002900462002154929190620031c7565b5060048201816004016000820160009054906101000a900460ff168160000160006101000a81548160ff021916908360ff1602179055506000820160019054906101000a900460ff168160000160016101000a81548160ff021916908360ff1602179055506000820160029054906101000a900460000b8160000160026101000a81548160ff021916908360000b60ff1602179055506000820160039054906101000a900460000b8160000160036101000a81548160ff021916908360000b60ff1602179055506001820181600101908054600181600116156101000203166002900462002244929190620031c7565b50600282018160020190805460018160011615610100020316600290046200226e929190620031c7565b506003820181600301908054600181600116156101000203166002900462002298929190620031c7565b5050505050506001600080820160006101000a81549063ffffffff02191690556000820160046101000a81549063ffffffff0219169055600182016000620022e191906200306d565b600282016000620022f391906200306d565b6003820160006200230591906200306d565b60048201600080820160006101000a81549060ff02191690556000820160016101000a81549060ff02191690556000820160026101000a81549060ff02191690556000820160036101000a81549060ff02191690556001820160006200236c91906200306d565b6002820160006200237e91906200306d565b6003820160006200239091906200306d565b5050505060e060405190810160405280600060ff168152602001600060ff1681526020016000800b81526020016000800b81526020016040805190810160405280600181526020017f300000000000000000000000000000000000000000000000000000000000000081525081526020016040805190810160405280600181526020017f300000000000000000000000000000000000000000000000000000000000000081525081526020016040805190810160405280600181526020017f3000000000000000000000000000000000000000000000000000000000000000815250815250905080600160040160008201518160000160006101000a81548160ff021916908360ff16021790555060208201518160000160016101000a81548160ff021916908360ff16021790555060408201518160000160026101000a81548160ff021916908360000b60ff16021790555060608201518160000160036101000a81548160ff021916908360000b60ff160217905550608082015181600101908051906020019062002525929190620030b9565b5060a082015181600201908051906020019062002544929190620030b9565b5060c082015181600301908051906020019062002563929190620030b9565b509050506040805190810160405280600a81526020017f4156495f454449544f5200000000000000000000000000000000000000000000815250600180019080519060200190620025b692919062003140565b506040805190810160405280600881526020017f41766964656d7578000000000000000000000000000000000000000000000000815250600160020190805190602001906200260792919062003140565b50606060405190810160405280603881526020017f415649206864726c617669687374726c73747268737472664a554e4b7374726c81526020017f73747268737472664a554e4b4a554e4b6d6f7669696478310000000000000000815250600160030190805190602001906200267f92919062003140565b5042600160000160006101000a81548163ffffffff021916908363ffffffff1602179055506000600160000160046101000a81548163ffffffff021916908363ffffffff16021790555060006001908060018154018082558091505090600182039060005260206000209060080201600090919290919091506000820160009054906101000a900463ffffffff168160000160006101000a81548163ffffffff021916908363ffffffff1602179055506000820160049054906101000a900463ffffffff168160000160046101000a81548163ffffffff021916908363ffffffff160217905550600182018160010190805460018160011615610100020316600290046200278f929190620031c7565b5060028201816002019080546001816001161561010002031660029004620027b9929190620031c7565b5060038201816003019080546001816001161561010002031660029004620027e3929190620031c7565b5060048201816004016000820160009054906101000a900460ff168160000160006101000a81548160ff021916908360ff1602179055506000820160019054906101000a900460ff168160000160016101000a81548160ff021916908360ff1602179055506000820160029054906101000a900460000b8160000160026101000a81548160ff021916908360000b60ff1602179055506000820160039054906101000a900460000b8160000160036101000a81548160ff021916908360000b60ff16021790555060018201816001019080546001816001161561010002031660029004620028d3929190620031c7565b5060028201816002019080546001816001161561010002031660029004620028fd929190620031c7565b506003820181600301908054600181600116156101000203166002900462002927929190620031c7565b5050505050506001600080820160006101000a81549063ffffffff02191690556000820160046101000a81549063ffffffff02191690556001820160006200297091906200306d565b6002820160006200298291906200306d565b6003820160006200299491906200306d565b60048201600080820160006101000a81549060ff02191690556000820160016101000a81549060ff02191690556000820160026101000a81549060ff02191690556000820160036101000a81549060ff0219169055600182016000620029fb91906200306d565b60028201600062002a0d91906200306d565b60038201600062002a1f91906200306d565b5050505060e060405190810160405280600160ff168152602001600060ff1681526020017fffffffffffffffffffffffffffffffffffffffffffffffffffffffffffffffff60000b81526020017fffffffffffffffffffffffffffffffffffffffffffffffffffffffffffffffff60000b81526020016040805190810160405280600481526020017f495346540000000000000000000000000000000000000000000000000000000081525081526020016040805190810160405280600d81526020017f4c61766635352e33332e3130300000000000000000000000000000000000000081525081526020016040805190810160405280600381526020017f5354520000000000000000000000000000000000000000000000000000000000815250815250905080600160040160008201518160000160006101000a81548160ff021916908360ff16021790555060208201518160000160016101000a81548160ff021916908360ff16021790555060408201518160000160026101000a81548160ff021916908360000b60ff16021790555060608201518160000160036101000a81548160ff021916908360000b60ff160217905550608082015181600101908051906020019062002bf4929190620030b9565b5060a082015181600201908051906020019062002c13929190620030b9565b5060c082015181600301908051906020019062002c32929190620030b9565b509050506040805190810160405280600a81526020017f4156495f454449544f520000000000000000000000000000000000000000000081525060018001908051906020019062002c8592919062003140565b506040805190810160405280600681526020017f46466d70656700000000000000000000000000000000000000000000000000008152506001600201908051906020019062002cd692919062003140565b50608060405190810160405280604881526020017f415649206864726c617669687374726c73747268737472664a554e4b7670727081526020017f7374726c73747268737472664a554e4b4a554e4b494e464f495346544a554e4b81526020017f6d6f7669696478310000000000000000000000000000000000000000000000008152506001600301908051906020019062002d7492919062003140565b5042600160000160006101000a81548163ffffffff021916908363ffffffff1602179055506000600160000160046101000a81548163ffffffff021916908363ffffffff16021790555060006001908060018154018082558091505090600182039060005260206000209060080201600090919290919091506000820160009054906101000a900463ffffffff168160000160006101000a81548163ffffffff021916908363ffffffff1602179055506000820160049054906101000a900463ffffffff168160000160046101000a81548163ffffffff021916908363ffffffff1602179055506001820181600101908054600181600116156101000203166002900462002e84929190620031c7565b506002820181600201908054600181600116156101000203166002900462002eae929190620031c7565b506003820181600301908054600181600116156101000203166002900462002ed8929190620031c7565b5060048201816004016000820160009054906101000a900460ff168160000160006101000a81548160ff021916908360ff1602179055506000820160019054906101000a900460ff168160000160016101000a81548160ff021916908360ff1602179055506000820160029054906101000a900460000b8160000160026101000a81548160ff021916908360000b60ff1602179055506000820160039054906101000a900460000b8160000160036101000a81548160ff021916908360000b60ff1602179055506001820181600101908054600181600116156101000203166002900462002fc8929190620031c7565b506002820181600201908054600181600116156101000203166002900462002ff2929190620031c7565b50600382018160030190805460018160011615610100020316600290046200301c929190620031c7565b50505050505050565b60e060405190810160405280600060ff168152602001600060ff1681526020016000800b81526020016000800b81526020016060815260200160608152602001606081525090565b50805460018160011615610100020316600290046000825580601f10620030955750620030b6565b601f016020900490600052602060002090810190620030b5919062003255565b5b50565b828054600181600116156101000203166002900490600052602060002090601f016020900481019282601f10620030fc57805160ff19168380011785556200312d565b828001600101855582156200312d579182015b828111156200312c5782518255916020019190600101906200310f565b5b5090506200313c919062003255565b5090565b828054600181600116156101000203166002900490600052602060002090601f016020900481019282601f106200318357805160ff1916838001178555620031b4565b82800160010185558215620031b4579182015b82811115620031b357825182559160200191906001019062003196565b5b509050620031c3919062003255565b5090565b828054600181600116156101000203166002900490600052602060002090601f016020900481019282601f1062003202578054855562003242565b828001600101855582156200324257600052602060002091601f016020900482015b828111156200324157825482559160010191906001019062003224565b5b50905062003251919062003255565b5090565b6200327a91905b80821115620032765760008160009055506001016200325c565b5090565b90565b613f82806200328d6000396000f300608060405260043610610057576000357c0100000000000000000000000000000000000000000000000000000000900463ffffffff1680638be101941461005c578063ad6f80ff1461009e578063e1c7392a146100c9575b600080fd5b34801561006857600080fd5b50610083600480360361007e9190810190613bbf565b6100e0565b60405161009596959493929190613e23565b60405180910390f35b3480156100aa57600080fd5b506100b3610578565b6040516100c09190613e01565b60405180910390f35b3480156100d557600080fd5b506100de610a79565b005b6000818154811015156100ef57fe5b90600052602060002090600802016000915090508060000160009054906101000a900463ffffffff16908060000160049054906101000a900463ffffffff1690806001018054600181600116156101000203166002900480601f0160208091040260200160405190810160405280929190818152602001828054600181600116156101000203166002900480156101c75780601f1061019c576101008083540402835291602001916101c7565b820191906000526020600020905b8154815290600101906020018083116101aa57829003601f168201915b505050505090806002018054600181600116156101000203166002900480601f0160208091040260200160405190810160405280929190818152602001828054600181600116156101000203166002900480156102655780601f1061023a57610100808354040283529160200191610265565b820191906000526020600020905b81548152906001019060200180831161024857829003601f168201915b505050505090806003018054600181600116156101000203166002900480601f0160208091040260200160405190810160405280929190818152602001828054600181600116156101000203166002900480156103035780601f106102d857610100808354040283529160200191610303565b820191906000526020600020905b8154815290600101906020018083116102e657829003601f168201915b5050505050908060040160e060405190810160405290816000820160009054906101000a900460ff1660ff1660ff1681526020016000820160019054906101000a900460ff1660ff1660ff1681526020016000820160029054906101000a900460000b60000b60000b81526020016000820160039054906101000a900460000b60000b60000b8152602001600182018054600181600116156101000203166002900480601f0160208091040260200160405190810160405280929190818152602001828054600181600116156101000203166002900480156104265780601f106103fb57610100808354040283529160200191610426565b820191906000526020600020905b81548152906001019060200180831161040957829003601f168201915b50505050508152602001600282018054600181600116156101000203166002900480601f0160208091040260200160405190810160405280929190818152602001828054600181600116156101000203166002900480156104c85780601f1061049d576101008083540402835291602001916104c8565b820191906000526020600020905b8154815290600101906020018083116104ab57829003601f168201915b50505050508152602001600382018054600181600116156101000203166002900480601f01602080910402602001604051908101604052809291908181526020018280546001816001161561010002031660029004801561056a5780601f1061053f5761010080835404028352916020019161056a565b820191906000526020600020905b81548152906001019060200180831161054d57829003601f168201915b505050505081525050905086565b60606000805480602002602001604051908101604052809291908181526020016000905b82821015610a70578382906000526020600020906008020160c060405190810160405290816000820160009054906101000a900463ffffffff1663ffffffff1663ffffffff1681526020016000820160049054906101000a900463ffffffff1663ffffffff1663ffffffff168152602001600182018054600181600116156101000203166002900480601f0160208091040260200160405190810160405280929190818152602001828054600181600116156101000203166002900480156106a55780601f1061067a576101008083540402835291602001916106a5565b820191906000526020600020905b81548152906001019060200180831161068857829003601f168201915b50505050508152602001600282018054600181600116156101000203166002900480601f0160208091040260200160405190810160405280929190818152602001828054600181600116156101000203166002900480156107475780601f1061071c57610100808354040283529160200191610747565b820191906000526020600020905b81548152906001019060200180831161072a57829003601f168201915b50505050508152602001600382018054600181600116156101000203166002900480601f0160208091040260200160405190810160405280929190818152602001828054600181600116156101000203166002900480156107e95780601f106107be576101008083540402835291602001916107e9565b820191906000526020600020905b8154815290600101906020018083116107cc57829003601f168201915b505050505081526020016004820160e060405190810160405290816000820160009054906101000a900460ff1660ff1660ff1681526020016000820160019054906101000a900460ff1660ff1660ff1681526020016000820160029054906101000a900460000b60000b60000b81526020016000820160039054906101000a900460000b60000b60000b8152602001600182018054600181600116156101000203166002900480601f0160208091040260200160405190810160405280929190818152602001828054600181600116156101000203166002900480156109105780601f106108e557610100808354040283529160200191610910565b820191906000526020600020905b8154815290600101906020018083116108f357829003601f168201915b50505050508152602001600282018054600181600116156101000203166002900480601f0160208091040260200160405190810160405280929190818152602001828054600181600116156101000203166002900480156109b25780601f10610987576101008083540402835291602001916109b2565b820191906000526020600020905b81548152906001019060200180831161099557829003601f168201915b50505050508152602001600382018054600181600116156101000203166002900480601f016020809104026020016040519081016040528092919081815260200182805460018160011615610100020316600290048015610a545780601f10610a2957610100808354040283529160200191610a54565b820191906000526020600020905b815481529060010190602001808311610a3757829003601f168201915b505050505081525050815250508152602001906001019061059c565b50505050905090565b610a8161396f565b6001600080820160006101000a81549063ffffffff02191690556000820160046101000a81549063ffffffff0219169055600182016000610ac291906139b7565b600282016000610ad291906139b7565b600382016000610ae291906139b7565b60048201600080820160006101000a81549060ff02191690556000820160016101000a81549060ff02191690556000820160026101000a81549060ff02191690556000820160036101000a81549060ff0219169055600182016000610b4791906139b7565b600282016000610b5791906139b7565b600382016000610b6791906139b7565b5050505060e060405190810160405280600160ff168152602001600060ff1681526020017fffffffffffffffffffffffffffffffffffffffffffffffffffffffffffffffff60000b81526020017fffffffffffffffffffffffffffffffffffffffffffffffffffffffffffffffff60000b81526020016040805190810160405280600481526020017f495346540000000000000000000000000000000000000000000000000000000081525081526020016040805190810160405280600b81526020017f474f4d20454e434f44455200000000000000000000000000000000000000000081525081526020016040805190810160405280600381526020017f5354520000000000000000000000000000000000000000000000000000000000815250815250905080600160040160008201518160000160006101000a81548160ff021916908360ff16021790555060208201518160000160016101000a81548160ff021916908360ff16021790555060408201518160000160026101000a81548160ff021916908360000b60ff16021790555060608201518160000160036101000a81548160ff021916908360000b60ff1602179055506080820151816001019080519060200190610d3a9291906139ff565b5060a0820151816002019080519060200190610d579291906139ff565b5060c0820151816003019080519060200190610d749291906139ff565b509050506040805190810160405280600a81526020017f4156495f454449544f5200000000000000000000000000000000000000000000815250600180019080519060200190610dc5929190613a7f565b506040805190810160405280600681526020017f474f4d4d4958000000000000000000000000000000000000000000000000000081525060016002019080519060200190610e14929190613a7f565b50606060405190810160405280603881526020017f415649206864726c617669687374726c73747268737472667374726c7374726881526020017f73747266494e464f495346544a554e4b6d6f766969647831000000000000000081525060016003019080519060200190610e8a929190613a7f565b5042600160000160006101000a81548163ffffffff021916908363ffffffff1602179055506000600160000160046101000a81548163ffffffff021916908363ffffffff16021790555060006001908060018154018082558091505090600182039060005260206000209060080201600090919290919091506000820160009054906101000a900463ffffffff168160000160006101000a81548163ffffffff021916908363ffffffff1602179055506000820160049054906101000a900463ffffffff168160000160046101000a81548163ffffffff021916908363ffffffff16021790555060018201816001019080546001816001161561010002031660029004610f98929190613aff565b5060028201816002019080546001816001161561010002031660029004610fc0929190613aff565b5060038201816003019080546001816001161561010002031660029004610fe8929190613aff565b5060048201816004016000820160009054906101000a900460ff168160000160006101000a81548160ff021916908360ff1602179055506000820160019054906101000a900460ff168160000160016101000a81548160ff021916908360ff1602179055506000820160029054906101000a900460000b8160000160026101000a81548160ff021916908360000b60ff1602179055506000820160039054906101000a900460000b8160000160036101000a81548160ff021916908360000b60ff160217905550600182018160010190805460018160011615610100020316600290046110d6929190613aff565b50600282018160020190805460018160011615610100020316600290046110fe929190613aff565b5060038201816003019080546001816001161561010002031660029004611126929190613aff565b5050505050506001600080820160006101000a81549063ffffffff02191690556000820160046101000a81549063ffffffff021916905560018201600061116d91906139b7565b60028201600061117d91906139b7565b60038201600061118d91906139b7565b60048201600080820160006101000a81549060ff02191690556000820160016101000a81549060ff02191690556000820160026101000a81549060ff02191690556000820160036101000a81549060ff02191690556001820160006111f291906139b7565b60028201600061120291906139b7565b60038201600061121291906139b7565b5050505060e060405190810160405280600160ff168152602001600060ff1681526020017fffffffffffffffffffffffffffffffffffffffffffffffffffffffffffffffff60000b81526020017fffffffffffffffffffffffffffffffffffffffffffffffffffffffffffffffff60000b81526020016040805190810160405280600481526020017f495346540000000000000000000000000000000000000000000000000000000081525081526020016040805190810160405280600881526020017f42616e646963757400000000000000000000000000000000000000000000000081525081526020016040805190810160405280600381526020017f5354520000000000000000000000000000000000000000000000000000000000815250815250905080600160040160008201518160000160006101000a81548160ff021916908360ff16021790555060208201518160000160016101000a81548160ff021916908360ff16021790555060408201518160000160026101000a81548160ff021916908360000b60ff16021790555060608201518160000160036101000a81548160ff021916908360000b60ff16021790555060808201518160010190805190602001906113e59291906139ff565b5060a08201518160020190805190602001906114029291906139ff565b5060c082015181600301908051906020019061141f9291906139ff565b509050506040805190810160405280600a81526020017f4156495f454449544f5200000000000000000000000000000000000000000000815250600180019080519060200190611470929190613a7f565b506040805190810160405280600881526020017f42616e6469637574000000000000000000000000000000000000000000000000815250600160020190805190602001906114bf929190613a7f565b50608060405190810160405280605481526020017f415649206864726c617669687374726c73747268737472664a554e4b7374726c81526020017f73747268737472664a554e4b7374726c73747268737472664a554e4b4a554e4b81526020017f494e464f495346544a554e4b6d6f7669696478310000000000000000000000008152506001600301908051906020019061155b929190613a7f565b5042600160000160006101000a81548163ffffffff021916908363ffffffff1602179055506000600160000160046101000a81548163ffffffff021916908363ffffffff16021790555060006001908060018154018082558091505090600182039060005260206000209060080201600090919290919091506000820160009054906101000a900463ffffffff168160000160006101000a81548163ffffffff021916908363ffffffff1602179055506000820160049054906101000a900463ffffffff168160000160046101000a81548163ffffffff021916908363ffffffff16021790555060018201816001019080546001816001161561010002031660029004611669929190613aff565b5060028201816002019080546001816001161561010002031660029004611691929190613aff565b50600382018160030190805460018160011615610100020316600290046116b9929190613aff565b5060048201816004016000820160009054906101000a900460ff168160000160006101000a81548160ff021916908360ff1602179055506000820160019054906101000a900460ff168160000160016101000a81548160ff021916908360ff1602179055506000820160029054906101000a900460000b8160000160026101000a81548160ff021916908360000b60ff1602179055506000820160039054906101000a900460000b8160000160036101000a81548160ff021916908360000b60ff160217905550600182018160010190805460018160011615610100020316600290046117a7929190613aff565b50600282018160020190805460018160011615610100020316600290046117cf929190613aff565b50600382018160030190805460018160011615610100020316600290046117f7929190613aff565b5050505050506001600080820160006101000a81549063ffffffff02191690556000820160046101000a81549063ffffffff021916905560018201600061183e91906139b7565b60028201600061184e91906139b7565b60038201600061185e91906139b7565b60048201600080820160006101000a81549060ff02191690556000820160016101000a81549060ff02191690556000820160026101000a81549060ff02191690556000820160036101000a81549060ff02191690556001820160006118c391906139b7565b6002820160006118d391906139b7565b6003820160006118e391906139b7565b5050505060e060405190810160405280600160ff168152602001600360ff1681526020017fffffffffffffffffffffffffffffffffffffffffffffffffffffffffffffffff60000b81526020017fffffffffffffffffffffffffffffffffffffffffffffffffffffffffffffffff60000b81526020016040805190810160405280600481526020017f4a554e4b0000000000000000000000000000000000000000000000000000000081525081526020016040805190810160405280600b81526020017f4c61766635332e32342e3200000000000000000000000000000000000000000081525081526020016040805190810160405280600381526020017f5354520000000000000000000000000000000000000000000000000000000000815250815250905080600160040160008201518160000160006101000a81548160ff021916908360ff16021790555060208201518160000160016101000a81548160ff021916908360ff16021790555060408201518160000160026101000a81548160ff021916908360000b60ff16021790555060608201518160000160036101000a81548160ff021916908360000b60ff1602179055506080820151816001019080519060200190611ab69291906139ff565b5060a0820151816002019080519060200190611ad39291906139ff565b5060c0820151816003019080519060200190611af09291906139ff565b509050506040805190810160405280600a81526020017f4156495f454449544f5200000000000000000000000000000000000000000000815250600180019080519060200190611b41929190613a7f565b506040805190810160405280601581526020017f47696c69736f667420566964656f20456469746f72000000000000000000000081525060016002019080519060200190611b90929190613a7f565b50608060405190810160405280604481526020017f415649206864726c617669687374726c73747268737472664a554e4b7374726c81526020017f73747268737472664a554e4b767072704a554e4b4a554e4b4a554e4b6d6f766981526020017f696478310000000000000000000000000000000000000000000000000000000081525060016003019080519060200190611c2c929190613a7f565b5042600160000160006101000a81548163ffffffff021916908363ffffffff1602179055506000600160000160046101000a81548163ffffffff021916908363ffffffff16021790555060006001908060018154018082558091505090600182039060005260206000209060080201600090919290919091506000820160009054906101000a900463ffffffff168160000160006101000a81548163ffffffff021916908363ffffffff1602179055506000820160049054906101000a900463ffffffff168160000160046101000a81548163ffffffff021916908363ffffffff16021790555060018201816001019080546001816001161561010002031660029004611d3a929190613aff565b5060028201816002019080546001816001161561010002031660029004611d62929190613aff565b5060038201816003019080546001816001161561010002031660029004611d8a929190613aff565b5060048201816004016000820160009054906101000a900460ff168160000160006101000a81548160ff021916908360ff1602179055506000820160019054906101000a900460ff168160000160016101000a81548160ff021916908360ff1602179055506000820160029054906101000a900460000b8160000160026101000a81548160ff021916908360000b60ff1602179055506000820160039054906101000a900460000b8160000160036101000a81548160ff021916908360000b60ff16021790555060018201816001019080546001816001161561010002031660029004611e78929190613aff565b5060028201816002019080546001816001161561010002031660029004611ea0929190613aff565b5060038201816003019080546001816001161561010002031660029004611ec8929190613aff565b5050505050506001600080820160006101000a81549063ffffffff02191690556000820160046101000a81549063ffffffff0219169055600182016000611f0f91906139b7565b600282016000611f1f91906139b7565b600382016000611f2f91906139b7565b60048201600080820160006101000a81549060ff02191690556000820160016101000a81549060ff02191690556000820160026101000a81549060ff02191690556000820160036101000a81549060ff0219169055600182016000611f9491906139b7565b600282016000611fa491906139b7565b600382016000611fb491906139b7565b5050505060e060405190810160405280600060ff168152602001600060ff1681526020016000800b81526020016000800b81526020016040805190810160405280600181526020017f300000000000000000000000000000000000000000000000000000000000000081525081526020016040805190810160405280600181526020017f300000000000000000000000000000000000000000000000000000000000000081525081526020016040805190810160405280600181526020017f3000000000000000000000000000000000000000000000000000000000000000815250815250905080600160040160008201518160000160006101000a81548160ff021916908360ff16021790555060208201518160000160016101000a81548160ff021916908360ff16021790555060408201518160000160026101000a81548160ff021916908360000b60ff16021790555060608201518160000160036101000a81548160ff021916908360000b60ff16021790555060808201518160010190805190602001906121479291906139ff565b5060a08201518160020190805190602001906121649291906139ff565b5060c08201518160030190805190602001906121819291906139ff565b509050506040805190810160405280600a81526020017f4156495f454449544f52000000000000000000000000000000000000000000008152506001800190805190602001906121d2929190613a7f565b506040805190810160405280600581526020017f566567617300000000000000000000000000000000000000000000000000000081525060016002019080519060200190612221929190613a7f565b5060a060405190810160405280606481526020017f415649206864726c617669687374726c7374726873747266696e64787374726c81526020017f73747268737472664a554e4b696e64786f646d6c646d6c684a554e4b5644455881526020017f4c41434550415220494e464f54434f445443444f4a554e4b6d6f76696964783181526020017f4a554e4b00000000000000000000000000000000000000000000000000000000815250600160030190805190602001906122e3929190613a7f565b5042600160000160006101000a81548163ffffffff021916908363ffffffff1602179055506000600160000160046101000a81548163ffffffff021916908363ffffffff16021790555060006001908060018154018082558091505090600182039060005260206000209060080201600090919290919091506000820160009054906101000a900463ffffffff168160000160006101000a81548163ffffffff021916908363ffffffff1602179055506000820160049054906101000a900463ffffffff168160000160046101000a81548163ffffffff021916908363ffffffff160217905550600182018160010190805460018160011615610100020316600290046123f1929190613aff565b5060028201816002019080546001816001161561010002031660029004612419929190613aff565b5060038201816003019080546001816001161561010002031660029004612441929190613aff565b5060048201816004016000820160009054906101000a900460ff168160000160006101000a81548160ff021916908360ff1602179055506000820160019054906101000a900460ff168160000160016101000a81548160ff021916908360ff1602179055506000820160029054906101000a900460000b8160000160026101000a81548160ff021916908360000b60ff1602179055506000820160039054906101000a900460000b8160000160036101000a81548160ff021916908360000b60ff1602179055506001820181600101908054600181600116156101000203166002900461252f929190613aff565b5060028201816002019080546001816001161561010002031660029004612557929190613aff565b506003820181600301908054600181600116156101000203166002900461257f929190613aff565b5050505050506001600080820160006101000a81549063ffffffff02191690556000820160046101000a81549063ffffffff02191690556001820160006125c691906139b7565b6002820160006125d691906139b7565b6003820160006125e691906139b7565b60048201600080820160006101000a81549060ff02191690556000820160016101000a81549060ff02191690556000820160026101000a81549060ff02191690556000820160036101000a81549060ff021916905560018201600061264b91906139b7565b60028201600061265b91906139b7565b60038201600061266b91906139b7565b5050505060e060405190810160405280600160ff168152602001600160ff1681526020017fffffffffffffffffffffffffffffffffffffffffffffffffffffffffffffffff60000b81526020017fffffffffffffffffffffffffffffffffffffffffffffffffffffffffffffffff60000b81526020016040805190810160405280600481526020017f737472680000000000000000000000000000000000000000000000000000000081525081526020016040805190810160405280600481526020017f617564730000000000000000000000000000000000000000000000000000000081525081526020016040805190810160405280600381526020017f5354520000000000000000000000000000000000000000000000000000000000815250815250905080600160040160008201518160000160006101000a81548160ff021916908360ff16021790555060208201518160000160016101000a81548160ff021916908360ff16021790555060408201518160000160026101000a81548160ff021916908360000b60ff16021790555060608201518160000160036101000a81548160ff021916908360000b60ff160217905550608082015181600101908051906020019061283e9291906139ff565b5060a082015181600201908051906020019061285b9291906139ff565b5060c08201518160030190805190602001906128789291906139ff565b509050506040805190810160405280600a81526020017f4156495f454449544f52000000000000000000000000000000000000000000008152506001800190805190602001906128c9929190613a7f565b506040805190810160405280600f81526020017f50696e6e61636c652053747564696f000000000000000000000000000000000081525060016002019080519060200190612918929190613a7f565b50606060405190810160405280604081526020017f415649206864726c617669687374726c7374726873747266696e64787374726c81526020017f73747268737472664a554e4b696e64786f646d6c646d6c686d6f7669696478318152506001600301908051906020019061298e929190613a7f565b5042600160000160006101000a81548163ffffffff021916908363ffffffff1602179055506000600160000160046101000a81548163ffffffff021916908363ffffffff16021790555060006001908060018154018082558091505090600182039060005260206000209060080201600090919290919091506000820160009054906101000a900463ffffffff168160000160006101000a81548163ffffffff021916908363ffffffff1602179055506000820160049054906101000a900463ffffffff168160000160046101000a81548163ffffffff021916908363ffffffff16021790555060018201816001019080546001816001161561010002031660029004612a9c929190613aff565b5060028201816002019080546001816001161561010002031660029004612ac4929190613aff565b5060038201816003019080546001816001161561010002031660029004612aec929190613aff565b5060048201816004016000820160009054906101000a900460ff168160000160006101000a81548160ff021916908360ff1602179055506000820160019054906101000a900460ff168160000160016101000a81548160ff021916908360ff1602179055506000820160029054906101000a900460000b8160000160026101000a81548160ff021916908360000b60ff1602179055506000820160039054906101000a900460000b8160000160036101000a81548160ff021916908360000b60ff16021790555060018201816001019080546001816001161561010002031660029004612bda929190613aff565b5060028201816002019080546001816001161561010002031660029004612c02929190613aff565b5060038201816003019080546001816001161561010002031660029004612c2a929190613aff565b5050505050506001600080820160006101000a81549063ffffffff02191690556000820160046101000a81549063ffffffff0219169055600182016000612c7191906139b7565b600282016000612c8191906139b7565b600382016000612c9191906139b7565b60048201600080820160006101000a81549060ff02191690556000820160016101000a81549060ff02191690556000820160026101000a81549060ff02191690556000820160036101000a81549060ff0219169055600182016000612cf691906139b7565b600282016000612d0691906139b7565b600382016000612d1691906139b7565b5050505060e060405190810160405280600060ff168152602001600060ff1681526020016000800b81526020016000800b81526020016040805190810160405280600181526020017f300000000000000000000000000000000000000000000000000000000000000081525081526020016040805190810160405280600181526020017f300000000000000000000000000000000000000000000000000000000000000081525081526020016040805190810160405280600181526020017f3000000000000000000000000000000000000000000000000000000000000000815250815250905080600160040160008201518160000160006101000a81548160ff021916908360ff16021790555060208201518160000160016101000a81548160ff021916908360ff16021790555060408201518160000160026101000a81548160ff021916908360000b60ff16021790555060608201518160000160036101000a81548160ff021916908360000b60ff1602179055506080820151816001019080519060200190612ea99291906139ff565b5060a0820151816002019080519060200190612ec69291906139ff565b5060c0820151816003019080519060200190612ee39291906139ff565b509050506040805190810160405280600a81526020017f4156495f454449544f5200000000000000000000000000000000000000000000815250600180019080519060200190612f34929190613a7f565b506040805190810160405280600881526020017f41766964656d757800000000000000000000000000000000000000000000000081525060016002019080519060200190612f83929190613a7f565b50606060405190810160405280603881526020017f415649206864726c617669687374726c73747268737472664a554e4b7374726c81526020017f73747268737472664a554e4b4a554e4b6d6f766969647831000000000000000081525060016003019080519060200190612ff9929190613a7f565b5042600160000160006101000a81548163ffffffff021916908363ffffffff1602179055506000600160000160046101000a81548163ffffffff021916908363ffffffff16021790555060006001908060018154018082558091505090600182039060005260206000209060080201600090919290919091506000820160009054906101000a900463ffffffff168160000160006101000a81548163ffffffff021916908363ffffffff1602179055506000820160049054906101000a900463ffffffff168160000160046101000a81548163ffffffff021916908363ffffffff16021790555060018201816001019080546001816001161561010002031660029004613107929190613aff565b506002820181600201908054600181600116156101000203166002900461312f929190613aff565b5060038201816003019080546001816001161561010002031660029004613157929190613aff565b5060048201816004016000820160009054906101000a900460ff168160000160006101000a81548160ff021916908360ff1602179055506000820160019054906101000a900460ff168160000160016101000a81548160ff021916908360ff1602179055506000820160029054906101000a900460000b8160000160026101000a81548160ff021916908360000b60ff1602179055506000820160039054906101000a900460000b8160000160036101000a81548160ff021916908360000b60ff16021790555060018201816001019080546001816001161561010002031660029004613245929190613aff565b506002820181600201908054600181600116156101000203166002900461326d929190613aff565b5060038201816003019080546001816001161561010002031660029004613295929190613aff565b5050505050506001600080820160006101000a81549063ffffffff02191690556000820160046101000a81549063ffffffff02191690556001820160006132dc91906139b7565b6002820160006132ec91906139b7565b6003820160006132fc91906139b7565b60048201600080820160006101000a81549060ff02191690556000820160016101000a81549060ff02191690556000820160026101000a81549060ff02191690556000820160036101000a81549060ff021916905560018201600061336191906139b7565b60028201600061337191906139b7565b60038201600061338191906139b7565b5050505060e060405190810160405280600160ff168152602001600060ff1681526020017fffffffffffffffffffffffffffffffffffffffffffffffffffffffffffffffff60000b81526020017fffffffffffffffffffffffffffffffffffffffffffffffffffffffffffffffff60000b81526020016040805190810160405280600481526020017f495346540000000000000000000000000000000000000000000000000000000081525081526020016040805190810160405280600d81526020017f4c61766635352e33332e3130300000000000000000000000000000000000000081525081526020016040805190810160405280600381526020017f5354520000000000000000000000000000000000000000000000000000000000815250815250905080600160040160008201518160000160006101000a81548160ff021916908360ff16021790555060208201518160000160016101000a81548160ff021916908360ff16021790555060408201518160000160026101000a81548160ff021916908360000b60ff16021790555060608201518160000160036101000a81548160ff021916908360000b60ff16021790555060808201518160010190805190602001906135549291906139ff565b5060a08201518160020190805190602001906135719291906139ff565b5060c082015181600301908051906020019061358e9291906139ff565b509050506040805190810160405280600a81526020017f4156495f454449544f52000000000000000000000000000000000000000000008152506001800190805190602001906135df929190613a7f565b506040805190810160405280600681526020017f46466d70656700000000000000000000000000000000000000000000000000008152506001600201908051906020019061362e929190613a7f565b50608060405190810160405280604881526020017f415649206864726c617669687374726c73747268737472664a554e4b7670727081526020017f7374726c73747268737472664a554e4b4a554e4b494e464f495346544a554e4b81526020017f6d6f766969647831000000000000000000000000000000000000000000000000815250600160030190805190602001906136ca929190613a7f565b5042600160000160006101000a81548163ffffffff021916908363ffffffff1602179055506000600160000160046101000a81548163ffffffff021916908363ffffffff16021790555060006001908060018154018082558091505090600182039060005260206000209060080201600090919290919091506000820160009054906101000a900463ffffffff168160000160006101000a81548163ffffffff021916908363ffffffff1602179055506000820160049054906101000a900463ffffffff168160000160046101000a81548163ffffffff021916908363ffffffff160217905550600182018160010190805460018160011615610100020316600290046137d8929190613aff565b5060028201816002019080546001816001161561010002031660029004613800929190613aff565b5060038201816003019080546001816001161561010002031660029004613828929190613aff565b5060048201816004016000820160009054906101000a900460ff168160000160006101000a81548160ff021916908360ff1602179055506000820160019054906101000a900460ff168160000160016101000a81548160ff021916908360ff1602179055506000820160029054906101000a900460000b8160000160026101000a81548160ff021916908360000b60ff1602179055506000820160039054906101000a900460000b8160000160036101000a81548160ff021916908360000b60ff16021790555060018201816001019080546001816001161561010002031660029004613916929190613aff565b506002820181600201908054600181600116156101000203166002900461393e929190613aff565b5060038201816003019080546001816001161561010002031660029004613966929190613aff565b50505050505050565b60e060405190810160405280600060ff168152602001600060ff1681526020016000800b81526020016000800b81526020016060815260200160608152602001606081525090565b50805460018160011615610100020316600290046000825580601f106139dd57506139fc565b601f0160209004906000526020600020908101906139fb9190613b86565b5b50565b828054600181600116156101000203166002900490600052602060002090601f016020900481019282601f10613a4057805160ff1916838001178555613a6e565b82800160010185558215613a6e579182015b82811115613a6d578251825591602001919060010190613a52565b5b509050613a7b9190613b86565b5090565b828054600181600116156101000203166002900490600052602060002090601f016020900481019282601f10613ac057805160ff1916838001178555613aee565b82800160010185558215613aee579182015b82811115613aed578251825591602001919060010190613ad2565b5b509050613afb9190613b86565b5090565b828054600181600116156101000203166002900490600052602060002090601f016020900481019282601f10613b385780548555613b75565b82800160010185558215613b7557600052602060002091601f016020900482015b82811115613b74578254825591600101919060010190613b59565b5b509050613b829190613b86565b5090565b613ba891905b80821115613ba4576000816000905550600101613b8c565b5090565b90565b6000613bb78235613efa565b905092915050565b600060208284031215613bd157600080fd5b6000613bdf84828501613bab565b91505092915050565b6000613bf382613ead565b80845260208401935083602082028501613c0c85613ea0565b60005b84811015613c45578383038852613c27838351613d45565b9250613c3282613ec3565b9150602088019750600181019050613c0f565b508196508694505050505092915050565b613c5f81613ed0565b82525050565b6000613c7082613eb8565b808452613c84816020860160208601613f04565b613c8d81613f37565b602085010191505092915050565b600060e083016000830151613cb36000860182613df2565b506020830151613cc66020860182613df2565b506040830151613cd96040860182613c56565b506060830151613cec6060860182613c56565b5060808301518482036080860152613d048282613c65565b91505060a083015184820360a0860152613d1e8282613c65565b91505060c083015184820360c0860152613d388282613c65565b9150508091505092915050565b600060c083016000830151613d5d6000860182613de3565b506020830151613d706020860182613de3565b5060408301518482036040860152613d888282613c65565b91505060608301518482036060860152613da28282613c65565b91505060808301518482036080860152613dbc8282613c65565b91505060a083015184820360a0860152613dd68282613c9b565b9150508091505092915050565b613dec81613edd565b82525050565b613dfb81613eed565b82525050565b60006020820190508181036000830152613e1b8184613be8565b905092915050565b600060c082019050613e386000830189613de3565b613e456020830188613de3565b8181036040830152613e578187613c65565b90508181036060830152613e6b8186613c65565b90508181036080830152613e7f8185613c65565b905081810360a0830152613e938184613c9b565b9050979650505050505050565b6000602082019050919050565b600081519050919050565b600081519050919050565b6000602082019050919050565b60008160000b9050919050565b600063ffffffff82169050919050565b600060ff82169050919050565b6000819050919050565b60005b83811015613f22578082015181840152602081019050613f07565b83811115613f31576000848401525b50505050565b6000601f19601f83011690509190505600a265627a7a72305820e46d05ce493a75bcbacea7b39d09d1173394b8633e045996da1cb75cd39dcfcb6c6578706572696d656e74616cf50037",
  "source": "pragma solidity ^0.4.24;\r\npragma experimental ABIEncoderV2;\r\n\r\nimport \"./signatureShape.sol\";\r\n\r\n//0x8694f17af4a47ad5780f7cb8feb6f197398a1462\r\ncontract AviInitData1 is SignatureShape{\r\n\r\n    Signature[] public signatures;\r\n    Signature sig;\r\n\r\n    constructor() public {\r\n       init();\r\n    }\r\n\r\n    function getSignatures() public view returns (Signature[] memory){\r\n        return signatures;  \r\n    }\r\n\r\n    function init() public {\r\n        \r\n        FieldValue memory check;\r\n\r\n        //1\r\n        delete sig;\r\n        check = FieldValue(1, 0, -1, -1, \"ISFT\", \"GOM ENCODER\", \"STR\");\r\n        sig.checkValue = check;\r\n\r\n        sig.itemType = \"AVI_EDITOR\";\r\n        sig.itemName = \"GOMMIX\"; // \" \" empty \r\n        sig.idSeq = \"AVI hdrlavihstrlstrhstrfstrlstrhstrfINFOISFTJUNKmoviidx1\";\r\n        sig.creatTime = uint32(now);\r\n        sig.deleteTime = 0;\r\n\r\n        signatures.push(sig);\r\n\r\n        //2\r\n        delete sig;\r\n        check = FieldValue(1, 0, -1, -1, \"ISFT\", \"Bandicut\", \"STR\");\r\n        sig.checkValue = check;\r\n\r\n        sig.itemType = \"AVI_EDITOR\";\r\n        sig.itemName = \"Bandicut\"; // \" \" empty \r\n        sig.idSeq = \"AVI hdrlavihstrlstrhstrfJUNKstrlstrhstrfJUNKstrlstrhstrfJUNKJUNKINFOISFTJUNKmoviidx1\";\r\n        sig.creatTime = uint32(now);\r\n        sig.deleteTime = 0;\r\n\r\n        signatures.push(sig);\r\n\r\n        //3\r\n        delete sig;\r\n        check = FieldValue(1, 3, -1, -1, \"JUNK\", \"Lavf53.24.2\", \"STR\");\r\n        sig.checkValue = check;\r\n\r\n        sig.itemType = \"AVI_EDITOR\";\r\n        sig.itemName = \"Gilisoft Video Editor\"; // \" \" empty \r\n        sig.idSeq = \"AVI hdrlavihstrlstrhstrfJUNKstrlstrhstrfJUNKvprpJUNKJUNKJUNKmoviidx1\";\r\n        sig.creatTime = uint32(now);\r\n        sig.deleteTime = 0;\r\n\r\n        signatures.push(sig);\r\n\r\n        //4\r\n        delete sig;\r\n        check = FieldValue(0, 0, 0, 0, \"0\", \"0\", \"0\");\r\n        sig.checkValue = check;\r\n\r\n        sig.itemType = \"AVI_EDITOR\";\r\n        sig.itemName = \"Vegas\"; // \" \" empty \r\n        sig.idSeq = \"AVI hdrlavihstrlstrhstrfindxstrlstrhstrfJUNKindxodmldmlhJUNKVDEXLACEPAR INFOTCODTCDOJUNKmoviidx1JUNK\";\r\n        sig.creatTime = uint32(now);\r\n        sig.deleteTime = 0;\r\n\r\n        signatures.push(sig);\r\n\r\n        //5\r\n        delete sig;\r\n        check = FieldValue(1, 1, -1, -1, \"strh\", \"auds\", \"STR\");\r\n        sig.checkValue = check;\r\n\r\n        sig.itemType = \"AVI_EDITOR\";\r\n        sig.itemName = \"Pinnacle Studio\"; // \" \" empty \r\n        sig.idSeq = \"AVI hdrlavihstrlstrhstrfindxstrlstrhstrfJUNKindxodmldmlhmoviidx1\";\r\n        sig.creatTime = uint32(now);\r\n        sig.deleteTime = 0;\r\n\r\n        signatures.push(sig);\r\n\r\n\r\n        //6\r\n        delete sig;\r\n        check = FieldValue(0, 0, 0, 0, \"0\", \"0\", \"0\");\r\n        sig.checkValue = check;\r\n\r\n        sig.itemType = \"AVI_EDITOR\";\r\n        sig.itemName = \"Avidemux\"; // \" \" empty \r\n        sig.idSeq = \"AVI hdrlavihstrlstrhstrfJUNKstrlstrhstrfJUNKJUNKmoviidx1\";\r\n        sig.creatTime = uint32(now);\r\n        sig.deleteTime = 0;\r\n\r\n        signatures.push(sig);\r\n\r\n        //7\r\n        delete sig;\r\n        check = FieldValue(1, 0, -1, -1, \"ISFT\", \"Lavf55.33.100\", \"STR\");\r\n        sig.checkValue = check;\r\n\r\n        sig.itemType = \"AVI_EDITOR\";\r\n        sig.itemName = \"FFmpeg\"; // \" \" empty \r\n        sig.idSeq = \"AVI hdrlavihstrlstrhstrfJUNKvprpstrlstrhstrfJUNKJUNKINFOISFTJUNKmoviidx1\";\r\n        sig.creatTime = uint32(now);\r\n        sig.deleteTime = 0;\r\n\r\n        signatures.push(sig);\r\n    }\r\n}",
  "sourcePath": "C:\\Users\\Eunsil\\KlaytnProject\\finalfinalfinalproject\\contracts\\aviInitData1.sol",
  "compiler": {
    "name": "solc",
    "version": "0.4.25+commit.59dbf8f1.Emscripten.clang"
  },
  "schemaVersion": "2.0.2",
  "updatedAt": "2019-09-10T09:07:05.939Z"
}