{
  "contractName": "BytesUtil",
  "abi": [
    {
      "constant": true,
      "inputs": [
        {
          "name": "self",
          "type": "bytes"
        }
      ],
      "name": "bytesToUint",
      "outputs": [
        {
          "name": "",
          "type": "uint256"
        }
      ],
      "payable": false,
      "stateMutability": "pure",
      "type": "function"
    }
  ],
  "bytecode": "0x6101b0610030600b82828239805160001a6073146000811461002057610022565bfe5b5030600052607381538281f3007300000000000000000000000000000000000000003014608060405260043610610058576000357c0100000000000000000000000000000000000000000000000000000000900463ffffffff16806302d06d051461005d575b600080fd5b6100b7600480360381019080803590602001908201803590602001908080601f01602080910402602001604051908101604052809392919081815260200183838082843782019150505050505091929192905050506100cd565b6040518082815260200191505060405180910390f35b60008060008090505b835181101561017a576001810184510360080260020a84828151811015156100fa57fe5b9060200101517f010000000000000000000000000000000000000000000000000000000000000090047f0100000000000000000000000000000000000000000000000000000000000000027f01000000000000000000000000000000000000000000000000000000000000009004028201915080806001019150506100d6565b81925050509190505600a165627a7a72305820a5164120c609a460db489cb9f9c72f69bb6be9b67afa5c0828170e7eff9ca79b0029",
  "source": "pragma solidity ^0.4.24;\r\n\r\nlibrary BytesUtil {\r\n\r\n    function bytesToUint(bytes memory self) public pure returns (uint256){\r\n        uint256 number;\r\n        for(uint i = 0; i < self.length; i++){\r\n            number = number + uint256(self[i])*(2**(8*(self.length-(i+1))));\r\n        }\r\n        return number;\r\n    }\r\n\r\n}",
  "sourcePath": "C:\\Users\\Eunsil\\KlaytnProject\\finalfinalfinalproject\\contracts\\bytesUtil.sol",
  "compiler": {
    "name": "solc",
    "version": "0.4.25+commit.59dbf8f1.Emscripten.clang"
  },
  "schemaVersion": "2.0.2",
  "updatedAt": "2019-09-10T09:07:05.859Z"
}