{
  "contractName": "frontHashDB",
  "abi": [
    {
      "constant": false,
      "inputs": [
        {
          "name": "fronthash",
          "type": "string"
        },
        {
          "name": "time",
          "type": "string"
        }
      ],
      "name": "setFrontHash",
      "outputs": [],
      "payable": false,
      "stateMutability": "nonpayable",
      "type": "function"
    },
    {
      "constant": true,
      "inputs": [],
      "name": "getFrontHash",
      "outputs": [
        {
          "components": [
            {
              "name": "fileHash",
              "type": "string"
            },
            {
              "name": "checkTime",
              "type": "string"
            }
          ],
          "name": "",
          "type": "tuple"
        }
      ],
      "payable": false,
      "stateMutability": "view",
      "type": "function"
    }
  ],
  "bytecode": "0x608060405234801561001057600080fd5b506105b4806100206000396000f30060806040526004361061004c576000357c0100000000000000000000000000000000000000000000000000000000900463ffffffff168063347400751461005157806350c38ec31461007a575b600080fd5b34801561005d57600080fd5b506100786004803603610073919081019061041a565b6100a5565b005b34801561008657600080fd5b5061008f61018e565b60405161009c9190610509565b60405180910390f35b6000604080519081016040528086868080601f016020809104026020016040519081016040528093929190818152602001838380828437820191505050505050815260200184848080601f01602080910402602001604051908101604052809392919081815260200183838082843782019150505050505081525090806001815401808255809150509060018203906000526020600020906002020160009091929091909150600082015181600001908051906020019061016792919061030f565b50602082015181600101908051906020019061018492919061030f565b5050505050505050565b61019661038f565b60006001600080549050038154811015156101ad57fe5b9060005260206000209060020201604080519081016040529081600082018054600181600116156101000203166002900480601f01602080910402602001604051908101604052809291908181526020018280546001816001161561010002031660029004801561025f5780601f106102345761010080835404028352916020019161025f565b820191906000526020600020905b81548152906001019060200180831161024257829003601f168201915b50505050508152602001600182018054600181600116156101000203166002900480601f0160208091040260200160405190810160405280929190818152602001828054600181600116156101000203166002900480156103015780601f106102d657610100808354040283529160200191610301565b820191906000526020600020905b8154815290600101906020018083116102e457829003601f168201915b505050505081525050905090565b828054600181600116156101000203166002900490600052602060002090601f016020900481019282601f1061035057805160ff191683800117855561037e565b8280016001018555821561037e579182015b8281111561037d578251825591602001919060010190610362565b5b50905061038b91906103a9565b5090565b604080519081016040528060608152602001606081525090565b6103cb91905b808211156103c75760008160009055506001016103af565b5090565b90565b60008083601f84011215156103e257600080fd5b8235905067ffffffffffffffff8111156103fb57600080fd5b60208301915083600182028301111561041357600080fd5b9250929050565b6000806000806040858703121561043057600080fd5b600085013567ffffffffffffffff81111561044a57600080fd5b610456878288016103ce565b9450945050602085013567ffffffffffffffff81111561047557600080fd5b610481878288016103ce565b925092505092959194509250565b600061049a8261052b565b8084526104ae816020860160208601610536565b6104b781610569565b602085010191505092915050565b600060408301600083015184820360008601526104e2828261048f565b915050602083015184820360208601526104fc828261048f565b9150508091505092915050565b6000602082019050818103600083015261052381846104c5565b905092915050565b600081519050919050565b60005b83811015610554578082015181840152602081019050610539565b83811115610563576000848401525b50505050565b6000601f19601f83011690509190505600a265627a7a72305820ebc16de2458dd3ce78bd9ed9d958d975aa9a5bfa342ed0bb1e06c01252d0c2ce6c6578706572696d656e74616cf50037",
  "source": "pragma solidity ^0.4.24;\r\npragma experimental ABIEncoderV2;\r\n\r\ncontract frontHashDB {\r\n\r\n    struct FrontHash {\r\n        string  fileHash;\r\n        string  checkTime;\r\n    }\r\n    \r\n    FrontHash[] fronthashes;\r\n\r\n    function setFrontHash(string fronthash, string time) external  {\r\n        fronthashes.push(FrontHash(fronthash, time));\r\n    }\r\n\r\n    function getFrontHash() public view returns (FrontHash memory) {\r\n        return fronthashes[fronthashes.length - 1];\r\n    }\r\n}",
  "sourcePath": "C:\\Users\\Eunsil\\KlaytnProject\\finalfinalfinalproject\\contracts\\frontHashDB.sol",
  "compiler": {
    "name": "solc",
    "version": "0.4.25+commit.59dbf8f1.Emscripten.clang"
  },
  "schemaVersion": "2.0.2",
  "updatedAt": "2019-09-10T09:07:29.657Z"
}