{
  "contractName": "InitData",
  "abi": [
    {
      "constant": true,
      "inputs": [
        {
          "name": "",
          "type": "uint256"
        }
      ],
      "name": "signatures",
      "outputs": [
        {
          "name": "itemType",
          "type": "string"
        },
        {
          "name": "itemName",
          "type": "string"
        },
        {
          "name": "idNum",
          "type": "uint256"
        },
        {
          "name": "idSeq",
          "type": "string"
        },
        {
          "name": "creatTime",
          "type": "uint256"
        },
        {
          "name": "deleteTime",
          "type": "uint256"
        }
      ],
      "payable": false,
      "stateMutability": "view",
      "type": "function"
    },
    {
      "constant": false,
      "inputs": [],
      "name": "init",
      "outputs": [],
      "payable": false,
      "stateMutability": "nonpayable",
      "type": "function"
    }
  ],
  "bytecode": "0x608060405234801561001057600080fd5b50612005806100206000396000f30060806040526004361061004c576000357c0100000000000000000000000000000000000000000000000000000000900463ffffffff1680638be1019414610051578063e1c7392a14610093575b600080fd5b34801561005d57600080fd5b5061007860048036036100739190810190611de8565b6100aa565b60405161008a96959493929190611e56565b60405180910390f35b34801561009f57600080fd5b506100a86102bd565b005b6000818154811015156100b957fe5b9060005260206000209060070201600091509050806000018054600181600116156101000203166002900480601f0160208091040260200160405190810160405280929190818152602001828054600181600116156101000203166002900480156101655780601f1061013a57610100808354040283529160200191610165565b820191906000526020600020905b81548152906001019060200180831161014857829003601f168201915b505050505090806001018054600181600116156101000203166002900480601f0160208091040260200160405190810160405280929190818152602001828054600181600116156101000203166002900480156102035780601f106101d857610100808354040283529160200191610203565b820191906000526020600020905b8154815290600101906020018083116101e657829003601f168201915b505050505090806002015490806003018054600181600116156101000203166002900480601f0160208091040260200160405190810160405280929190818152602001828054600181600116156101000203166002900480156102a75780601f1061027c576101008083540402835291602001916102a7565b820191906000526020600020905b81548152906001019060200180831161028a57829003601f168201915b5050505050908060050154908060060154905086565b6102c5611a56565b6040805190810160405280600881526020017f424c41434b424f5800000000000000000000000000000000000000000000000081525060016000019080519060200190610313929190611a8d565b506040805190810160405280600c81526020017f494e415649204658443730300000000000000000000000000000000000000000815250600180019080519060200190610361929190611a8d565b50608060405190810160405280604481526020017f415649206864726c617669687374726c73747268737472667374726c7374726881526020017f737472667374726c73747268737472667374726c73747268737472666d6f766981526020017f6964783100000000000000000000000000000000000000000000000000000000815250600160030190805190602001906103fd929190611a8d565b5060c06040519081016040528060018152602001600081526020016040805190810160405280600481526020017f7374726800000000000000000000000000000000000000000000000000000000815250815260200160008152602001600481526020016040805190810160405280600481526020017f7669647300000000000000000000000000000000000000000000000000000000815250815250905060016004018190806001815401808255809150509060018203906000526020600020906006020160009091929091909150600082015181600001556020820151816001015560408201518160020190805190602001906104fd929190611b0d565b50606082015181600301556080820151816004015560a082015181600501908051906020019061052e929190611b0d565b5050505060c06040519081016040528060018152602001600081526020016040805190810160405280600481526020017f7374726800000000000000000000000000000000000000000000000000000000815250815260200160048152602001600481526020016040805190810160405280600481526020017f483236340000000000000000000000000000000000000000000000000000000081525081525090506001600401819080600181540180825580915050906001820390600052602060002090600602016000909192909190915060008201518160000155602082015181600101556040820151816002019080519060200190610631929190611b0d565b50606082015181600301556080820151816004015560a0820151816005019080519060200190610662929190611b0d565b505050504263ffffffff1660016005018190555060006001600601819055506000600190806001815401808255809150509060018203906000526020600020906007020160009091929091909150600082018160000190805460018160011615610100020316600290046106d7929190611b8d565b50600182018160010190805460018160011615610100020316600290046106ff929190611b8d565b506002820154816002015560038201816003019080546001816001161561010002031660029004610731929190611b8d565b506004820181600401908054610748929190611c14565b5060058201548160050155600682015481600601555050506001600080820160006107739190611ce4565b6001820160006107839190611ce4565b600282016000905560038201600061079b9190611ce4565b6004820160006107ab9190611d2c565b60058201600090556006820160009055505060c06040519081016040528060018152602001600081526020016040805190810160405280600481526020017f495346540000000000000000000000000000000000000000000000000000000081525081526020017fffffffffffffffffffffffffffffffffffffffffffffffffffffffffffffffff81526020017fffffffffffffffffffffffffffffffffffffffffffffffffffffffffffffffff81526020016040805190810160405280600b81526020017f474f4d20454e434f44455200000000000000000000000000000000000000000081525081525090506040805190810160405280600a81526020017f4156495f454449544f5200000000000000000000000000000000000000000000815250600160000190805190602001906108e7929190611a8d565b506040805190810160405280600681526020017f474f4d4d49580000000000000000000000000000000000000000000000000000815250600180019080519060200190610935929190611a8d565b50606060405190810160405280603881526020017f415649206864726c617669687374726c73747268737472667374726c7374726881526020017f73747266494e464f495346544a554e4b6d6f7669696478310000000000000000815250600160030190805190602001906109ab929190611a8d565b506001600401819080600181540180825580915050906001820390600052602060002090600602016000909192909190915060008201518160000155602082015181600101556040820151816002019080519060200190610a0d929190611b0d565b50606082015181600301556080820151816004015560a0820151816005019080519060200190610a3e929190611b0d565b505050504263ffffffff166001600501819055506000600160060181905550600060019080600181540180825580915050906001820390600052602060002090600702016000909192909190915060008201816000019080546001816001161561010002031660029004610ab3929190611b8d565b5060018201816001019080546001816001161561010002031660029004610adb929190611b8d565b506002820154816002015560038201816003019080546001816001161561010002031660029004610b0d929190611b8d565b506004820181600401908054610b24929190611c14565b506005820154816005015560068201548160060155505050600160008082016000610b4f9190611ce4565b600182016000610b5f9190611ce4565b6002820160009055600382016000610b779190611ce4565b600482016000610b879190611d2c565b60058201600090556006820160009055505060c06040519081016040528060018152602001600081526020016040805190810160405280600481526020017f495346540000000000000000000000000000000000000000000000000000000081525081526020017fffffffffffffffffffffffffffffffffffffffffffffffffffffffffffffffff81526020017fffffffffffffffffffffffffffffffffffffffffffffffffffffffffffffffff81526020016040805190810160405280600b81526020017f474f4d20454e434f44455200000000000000000000000000000000000000000081525081525090506040805190810160405280600a81526020017f4156495f454449544f520000000000000000000000000000000000000000000081525060016000019080519060200190610cc3929190611a8d565b506040805190810160405280600681526020017f474f4d4d49580000000000000000000000000000000000000000000000000000815250600180019080519060200190610d11929190611a8d565b50608060405190810160405280604c81526020017f415649206864726c617669687374726c7374726873747266696e64787374726c81526020017f7374726873747266696e64786f646d6c646d6c68494e464f495346544a554e4b81526020017f6d6f76696964783141564958000000000000000000000000000000000000000081525060016003019080519060200190610dad929190611a8d565b506001600401819080600181540180825580915050906001820390600052602060002090600602016000909192909190915060008201518160000155602082015181600101556040820151816002019080519060200190610e0f929190611b0d565b50606082015181600301556080820151816004015560a0820151816005019080519060200190610e40929190611b0d565b505050504263ffffffff166001600501819055506000600160060181905550600060019080600181540180825580915050906001820390600052602060002090600702016000909192909190915060008201816000019080546001816001161561010002031660029004610eb5929190611b8d565b5060018201816001019080546001816001161561010002031660029004610edd929190611b8d565b506002820154816002015560038201816003019080546001816001161561010002031660029004610f0f929190611b8d565b506004820181600401908054610f26929190611c14565b506005820154816005015560068201548160060155505050600160008082016000610f519190611ce4565b600182016000610f619190611ce4565b6002820160009055600382016000610f799190611ce4565b600482016000610f899190611d2c565b60058201600090556006820160009055505060c06040519081016040528060018152602001600081526020016040805190810160405280600481526020017f495346540000000000000000000000000000000000000000000000000000000081525081526020017fffffffffffffffffffffffffffffffffffffffffffffffffffffffffffffffff81526020017fffffffffffffffffffffffffffffffffffffffffffffffffffffffffffffffff81526020016040805190810160405280600b81526020017f474f4d20454e434f44455200000000000000000000000000000000000000000081525081525090506040805190810160405280600a81526020017f4156495f454449544f5200000000000000000000000000000000000000000000815250600160000190805190602001906110c5929190611a8d565b506040805190810160405280600681526020017f474f4d4d49580000000000000000000000000000000000000000000000000000815250600180019080519060200190611113929190611a8d565b50608060405190810160405280604c81526020017f415649206864726c617669687374726c7374726873747266696e64787374726c81526020017f73747268737472666f646d6c646d6c68494e464f495346544a554e4b6d6f766981526020017f69647831415649586d6f76690000000000000000000000000000000000000000815250600160030190805190602001906111af929190611a8d565b506001600401819080600181540180825580915050906001820390600052602060002090600602016000909192909190915060008201518160000155602082015181600101556040820151816002019080519060200190611211929190611b0d565b50606082015181600301556080820151816004015560a0820151816005019080519060200190611242929190611b0d565b505050504263ffffffff1660016005018190555060006001600601819055506000600190806001815401808255809150509060018203906000526020600020906007020160009091929091909150600082018160000190805460018160011615610100020316600290046112b7929190611b8d565b50600182018160010190805460018160011615610100020316600290046112df929190611b8d565b506002820154816002015560038201816003019080546001816001161561010002031660029004611311929190611b8d565b506004820181600401908054611328929190611c14565b5060058201548160050155600682015481600601555050506001600080820160006113539190611ce4565b6001820160006113639190611ce4565b600282016000905560038201600061137b9190611ce4565b60048201600061138b9190611d2c565b60058201600090556006820160009055505060c06040519081016040528060018152602001600081526020016040805190810160405280600481526020017f53444c4e0000000000000000000000000000000000000000000000000000000081525081526020017fffffffffffffffffffffffffffffffffffffffffffffffffffffffffffffffff81526020017fffffffffffffffffffffffffffffffffffffffffffffffffffffffffffffffff81526020016040805190810160405280600881526020017f5345515f504c4159000000000000000000000000000000000000000000000000815250815250905060016004018190806001815401808255809150509060018203906000526020600020906006020160009091929091909150600082015181600001556020820151816001015560408201518160020190805190602001906114da929190611b0d565b50606082015181600301556080820151816004015560a082015181600501908051906020019061150b929190611b0d565b5050505060c06040519081016040528060018152602001600081526020016040805190810160405280600481526020017f736d72640000000000000000000000000000000000000000000000000000000081525081526020017fffffffffffffffffffffffffffffffffffffffffffffffffffffffffffffffff81526020017fffffffffffffffffffffffffffffffffffffffffffffffffffffffffffffffff81526020016040805190810160405280600881526020017f54525545424c55450000000000000000000000000000000000000000000000008152508152509050600160040181908060018154018082558091505090600182039060005260206000209060060201600090919290919091506000820151816000015560208201518160010155604082015181600201908051906020019061164c929190611b0d565b50606082015181600301556080820151816004015560a082015181600501908051906020019061167d929190611b0d565b5050505060c06040519081016040528060018152602001600081526020016040805190810160405280600481526020017f736d74610000000000000000000000000000000000000000000000000000000081525081526020017fffffffffffffffffffffffffffffffffffffffffffffffffffffffffffffffff81526020017fffffffffffffffffffffffffffffffffffffffffffffffffffffffffffffffff81526020016040805190810160405280600481526020017f7361757400000000000000000000000000000000000000000000000000000000815250815250905060016004018190806001815401808255809150509060018203906000526020600020906006020160009091929091909150600082015181600001556020820151816001015560408201518160020190805190602001906117be929190611b0d565b50606082015181600301556080820151816004015560a08201518160050190805190602001906117ef929190611b0d565b505050506040805190810160405280600a81526020017f534d41525450484f4e450000000000000000000000000000000000000000000081525060016000019080519060200190611841929190611a8d565b506040805190810160405280600981526020017f47414c415859205334000000000000000000000000000000000000000000000081525060018001908051906020019061188f929190611a8d565b5060c060405190810160405280609c8152602001611f30609c9139600160030190805190602001906118c2929190611a8d565b506001600401819080600181540180825580915050906001820390600052602060002090600602016000909192909190915060008201518160000155602082015181600101556040820151816002019080519060200190611924929190611b0d565b50606082015181600301556080820151816004015560a0820151816005019080519060200190611955929190611b0d565b505050504263ffffffff1660016005018190555060006001600601819055506000600190806001815401808255809150509060018203906000526020600020906007020160009091929091909150600082018160000190805460018160011615610100020316600290046119ca929190611b8d565b50600182018160010190805460018160011615610100020316600290046119f2929190611b8d565b506002820154816002015560038201816003019080546001816001161561010002031660029004611a24929190611b8d565b506004820181600401908054611a3b929190611c14565b50600582015481600501556006820154816006015550505050565b60c0604051908101604052806000815260200160008152602001606081526020016000815260200160008152602001606081525090565b828054600181600116156101000203166002900490600052602060002090601f016020900481019282601f10611ace57805160ff1916838001178555611afc565b82800160010185558215611afc579182015b82811115611afb578251825591602001919060010190611ae0565b5b509050611b099190611d50565b5090565b828054600181600116156101000203166002900490600052602060002090601f016020900481019282601f10611b4e57805160ff1916838001178555611b7c565b82800160010185558215611b7c579182015b82811115611b7b578251825591602001919060010190611b60565b5b509050611b899190611d50565b5090565b828054600181600116156101000203166002900490600052602060002090601f016020900481019282601f10611bc65780548555611c03565b82800160010185558215611c0357600052602060002091601f016020900482015b82811115611c02578254825591600101919060010190611be7565b5b509050611c109190611d50565b5090565b828054828255906000526020600020906006028101928215611cd35760005260206000209160060282015b82811115611cd2578282600082015481600001556001820154816001015560028201816002019080546001816001161561010002031660029004611c84929190611b8d565b50600382015481600301556004820154816004015560058201816005019080546001816001161561010002031660029004611cc0929190611b8d565b50505091600601919060060190611c3f565b5b509050611ce09190611d75565b5090565b50805460018160011615610100020316600290046000825580601f10611d0a5750611d29565b601f016020900490600052602060002090810190611d289190611d50565b5b50565b5080546000825560060290600052602060002090810190611d4d9190611d75565b50565b611d7291905b80821115611d6e576000816000905550600101611d56565b5090565b90565b611dd191905b80821115611dcd576000808201600090556001820160009055600282016000611da49190611ce4565b60038201600090556004820160009055600582016000611dc49190611ce4565b50600601611d7b565b5090565b90565b6000611de08235611ee1565b905092915050565b600060208284031215611dfa57600080fd5b6000611e0884828501611dd4565b91505092915050565b6000611e1c82611ecc565b808452611e30816020860160208601611eeb565b611e3981611f1e565b602085010191505092915050565b611e5081611ed7565b82525050565b600060c0820190508181036000830152611e708189611e11565b90508181036020830152611e848188611e11565b9050611e936040830187611e47565b8181036060830152611ea58186611e11565b9050611eb46080830185611e47565b611ec160a0830184611e47565b979650505050505050565b600081519050919050565b6000819050919050565b6000819050919050565b60005b83811015611f09578082015181840152602081019050611eee565b83811115611f18576000848401525b50505050565b6000601f19601f83011690509190505600667479706d6461746d6f6f766d7668647564746153444c4e736d7264736d74617472616b746b68646d6469616d64686468646c726d696e66766d686464696e66647265667374626c7374736473747473737473737374737a737473637374636f7472616b746b68646d6469616d64686468646c726d696e66736d686464696e66647265667374626c73747364737474737374737a737473637374636fa265627a7a72305820a1ed5ea9c19a16cbd8c2e64efc071a2a1b1854119ec34f63f5a9446df829a5e06c6578706572696d656e74616cf50037",
  "source": "pragma solidity ^0.4.24;\r\npragma experimental ABIEncoderV2;\r\n\r\nimport \"./strings.sol\";\r\n\r\ncontract InitData {\r\n\r\n    using Strings for *;\r\n\r\n    struct FieldValue {\r\n        uint        mark; //checkValue가 있으면 1, 없으면 0\r\n        uint        seq;\r\n        string      id;\r\n        int         startOffset; // the start location within id field, instead of “fieldOffset“\r\n        int         fieldSize;\r\n        string      fieldValue;\r\n    }\r\n\r\n    struct Signature {\r\n        string          itemType;\r\n        string          itemName;\r\n        uint            idNum;     // identifier number\r\n        string          idSeq;\r\n        //string[]        idSeqArr;\r\n        FieldValue[]    checkValue;\r\n        uint            creatTime;\r\n        uint            deleteTime;\r\n    }\r\n\r\n\r\n    Signature[] public signatures;\r\n    Signature sig;\r\n\r\n    function init() public {\r\n\r\n        FieldValue memory check;\r\n        //원본\r\n        // ---------------------------------------------------------------------------------------------------------------------------\r\n        sig.itemType = \"BLACKBOX\";\r\n        sig.itemName = \"INAVI FXD700\"; // \"정보 없음\"은 empty로 처리\r\n        sig.idSeq = \"AVI hdrlavihstrlstrhstrfstrlstrhstrfstrlstrhstrfstrlstrhstrfmoviidx1\";\r\n        check = FieldValue(1, 0, \"strh\", 0, 4, \"vids\");\r\n        sig.checkValue.push(check);\r\n        check = FieldValue(1, 0, \"strh\", 4, 4, \"H264\");\r\n        sig.checkValue.push(check);\r\n        sig.creatTime = uint32(now);\r\n        sig.deleteTime = 0;\r\n\r\n        signatures.push(sig);\r\n        //편집\r\n        // ---------------------------------------------------------------------------------------------------------------------------\r\n        delete sig;\r\n        check = FieldValue(1, 0, \"ISFT\", -1, -1, \"GOM ENCODER\");\r\n\r\n        sig.itemType = \"AVI_EDITOR\";\r\n        sig.itemName = \"GOMMIX\"; // \"정보 없음\"은 empty로 처리\r\n        sig.idSeq = \"AVI hdrlavihstrlstrhstrfstrlstrhstrfINFOISFTJUNKmoviidx1\";\r\n        sig.checkValue.push(check);\r\n        sig.creatTime = uint32(now);\r\n        sig.deleteTime = 0;\r\n\r\n        signatures.push(sig);\r\n        // ---------------------------------------------------------------------------------------------------------------------------\r\n        delete sig;\r\n        check = FieldValue(1, 0, \"ISFT\", -1, -1, \"GOM ENCODER\");\r\n\r\n        sig.itemType = \"AVI_EDITOR\";\r\n        sig.itemName = \"GOMMIX\"; // \"정보 없음\"은 empty로 처리\r\n        sig.idSeq = \"AVI hdrlavihstrlstrhstrfindxstrlstrhstrfindxodmldmlhINFOISFTJUNKmoviidx1AVIX\";\r\n        sig.checkValue.push(check);\r\n        sig.creatTime = uint32(now);\r\n        sig.deleteTime = 0;\r\n\r\n        signatures.push(sig);\r\n        // ---------------------------------------------------------------------------------------------------------------------------\r\n        delete sig;\r\n        check = FieldValue(1, 0, \"ISFT\", -1, -1, \"GOM ENCODER\");\r\n\r\n        sig.itemType = \"AVI_EDITOR\";\r\n        sig.itemName = \"GOMMIX\"; // \"정보 없음\"은 empty로 처리\r\n        sig.idSeq = \"AVI hdrlavihstrlstrhstrfindxstrlstrhstrfodmldmlhINFOISFTJUNKmoviidx1AVIXmovi\";\r\n        sig.checkValue.push(check);\r\n        sig.creatTime = uint32(now);\r\n        sig.deleteTime = 0;\r\n\r\n        signatures.push(sig);\r\n        //---------------------------------------------------------------------------------------------------------------------------\r\n        // delete sig;\r\n        // check = FieldValue(1, 0, \"ISFT\", -1, -1, \"PotEncoder\");\r\n\r\n        // sig.itemType = \"AVI_EDITOR\";\r\n        // sig.itemName = \"DAUM POT ENCODER\"; // \"정보 없음\"은 empty로 처리\r\n        // sig.idSeq = \"AVI hdrlavihstrlstrhstrfJUNKstrlstrhstrfJUNKJUNKINFOISFTJUNKmoviidx1\";\r\n        // sig.checkValue.push(check);\r\n        // sig.creatTime = uint32(now);\r\n        // sig.deleteTime = 0;\r\n\r\n        // signatures.push(sig);\r\n        // ---------------------------------------------------------------------------------------------------------------------------\r\n        // delete sig;\r\n        // check = FieldValue(1, 0, \"ISFT\", -1, -1, \"PotEncoder\");\r\n\r\n        // sig.itemType = \"AVI_EDITOR\";\r\n        // sig.itemName = \"DAUM POT ENCODER\"; // \"정보 없음\"은 empty로 처리\r\n        // sig.idSeq = \"AVI hdrlavihstrlstrhstrfJUNKJUNKINFOISFTJUNKmoviidx1\";\r\n        // sig.checkValue.push(check);\r\n        // sig.creatTime = uint32(now);\r\n        // sig.deleteTime = 0;\r\n\r\n        // signatures.push(sig);\r\n        // ---------------------------------------------------------------------------------------------------------------------------\r\n        // delete sig;\r\n        // check = FieldValue(1, 0, \"ISFT\", -1, -1, \"PotEncoder\");\r\n\r\n        // sig.itemType = \"AVI_EDITOR\";\r\n        // sig.itemName = \"DAUM POT ENCODER\"; // \"정보 없음\"은 empty로 처리\r\n        // sig.idSeq = \"AVI hdrlavihstrlstrhstrfindxstrlstrhstrfindxodmldmlhINFOISFTJUNKmoviidx1AVIX\";\r\n        // sig.checkValue.push(check);\r\n        // sig.creatTime = uint32(now);\r\n        // sig.deleteTime = 0;\r\n\r\n        // signatures.push(sig);\r\n        // ---------------------------------------------------------------------------------------------------------------------------\r\n        delete sig;\r\n        check = FieldValue(1, 0, \"SDLN\", -1, -1, \"SEQ_PLAY\");\r\n        sig.checkValue.push(check);\r\n        check = FieldValue(1, 0, \"smrd\", -1, -1, \"TRUEBLUE\");\r\n        sig.checkValue.push(check);\r\n        check = FieldValue(1, 0, \"smta\", -1, -1, \"saut\");\r\n        sig.checkValue.push(check);\r\n\r\n        sig.itemType = \"SMARTPHONE\";\r\n        sig.itemName = \"GALAXY S4\"; // \"정보 없음\"은 empty로 처리\r\n        sig.idSeq = \"ftypmdatmoovmvhdudtaSDLNsmrdsmtatraktkhdmdiamdhdhdlrminfvmhddinfdrefstblstsdsttsstssstszstscstcotraktkhdmdiamdhdhdlrminfsmhddinfdrefstblstsdsttsstszstscstco\";\r\n        sig.checkValue.push(check);\r\n        sig.creatTime = uint32(now);\r\n        sig.deleteTime = 0;\r\n\r\n        signatures.push(sig);\r\n    }\r\n}",
  "sourcePath": "C:\\Users\\Eunsil\\KlaytnProject\\blackbox-project2\\contracts\\initData.sol",
  "compiler": {
    "name": "solc",
    "version": "0.4.25+commit.59dbf8f1.Emscripten.clang"
  },
  "schemaVersion": "2.0.2",
  "updatedAt": "2019-08-19T06:55:57.453Z"
}