{
  "contractName": "Mp4Analysis",
  "abi": [
    {
      "constant": true,
      "inputs": [],
      "name": "getAddress",
      "outputs": [
        {
          "name": "",
          "type": "address"
        }
      ],
      "payable": false,
      "stateMutability": "view",
      "type": "function"
    },
    {
      "constant": true,
      "inputs": [],
      "name": "owner",
      "outputs": [
        {
          "name": "",
          "type": "address"
        }
      ],
      "payable": false,
      "stateMutability": "view",
      "type": "function"
    },
    {
      "constant": false,
      "inputs": [
        {
          "name": "newOwner",
          "type": "address"
        }
      ],
      "name": "transferOwnership",
      "outputs": [],
      "payable": false,
      "stateMutability": "nonpayable",
      "type": "function"
    },
    {
      "anonymous": false,
      "inputs": [
        {
          "indexed": true,
          "name": "previousOwner",
          "type": "address"
        },
        {
          "indexed": true,
          "name": "newOwner",
          "type": "address"
        }
      ],
      "name": "OwnershipTransferred",
      "type": "event"
    },
    {
      "constant": true,
      "inputs": [],
      "name": "getSignatures",
      "outputs": [
        {
          "components": [
            {
              "name": "creatTime",
              "type": "uint32"
            },
            {
              "name": "deleteTime",
              "type": "uint32"
            },
            {
              "name": "itemType",
              "type": "string"
            },
            {
              "name": "itemName",
              "type": "string"
            },
            {
              "name": "idSeq",
              "type": "string"
            },
            {
              "components": [
                {
                  "name": "mark",
                  "type": "uint8"
                },
                {
                  "name": "seq",
                  "type": "uint8"
                },
                {
                  "name": "startOffset",
                  "type": "int8"
                },
                {
                  "name": "fieldSize",
                  "type": "int8"
                },
                {
                  "name": "id",
                  "type": "string"
                },
                {
                  "name": "fieldValue",
                  "type": "string"
                },
                {
                  "name": "valueType",
                  "type": "string"
                }
              ],
              "name": "checkValue",
              "type": "tuple"
            }
          ],
          "name": "",
          "type": "tuple[]"
        }
      ],
      "payable": false,
      "stateMutability": "view",
      "type": "function"
    },
    {
      "constant": true,
      "inputs": [
        {
          "components": [
            {
              "name": "creatTime",
              "type": "uint32"
            },
            {
              "name": "deleteTime",
              "type": "uint32"
            },
            {
              "name": "itemType",
              "type": "string"
            },
            {
              "name": "itemName",
              "type": "string"
            },
            {
              "name": "idSeq",
              "type": "string"
            },
            {
              "components": [
                {
                  "name": "mark",
                  "type": "uint8"
                },
                {
                  "name": "seq",
                  "type": "uint8"
                },
                {
                  "name": "startOffset",
                  "type": "int8"
                },
                {
                  "name": "fieldSize",
                  "type": "int8"
                },
                {
                  "name": "id",
                  "type": "string"
                },
                {
                  "name": "fieldValue",
                  "type": "string"
                },
                {
                  "name": "valueType",
                  "type": "string"
                }
              ],
              "name": "checkValue",
              "type": "tuple"
            }
          ],
          "name": "s",
          "type": "tuple"
        }
      ],
      "name": "devideString",
      "outputs": [
        {
          "name": "",
          "type": "string[]"
        }
      ],
      "payable": false,
      "stateMutability": "pure",
      "type": "function"
    },
    {
      "constant": true,
      "inputs": [
        {
          "name": "header",
          "type": "string"
        },
        {
          "components": [
            {
              "name": "idSeq",
              "type": "string[]"
            },
            {
              "name": "idSeqStart",
              "type": "uint256[]"
            }
          ],
          "name": "chunk",
          "type": "tuple"
        }
      ],
      "name": "compareResult",
      "outputs": [
        {
          "name": "",
          "type": "string[]"
        },
        {
          "name": "",
          "type": "uint256"
        }
      ],
      "payable": false,
      "stateMutability": "view",
      "type": "function"
    },
    {
      "constant": true,
      "inputs": [
        {
          "components": [
            {
              "name": "mark",
              "type": "uint8"
            },
            {
              "name": "seq",
              "type": "uint8"
            },
            {
              "name": "startOffset",
              "type": "int8"
            },
            {
              "name": "fieldSize",
              "type": "int8"
            },
            {
              "name": "id",
              "type": "string"
            },
            {
              "name": "fieldValue",
              "type": "string"
            },
            {
              "name": "valueType",
              "type": "string"
            }
          ],
          "name": "field",
          "type": "tuple"
        },
        {
          "components": [
            {
              "name": "idSeq",
              "type": "string[]"
            },
            {
              "name": "idSeqStart",
              "type": "uint256[]"
            }
          ],
          "name": "chunk",
          "type": "tuple"
        }
      ],
      "name": "isField",
      "outputs": [
        {
          "name": "",
          "type": "int256"
        }
      ],
      "payable": false,
      "stateMutability": "pure",
      "type": "function"
    },
    {
      "constant": true,
      "inputs": [
        {
          "name": "value",
          "type": "string"
        },
        {
          "name": "start",
          "type": "uint256"
        },
        {
          "name": "end",
          "type": "uint256"
        }
      ],
      "name": "isSpecialChar",
      "outputs": [
        {
          "name": "",
          "type": "int256"
        }
      ],
      "payable": false,
      "stateMutability": "pure",
      "type": "function"
    },
    {
      "constant": true,
      "inputs": [
        {
          "name": "value",
          "type": "string"
        }
      ],
      "name": "changeSpecialChar",
      "outputs": [
        {
          "name": "",
          "type": "string"
        }
      ],
      "payable": false,
      "stateMutability": "pure",
      "type": "function"
    },
    {
      "constant": true,
      "inputs": [
        {
          "components": [
            {
              "name": "mark",
              "type": "uint8"
            },
            {
              "name": "seq",
              "type": "uint8"
            },
            {
              "name": "startOffset",
              "type": "int8"
            },
            {
              "name": "fieldSize",
              "type": "int8"
            },
            {
              "name": "id",
              "type": "string"
            },
            {
              "name": "fieldValue",
              "type": "string"
            },
            {
              "name": "valueType",
              "type": "string"
            }
          ],
          "name": "field",
          "type": "tuple"
        },
        {
          "name": "header",
          "type": "string"
        },
        {
          "components": [
            {
              "name": "idSeq",
              "type": "string[]"
            },
            {
              "name": "idSeqStart",
              "type": "uint256[]"
            }
          ],
          "name": "chunk",
          "type": "tuple"
        }
      ],
      "name": "mp4valueCheck",
      "outputs": [
        {
          "name": "",
          "type": "bool"
        }
      ],
      "payable": false,
      "stateMutability": "pure",
      "type": "function"
    }
  ],
  "bytecode": "0x608060405273ea8ccce37ac233dcfe52e299014a401cd853ab82600160006101000a81548173ffffffffffffffffffffffffffffffffffffffff021916908373ffffffffffffffffffffffffffffffffffffffff16021790555073394af04e64b6136fc9237f05cadd32f5f52fc7f3600260006101000a81548173ffffffffffffffffffffffffffffffffffffffff021916908373ffffffffffffffffffffffffffffffffffffffff16021790555073da418a6ee5b8e8a7168bb1243944853defa92ea8600360006101000a81548173ffffffffffffffffffffffffffffffffffffffff021916908373ffffffffffffffffffffffffffffffffffffffff16021790555073e5660a59dfb0f5668317dfaafab4ccf19de6fcd4600460006101000a81548173ffffffffffffffffffffffffffffffffffffffff021916908373ffffffffffffffffffffffffffffffffffffffff1602179055507390504cadbcb99eee9c3688ae78702831f2e6e039600560006101000a81548173ffffffffffffffffffffffffffffffffffffffff021916908373ffffffffffffffffffffffffffffffffffffffff160217905550336000806101000a81548173ffffffffffffffffffffffffffffffffffffffff021916908373ffffffffffffffffffffffffffffffffffffffff160217905550613d34806101fc6000396000f3006080604052600436106100a3576000357c0100000000000000000000000000000000000000000000000000000000900463ffffffff1680628aeecd146100a8578063386cd802146100e657806338cc4831146101235780637118d0d11461014e5780638da5cb5b1461018b578063963015ce146101b6578063ad6f80ff146101f3578063b57ec1521461021e578063ed778c3f1461025b578063f2fde38b14610298575b600080fd5b3480156100b457600080fd5b506100cf60048036036100ca9190810190613232565b6102c1565b6040516100dd929190613878565b60405180910390f35b3480156100f257600080fd5b5061010d60048036036101089190810190613408565b6105fc565b60405161011a9190613856565b60405180910390f35b34801561012f57600080fd5b50610138610b15565b604051610145919061383b565b60405180910390f35b34801561015a57600080fd5b50610175600480360361017091908101906131b0565b610b3e565b6040516101829190613922565b60405180910390f35b34801561019757600080fd5b506101a0610d78565b6040516101ad919061383b565b60405180910390f35b3480156101c257600080fd5b506101dd60048036036101d8919081019061339c565b610d9d565b6040516101ea9190613907565b60405180910390f35b3480156101ff57600080fd5b50610208610f09565b60405161021591906138a8565b60405180910390f35b34801561022a57600080fd5b5061024560048036036102409190810190613305565b61141f565b60405161025291906138ca565b60405180910390f35b34801561026757600080fd5b50610282600480360361027d919081019061329e565b611f07565b60405161028f9190613907565b60405180910390f35b3480156102a457600080fd5b506102bf60048036036102ba91908101906130dc565b61213d565b005b6060600080606080600060606000809550606460405190808252806020026020018201604052801561030757816020015b60608152602001906001900390816102f25790505b509450610312610f09565b9350600092505b83518310156105e957610342848481518110151561033357fe5b906020019060200201516105fc565b9150886000015151825114156105dc57600090505b81518110156104795788600001518181518110151561037257fe5b906020019060200201516040518082805190602001908083835b6020831015156103b1578051825260208201915060208101905060208303925061038c565b6001836020036101000a03801982511681845116808217855250505050505090500191505060405180910390206000191682828151811015156103f057fe5b906020019060200201516040518082805190602001908083835b60208310151561042f578051825260208201915060208101905060208303925061040a565b6001836020036101000a03801982511681845116808217855250505050505090500191505060405180910390206000191614151561046c57610479565b8080600101915050610357565b81518114156105db576001848481518110151561049257fe5b9060200190602002015160a001516000015160ff16141561055f57600115156104d785858151811015156104c257fe5b9060200190602002015160a001518c8c61141f565b1515141561055a5783838151811015156104ed57fe5b9060200190602002015160400151858780600101985081518110151561050f57fe5b90602001906020020181905250838381518110151561052a57fe5b9060200190602002015160600151858780600101985081518110151561054c57fe5b906020019060200201819052505b6105da565b838381518110151561056d57fe5b9060200190602002015160400151858780600101985081518110151561058f57fe5b9060200190602002018190525083838151811015156105aa57fe5b906020019060200201516060015185878060010198508151811015156105cc57fe5b906020019060200201819052505b5b5b8280600101935050610319565b8486975097505050505050509250929050565b6060600080606060008560800151519350600092505b838310156107925760405180807fe2939200000000000000000000000000000000000000000000000000000000008152506003019050604051809103902060001916866080015173__Strings_______________________________631dcd9b55909186600388016040518463ffffffff167c01000000000000000000000000000000000000000000000000000000000281526004016106b4939291906139db565b60006040518083038186803b1580156106cc57600080fd5b505af41580156106e0573d6000803e3d6000fd5b505050506040513d6000823e3d601f19601f8201168201806040525061070991908101906131f1565b6040518082805190602001908083835b60208310151561073e5780518252602082019150602081019050602083039250610719565b6001836020036101000a03801982511681845116808217855250505050505090500191505060405180910390206000191614156107865760068301925060028403935061078d565b6004830192505b610612565b60048481151561079e57fe5b046040519080825280602002602001820160405280156107d257816020015b60608152602001906001900390816107bd5790505b50915060009050600092505b856080015151831015610b095760405180807fe2939200000000000000000000000000000000000000000000000000000000008152506003019050604051809103902060001916866080015173__Strings_______________________________631dcd9b55909186600388016040518463ffffffff167c0100000000000000000000000000000000000000000000000000000000028152600401610885939291906139db565b60006040518083038186803b15801561089d57600080fd5b505af41580156108b1573d6000803e3d6000fd5b505050506040513d6000823e3d601f19601f820116820180604052506108da91908101906131f1565b6040518082805190602001908083835b60208310151561090f57805182526020820191506020810190506020830392506108ea565b6001836020036101000a0380198251168184511680821785525050505050509050019150506040518091039020600019161415610a2757856080015173__Strings_______________________________631dcd9b55909185600687016040518463ffffffff167c01000000000000000000000000000000000000000000000000000000000281526004016109a6939291906139db565b60006040518083038186803b1580156109be57600080fd5b505af41580156109d2573d6000803e3d6000fd5b505050506040513d6000823e3d601f19601f820116820180604052506109fb91908101906131f1565b8282806001019350815181101515610a0f57fe5b90602001906020020181905250600683019250610b04565b856080015173__Strings_______________________________631dcd9b55909185600487016040518463ffffffff167c0100000000000000000000000000000000000000000000000000000000028152600401610a87939291906139db565b60006040518083038186803b158015610a9f57600080fd5b505af4158015610ab3573d6000803e3d6000fd5b505050506040513d6000823e3d601f19601f82011682018060405250610adc91908101906131f1565b8282806001019350815181101515610af057fe5b906020019060200201819052506004830192505b6107de565b81945050505050919050565b60008060009054906101000a900473ffffffffffffffffffffffffffffffffffffffff16905090565b6060600080600060606000935085519250610b5a868585611f07565b91505b7fffffffffffffffffffffffffffffffffffffffffffffffffffffffffffffffff82141515610d6c57610c7e8673__Strings_______________________________631dcd9b55909160028601876040518463ffffffff167c0100000000000000000000000000000000000000000000000000000000028152600401610be5939291906139db565b60006040518083038186803b158015610bfd57600080fd5b505af4158015610c11573d6000803e3d6000fd5b505050506040513d6000823e3d601f19601f82011682018060405250610c3a91908101906131f1565b6040805190810160405280600681526020017f65323933393200000000000000000000000000000000000000000000000000008152506122fe90919063ffffffff16565b9050610d41818773__Strings_______________________________631dcd9b5590916000876040518463ffffffff167c0100000000000000000000000000000000000000000000000000000000028152600401610cde93929190613966565b60006040518083038186803b158015610cf657600080fd5b505af4158015610d0a573d6000803e3d6000fd5b505050506040513d6000823e3d601f19601f82011682018060405250610d3391908101906131f1565b6122fe90919063ffffffff16565b95506006840193508551925082841115610d5a57610d6c565b610d65868585611f07565b9150610b5d565b85945050505050919050565b6000809054906101000a900473ffffffffffffffffffffffffffffffffffffffff1681565b6000806000809150600090505b836000015151811015610edd57836000015181815181101515610dc957fe5b906020019060200201516040518082805190602001908083835b602083101515610e085780518252602082019150602081019050602083039250610de3565b6001836020036101000a03801982511681845116808217855250505050505090500191505060405180910390206000191685608001516040518082805190602001908083835b602083101515610e735780518252602082019150602081019050602083039250610e4e565b6001836020036101000a0380198251168184511680821785525050505050509050019150506040518091039020600019161415610ecf5781856020015160ff16141515610ec7578180600101925050610ed0565b809250610f01565b5b8080600101915050610daa565b7fffffffffffffffffffffffffffffffffffffffffffffffffffffffffffffffff92505b505092915050565b6060610f136126b7565b6000806060600060a060405190810160405280600160009054906101000a900473ffffffffffffffffffffffffffffffffffffffff1673ffffffffffffffffffffffffffffffffffffffff1663ad6f80ff6040518163ffffffff167c0100000000000000000000000000000000000000000000000000000000028152600401600060405180830381600087803b158015610fac57600080fd5b505af1158015610fc0573d6000803e3d6000fd5b505050506040513d6000823e3d601f19601f82011682018060405250610fe99190810190613105565b8152602001600260009054906101000a900473ffffffffffffffffffffffffffffffffffffffff1673ffffffffffffffffffffffffffffffffffffffff1663ad6f80ff6040518163ffffffff167c0100000000000000000000000000000000000000000000000000000000028152600401600060405180830381600087803b15801561107457600080fd5b505af1158015611088573d6000803e3d6000fd5b505050506040513d6000823e3d601f19601f820116820180604052506110b19190810190613105565b8152602001600360009054906101000a900473ffffffffffffffffffffffffffffffffffffffff1673ffffffffffffffffffffffffffffffffffffffff1663ad6f80ff6040518163ffffffff167c0100000000000000000000000000000000000000000000000000000000028152600401600060405180830381600087803b15801561113c57600080fd5b505af1158015611150573d6000803e3d6000fd5b505050506040513d6000823e3d601f19601f820116820180604052506111799190810190613105565b8152602001600460009054906101000a900473ffffffffffffffffffffffffffffffffffffffff1673ffffffffffffffffffffffffffffffffffffffff1663ad6f80ff6040518163ffffffff167c0100000000000000000000000000000000000000000000000000000000028152600401600060405180830381600087803b15801561120457600080fd5b505af1158015611218573d6000803e3d6000fd5b505050506040513d6000823e3d601f19601f820116820180604052506112419190810190613105565b8152602001600560009054906101000a900473ffffffffffffffffffffffffffffffffffffffff1673ffffffffffffffffffffffffffffffffffffffff1663ad6f80ff6040518163ffffffff167c0100000000000000000000000000000000000000000000000000000000028152600401600060405180830381600087803b1580156112cc57600080fd5b505af11580156112e0573d6000803e3d6000fd5b505050506040513d6000823e3d601f19601f820116820180604052506113099190810190613105565b815250945060009350600092505b600583101561134557848360058110151561132e57fe5b602002015151840193508280600101935050611317565b8360405190808252806020026020018201604052801561137f57816020015b61136c6126df565b8152602001906001900390816113645790505b509150600092505b600583101561141457600090505b84836005811015156113a357fe5b6020020151518110156114075784836005811015156113be57fe5b6020020151818151811015156113d057fe5b90602001906020020151828260078602018151811015156113ed57fe5b906020019060200201819052508080600101915050611395565b8280600101935050611387565b819550505050505090565b60008060606000806114318887610d9d565b93507fffffffffffffffffffffffffffffffffffffffffffffffffffffffffffffffff84141515611ef75785602001518481518110151561146e57fe5b9060200190602002015191507fffffffffffffffffffffffffffffffffffffffffffffffffffffffffffffffff886040015160000b141561183b5760028773__Strings_______________________________631dcd9b55909160088603866040518463ffffffff167c0100000000000000000000000000000000000000000000000000000000028152600401611507939291906139db565b60006040518083038186803b15801561151f57600080fd5b505af4158015611533573d6000803e3d6000fd5b505050506040513d6000823e3d601f19601f8201168201806040525061155c91908101906131f1565b73__Strings_______________________________638e7e34d790916040518263ffffffff167c01000000000000000000000000000000000000000000000000000000000281526004016115b09190613944565b60006040518083038186803b1580156115c857600080fd5b505af41580156115dc573d6000803e3d6000fd5b505050506040513d6000823e3d601f19601f820116820180604052506116059190810190613146565b73__BytesUtil_____________________________6302d06d0590916040518263ffffffff167c010000000000000000000000000000000000000000000000000000000002815260040161165991906138e5565b60206040518083038186803b15801561167157600080fd5b505af4158015611685573d6000803e3d6000fd5b505050506040513d601f19601f820116820180604052506116a99190810190613449565b02905086518183011115611778576117718773__Strings_______________________________631dcd9b559091600886018b516040518463ffffffff167c0100000000000000000000000000000000000000000000000000000000028152600401611717939291906139db565b60006040518083038186803b15801561172f57600080fd5b505af4158015611743573d6000803e3d6000fd5b505050506040513d6000823e3d601f19601f8201168201806040525061176c91908101906131f1565b610b3e565b9250611836565b6118338773__Strings_______________________________631dcd9b559091600886018587016040518463ffffffff167c01000000000000000000000000000000000000000000000000000000000281526004016117d9939291906139db565b60006040518083038186803b1580156117f157600080fd5b505af4158015611805573d6000803e3d6000fd5b505050506040513d6000823e3d601f19601f8201168201806040525061182e91908101906131f1565b610b3e565b92505b611ab1565b60405180807f6d64617400000000000000000000000000000000000000000000000000000000815250600401905060405180910390206000191688608001516040518082805190602001908083835b6020831015156118af578051825260208201915060208101905060208303925061188a565b6001836020036101000a03801982511681845116808217855250505050505090500191505060405180910390206000191614156119cd576119c68773__Strings_______________________________631dcd9b55909160028c604001510260000b600887030160028d606001510260000b60028e604001510260000b6008890301016040518463ffffffff167c010000000000000000000000000000000000000000000000000000000002815260040161196c939291906139db565b60006040518083038186803b15801561198457600080fd5b505af4158015611998573d6000803e3d6000fd5b505050506040513d6000823e3d601f19601f820116820180604052506119c191908101906131f1565b610b3e565b9250611ab0565b611aad8773__Strings_______________________________631dcd9b55909160028c604001510260000b600887010160028d606001510260000b60028e604001510260000b6008890101016040518463ffffffff167c0100000000000000000000000000000000000000000000000000000000028152600401611a53939291906139db565b60006040518083038186803b158015611a6b57600080fd5b505af4158015611a7f573d6000803e3d6000fd5b505050506040513d6000823e3d601f19601f82011682018060405250611aa891908101906131f1565b610b3e565b92505b5b60405180807f494e54000000000000000000000000000000000000000000000000000000000081525060030190506040518091039020600019168860c001516040518082805190602001908083835b602083101515611b255780518252602082019150602081019050602083039250611b00565b6001836020036101000a0380198251168184511680821785525050505050509050019150506040518091039020600019161415611cb957611cb28373__Strings_______________________________638e7e34d790916040518263ffffffff167c0100000000000000000000000000000000000000000000000000000000028152600401611bb49190613944565b60006040518083038186803b158015611bcc57600080fd5b505af4158015611be0573d6000803e3d6000fd5b505050506040513d6000823e3d601f19601f82011682018060405250611c099190810190613146565b73__BytesUtil_____________________________6302d06d0590916040518263ffffffff167c0100000000000000000000000000000000000000000000000000000000028152600401611c5d91906138e5565b60206040518083038186803b158015611c7557600080fd5b505af4158015611c89573d6000803e3d6000fd5b505050506040513d601f19601f82011682018060405250611cad9190810190613449565b6124cf565b9250611e1a565b60405180807f425954450000000000000000000000000000000000000000000000000000000081525060040190506040518091039020600019168860c001516040518082805190602001908083835b602083101515611d2d5780518252602082019150602081019050602083039250611d08565b6001836020036101000a0380198251168184511680821785525050505050509050019150506040518091039020600019161415611d6c57829250611e19565b8273__Strings_______________________________638e7e34d790916040518263ffffffff167c0100000000000000000000000000000000000000000000000000000000028152600401611dc19190613944565b60006040518083038186803b158015611dd957600080fd5b505af4158015611ded573d6000803e3d6000fd5b505050506040513d6000823e3d601f19601f82011682018060405250611e169190810190613146565b92505b5b7fffffffffffffffffffffffffffffffffffffffffffffffffffffffffffffffff8373__Strings_______________________________638a0807b790918b60a001516040518363ffffffff167c0100000000000000000000000000000000000000000000000000000000028152600401611e969291906139a4565b60206040518083038186803b158015611eae57600080fd5b505af4158015611ec2573d6000803e3d6000fd5b505050506040513d601f19601f82011682018060405250611ee69190810190613187565b141515611ef65760019450611efc565b5b600094505b505050509392505050565b6000611f11612729565b6000806020604051908101604052806040805190810160405280600881526020017f61393734366636660000000000000000000000000000000000000000000000008152508152509250600091505b600182101561210f578673__Strings_______________________________631dcd9b55909188886040518463ffffffff167c0100000000000000000000000000000000000000000000000000000000028152600401611fc2939291906139db565b60006040518083038186803b158015611fda57600080fd5b505af4158015611fee573d6000803e3d6000fd5b505050506040513d6000823e3d601f19601f8201168201806040525061201791908101906131f1565b73__Strings_______________________________638a0807b79091858560018110151561204157fe5b60200201516040518363ffffffff167c010000000000000000000000000000000000000000000000000000000002815260040161207f9291906139a4565b60206040518083038186803b15801561209757600080fd5b505af41580156120ab573d6000803e3d6000fd5b505050506040513d601f19601f820116820180604052506120cf9190810190613187565b90507fffffffffffffffffffffffffffffffffffffffffffffffffffffffffffffffff8114151561210257809350612133565b8180600101925050611f60565b7fffffffffffffffffffffffffffffffffffffffffffffffffffffffffffffffff93505b5050509392505050565b6000809054906101000a900473ffffffffffffffffffffffffffffffffffffffff1673ffffffffffffffffffffffffffffffffffffffff163373ffffffffffffffffffffffffffffffffffffffff161415156121ce576040517f08c379a00000000000000000000000000000000000000000000000000000000081526004016121c590613a19565b60405180910390fd5b600073ffffffffffffffffffffffffffffffffffffffff168173ffffffffffffffffffffffffffffffffffffffff1614151515612240576040517f08c379a000000000000000000000000000000000000000000000000000000000815260040161223790613a19565b60405180910390fd5b8073ffffffffffffffffffffffffffffffffffffffff166000809054906101000a900473ffffffffffffffffffffffffffffffffffffffff1673ffffffffffffffffffffffffffffffffffffffff167f8be0079c531659141344cd1fd0a4f28419497f9722a3daafe3b4186f6b6457e060405160405180910390a3806000806101000a81548173ffffffffffffffffffffffffffffffffffffffff021916908373ffffffffffffffffffffffffffffffffffffffff16021790555050565b606080606080606060008088955087945084518651016040519080825280601f01601f1916602001820160405280156123465781602001602082028038833980820191505090505b50935083925060009050600091505b855182101561240857858281518110151561236c57fe5b9060200101517f010000000000000000000000000000000000000000000000000000000000000090047f01000000000000000000000000000000000000000000000000000000000000000283828060010193508151811015156123cb57fe5b9060200101907effffffffffffffffffffffffffffffffffffffffffffffffffffffffffffff1916908160001a9053508180600101925050612355565b600091505b84518210156124c057848281518110151561242457fe5b9060200101517f010000000000000000000000000000000000000000000000000000000000000090047f010000000000000000000000000000000000000000000000000000000000000002838280600101935081518110151561248357fe5b9060200101907effffffffffffffffffffffffffffffffffffffffffffffffffffffffffffff1916908160001a905350818060010192505061240d565b82965050505050505092915050565b60606000806000806060600080881415612520576040805190810160405280600181526020017f300000000000000000000000000000000000000000000000000000000000000081525096506126ac565b600088129550856125315787612536565b876000035b94508493505b600085141515612562578280600101935050600a8581151561255a57fe5b04945061253c565b851561256f578260010192505b826040519080825280601f01601f1916602001820160405280156125a25781602001602082028038833980820191505090505b5091506001830390505b60008414151561264157600a848115156125c257fe5b066030017f0100000000000000000000000000000000000000000000000000000000000000028282806001900393508151811015156125fd57fe5b9060200101907effffffffffffffffffffffffffffffffffffffffffffffffffffffffffffff1916908160001a905350600a8481151561263957fe5b0493506125ac565b85156126a8577f2d0000000000000000000000000000000000000000000000000000000000000082600081518110151561267757fe5b9060200101907effffffffffffffffffffffffffffffffffffffffffffffffffffffffffffff1916908160001a9053505b8196505b505050505050919050565b60a0604051908101604052806005905b60608152602001906001900390816126c75790505090565b61018060405190810160405280600063ffffffff168152602001600063ffffffff168152602001606081526020016060815260200160608152602001612723612751565b81525090565b6020604051908101604052806001905b60608152602001906001900390816127395790505090565b60e060405190810160405280600060ff168152602001600060ff1681526020016000800b81526020016000800b81526020016060815260200160608152602001606081525090565b60006127a58235613c37565b905092915050565b600082601f83011215156127c057600080fd5b81356127d36127ce82613a66565b613a39565b9150818183526020840193506020810190508360005b8381101561281957813586016127ff88826129b0565b8452602084019350602083019250506001810190506127e9565b5050505092915050565b600082601f830112151561283657600080fd5b815161284961284482613a8e565b613a39565b9150818183526020840193506020810190508360005b8381101561288f57815186016128758882612e6c565b84526020840193506020830192505060018101905061285f565b5050505092915050565b600082601f83011215156128ac57600080fd5b81356128bf6128ba82613ab6565b613a39565b915081818352602084019350602081019050838560208402820111156128e457600080fd5b60005b8381101561291457816128fa8882613064565b8452602084019350602083019250506001810190506128e7565b5050505092915050565b600082601f830112151561293157600080fd5b815161294461293f82613ade565b613a39565b9150808252602083016020830185838301111561296057600080fd5b61296b838284613cb6565b50505092915050565b60006129808251613c57565b905092915050565b60006129948235613c61565b905092915050565b60006129a88251613c61565b905092915050565b600082601f83011215156129c357600080fd5b81356129d66129d182613b0a565b613a39565b915080825260208301602083018583830111156129f257600080fd5b6129fd838284613ca7565b50505092915050565b600082601f8301121515612a1957600080fd5b8151612a2c612a2782613b0a565b613a39565b91508082526020830160208301858383011115612a4857600080fd5b612a53838284613cb6565b50505092915050565b600082601f8301121515612a6f57600080fd5b8135612a82612a7d82613b36565b613a39565b91508082526020830160208301858383011115612a9e57600080fd5b612aa9838284613ca7565b50505092915050565b600082601f8301121515612ac557600080fd5b8151612ad8612ad382613b36565b613a39565b91508082526020830160208301858383011115612af457600080fd5b612aff838284613cb6565b50505092915050565b600060408284031215612b1a57600080fd5b612b246040613a39565b9050600082013567ffffffffffffffff811115612b4057600080fd5b612b4c848285016127ad565b600083015250602082013567ffffffffffffffff811115612b6c57600080fd5b612b7884828501612899565b60208301525092915050565b600060e08284031215612b9657600080fd5b612ba060e0613a39565b90506000612bb0848285016130b4565b6000830152506020612bc4848285016130b4565b6020830152506040612bd884828501612988565b6040830152506060612bec84828501612988565b606083015250608082013567ffffffffffffffff811115612c0c57600080fd5b612c18848285016129b0565b60808301525060a082013567ffffffffffffffff811115612c3857600080fd5b612c44848285016129b0565b60a08301525060c082013567ffffffffffffffff811115612c6457600080fd5b612c70848285016129b0565b60c08301525092915050565b600060e08284031215612c8e57600080fd5b612c9860e0613a39565b90506000612ca8848285016130c8565b6000830152506020612cbc848285016130c8565b6020830152506040612cd08482850161299c565b6040830152506060612ce48482850161299c565b606083015250608082015167ffffffffffffffff811115612d0457600080fd5b612d1084828501612a06565b60808301525060a082015167ffffffffffffffff811115612d3057600080fd5b612d3c84828501612a06565b60a08301525060c082015167ffffffffffffffff811115612d5c57600080fd5b612d6884828501612a06565b60c08301525092915050565b600060e08284031215612d8657600080fd5b612d9060e0613a39565b90506000612da0848285016130b4565b6000830152506020612db4848285016130b4565b6020830152506040612dc884828501612988565b6040830152506060612ddc84828501612988565b606083015250608082013567ffffffffffffffff811115612dfc57600080fd5b612e08848285016129b0565b60808301525060a082013567ffffffffffffffff811115612e2857600080fd5b612e34848285016129b0565b60a08301525060c082013567ffffffffffffffff811115612e5457600080fd5b612e60848285016129b0565b60c08301525092915050565b600060c08284031215612e7e57600080fd5b612e8860c0613a39565b90506000612e98848285016130a0565b6000830152506020612eac848285016130a0565b602083015250604082015167ffffffffffffffff811115612ecc57600080fd5b612ed884828501612a06565b604083015250606082015167ffffffffffffffff811115612ef857600080fd5b612f0484828501612a06565b606083015250608082015167ffffffffffffffff811115612f2457600080fd5b612f3084828501612a06565b60808301525060a082015167ffffffffffffffff811115612f5057600080fd5b612f5c84828501612c7c565b60a08301525092915050565b600060c08284031215612f7a57600080fd5b612f8460c0613a39565b90506000612f948482850161308c565b6000830152506020612fa88482850161308c565b602083015250604082013567ffffffffffffffff811115612fc857600080fd5b612fd4848285016129b0565b604083015250606082013567ffffffffffffffff811115612ff457600080fd5b613000848285016129b0565b606083015250608082013567ffffffffffffffff81111561302057600080fd5b61302c848285016129b0565b60808301525060a082013567ffffffffffffffff81111561304c57600080fd5b61305884828501612b84565b60a08301525092915050565b60006130708235613c6e565b905092915050565b60006130848251613c6e565b905092915050565b60006130988235613c78565b905092915050565b60006130ac8251613c78565b905092915050565b60006130c08235613c88565b905092915050565b60006130d48251613c88565b905092915050565b6000602082840312156130ee57600080fd5b60006130fc84828501612799565b91505092915050565b60006020828403121561311757600080fd5b600082015167ffffffffffffffff81111561313157600080fd5b61313d84828501612823565b91505092915050565b60006020828403121561315857600080fd5b600082015167ffffffffffffffff81111561317257600080fd5b61317e8482850161291e565b91505092915050565b60006020828403121561319957600080fd5b60006131a784828501612974565b91505092915050565b6000602082840312156131c257600080fd5b600082013567ffffffffffffffff8111156131dc57600080fd5b6131e884828501612a5c565b91505092915050565b60006020828403121561320357600080fd5b600082015167ffffffffffffffff81111561321d57600080fd5b61322984828501612ab2565b91505092915050565b6000806040838503121561324557600080fd5b600083013567ffffffffffffffff81111561325f57600080fd5b61326b85828601612a5c565b925050602083013567ffffffffffffffff81111561328857600080fd5b61329485828601612b08565b9150509250929050565b6000806000606084860312156132b357600080fd5b600084013567ffffffffffffffff8111156132cd57600080fd5b6132d986828701612a5c565b93505060206132ea86828701613064565b92505060406132fb86828701613064565b9150509250925092565b60008060006060848603121561331a57600080fd5b600084013567ffffffffffffffff81111561333457600080fd5b61334086828701612d74565b935050602084013567ffffffffffffffff81111561335d57600080fd5b61336986828701612a5c565b925050604084013567ffffffffffffffff81111561338657600080fd5b61339286828701612b08565b9150509250925092565b600080604083850312156133af57600080fd5b600083013567ffffffffffffffff8111156133c957600080fd5b6133d585828601612d74565b925050602083013567ffffffffffffffff8111156133f257600080fd5b6133fe85828601612b08565b9150509250929050565b60006020828403121561341a57600080fd5b600082013567ffffffffffffffff81111561343457600080fd5b61344084828501612f68565b91505092915050565b60006020828403121561345b57600080fd5b600061346984828501613078565b91505092915050565b61347b81613bcd565b82525050565b600061348c82613b7c565b808452602084019350836020820285016134a585613b62565b60005b848110156134de5783830388526134c083835161363b565b92506134cb82613bb3565b91506020880197506001810190506134a8565b508196508694505050505092915050565b60006134fa82613b87565b8084526020840193508360208202850161351385613b6f565b60005b8481101561354c57838303885261352e838351613761565b925061353982613bc0565b9150602088019750600181019050613516565b508196508694505050505092915050565b61356681613bed565b82525050565b600061357782613b92565b80845261358b816020860160208601613cb6565b61359481613ce9565b602085010191505092915050565b6135ab81613bf9565b82525050565b6135ba81613c03565b82525050565b6135c981613c95565b82525050565b60006135da82613ba8565b8084526135ee816020860160208601613cb6565b6135f781613ce9565b602085010191505092915050565b600061361082613ba8565b808452613624816020860160208601613cb6565b61362d81613ce9565b602085010191505092915050565b600061364682613b9d565b80845261365a816020860160208601613cb6565b61366381613ce9565b602085010191505092915050565b600061367c82613b9d565b808452613690816020860160208601613cb6565b61369981613ce9565b602085010191505092915050565b6000808252602082019050919050565b600060e0830160008301516136cf600086018261382c565b5060208301516136e2602086018261382c565b5060408301516136f560408601826135b1565b50606083015161370860608601826135b1565b5060808301518482036080860152613720828261363b565b91505060a083015184820360a086015261373a828261363b565b91505060c083015184820360c0860152613754828261363b565b9150508091505092915050565b600060c083016000830151613779600086018261381d565b50602083015161378c602086018261381d565b50604083015184820360408601526137a4828261363b565b915050606083015184820360608601526137be828261363b565b915050608083015184820360808601526137d8828261363b565b91505060a083015184820360a08601526137f282826136b7565b9150508091505092915050565b61380881613c10565b82525050565b61381781613c10565b82525050565b61382681613c1a565b82525050565b61383581613c2a565b82525050565b60006020820190506138506000830184613472565b92915050565b600060208201905081810360008301526138708184613481565b905092915050565b600060408201905081810360008301526138928185613481565b90506138a160208301846137ff565b9392505050565b600060208201905081810360008301526138c281846134ef565b905092915050565b60006020820190506138df600083018461355d565b92915050565b600060208201905081810360008301526138ff818461356c565b905092915050565b600060208201905061391c60008301846135a2565b92915050565b6000602082019050818103600083015261393c81846135cf565b905092915050565b6000602082019050818103600083015261395e8184613605565b905092915050565b600060608201905081810360008301526139808186613605565b905061398f60208301856135c0565b61399c604083018461380e565b949350505050565b600060408201905081810360008301526139be8185613605565b905081810360208301526139d28184613671565b90509392505050565b600060608201905081810360008301526139f58186613605565b9050613a04602083018561380e565b613a11604083018461380e565b949350505050565b60006020820190508181036000830152613a32816136a7565b9050919050565b6000604051905081810181811067ffffffffffffffff82111715613a5c57600080fd5b8060405250919050565b600067ffffffffffffffff821115613a7d57600080fd5b602082029050602081019050919050565b600067ffffffffffffffff821115613aa557600080fd5b602082029050602081019050919050565b600067ffffffffffffffff821115613acd57600080fd5b602082029050602081019050919050565b600067ffffffffffffffff821115613af557600080fd5b601f19601f8301169050602081019050919050565b600067ffffffffffffffff821115613b2157600080fd5b601f19601f8301169050602081019050919050565b600067ffffffffffffffff821115613b4d57600080fd5b601f19601f8301169050602081019050919050565b6000602082019050919050565b6000602082019050919050565b600081519050919050565b600081519050919050565b600081519050919050565b600081519050919050565b600081519050919050565b6000602082019050919050565b6000602082019050919050565b600073ffffffffffffffffffffffffffffffffffffffff82169050919050565b60008115159050919050565b6000819050919050565b60008160000b9050919050565b6000819050919050565b600063ffffffff82169050919050565b600060ff82169050919050565b600073ffffffffffffffffffffffffffffffffffffffff82169050919050565b6000819050919050565b60008160000b9050919050565b6000819050919050565b600063ffffffff82169050919050565b600060ff82169050919050565b6000613ca082613c10565b9050919050565b82818337600083830152505050565b60005b83811015613cd4578082015181840152602081019050613cb9565b83811115613ce3576000848401525b50505050565b6000601f19601f83011690509190505600a265627a7a723058209c3032a3f04f29384e815dc4eca21b92ec40a260cc05829db5c8bd90ffcd7fca6c6578706572696d656e74616cf50037",
  "source": "pragma solidity ^0.4.24;\r\npragma experimental ABIEncoderV2;\r\n\r\nimport \"./signatureShape.sol\";\r\nimport \"./strings.sol\";\r\nimport \"./bytesUtil.sol\";\r\nimport \"./intUtil.sol\";\r\nimport \"./compareShape.sol\";\r\nimport \"./ownable.sol\";\r\n\r\ncontract Mp4DataInterface1 is SignatureShape{\r\n    function getSignatures() public view returns (Signature[] memory);\r\n}\r\n\r\ncontract Mp4DataInterface2 is SignatureShape{\r\n   function getSignatures() public view returns (Signature[] memory);\r\n}\r\n\r\ncontract Mp4DataInterface3 is SignatureShape{\r\n   function getSignatures() public view returns (Signature[] memory);\r\n}\r\n\r\ncontract Mp4DataInterface4 is SignatureShape{\r\n   function getSignatures() public view returns (Signature[] memory);\r\n}\r\n\r\ncontract Mp4DataInterface5 is SignatureShape{\r\n   function getSignatures() public view returns (Signature[] memory);\r\n}\r\n\r\ncontract Mp4DataInterface6 is SignatureShape{\r\n   function getSignatures() public view returns (Signature[] memory);\r\n}\r\n\r\ncontract Mp4DataInterface7 is SignatureShape{\r\n   function getSignatures() public view returns (Signature[] memory);\r\n}\r\n\r\ncontract Mp4DataInterface8 is SignatureShape{\r\n   function getSignatures() public view returns (Signature[] memory);\r\n}\r\n\r\ncontract Mp4DataInterface9 is SignatureShape{\r\n   function getSignatures() public view returns (Signature[] memory);\r\n}\r\n\r\ncontract Mp4DataInterface10 is SignatureShape{\r\n   function getSignatures() public view returns (Signature[] memory);\r\n}\r\n\r\n//0x03bbb1ffee2be9485743fac40191ca9856d319c1\r\ncontract Mp4Analysis is SignatureShape, CompareShape, Ownable {\r\n    using Strings for *;\r\n    using BytesUtil for *;\r\n    using IntUtil for *;\r\n\r\n    Mp4DataInterface1 mp4Contract1 = Mp4DataInterface1(0xea8ccce37ac233dcfe52e299014a401cd853ab82);\r\n    Mp4DataInterface2 mp4Contract2 = Mp4DataInterface2(0x394af04e64b6136fc9237f05cadd32f5f52fc7f3);\r\n    Mp4DataInterface3 mp4Contract3 = Mp4DataInterface3(0xda418a6ee5b8e8a7168bb1243944853defa92ea8);\r\n    Mp4DataInterface4 mp4Contract4 = Mp4DataInterface4(0xe5660a59dfb0f5668317dfaafab4ccf19de6fcd4);\r\n    Mp4DataInterface5 mp4Contract5 = Mp4DataInterface5(0x90504cadbcb99eee9c3688ae78702831f2e6e039);\r\n\r\n    function getSignatures() public view returns (Signature[] memory){\r\n        Signature[][5] memory sigsEach = [mp4Contract1.getSignatures(), mp4Contract2.getSignatures(), mp4Contract3.getSignatures(), mp4Contract4.getSignatures(), mp4Contract5.getSignatures()];\r\n\r\n        uint len = 0;\r\n        for(uint i = 0; i < sigsEach.length; i++){\r\n            len += sigsEach[i].length;\r\n        }\r\n        Signature[] memory sigsAll = new Signature[](len);\r\n\r\n        for(i = 0; i < sigsEach.length; i++){\r\n            for(uint j = 0; j < sigsEach[i].length; j++){\r\n                sigsAll[i * 7 + j] = sigsEach[i][j];\r\n            }\r\n        }\r\n\r\n        return sigsAll;\r\n    }\r\n\r\n    function devideString(Signature s) public pure returns (string[] memory){\r\n        uint len = bytes(s.idSeq).length;\r\n        for(uint i = 0; i < len; ){\r\n            if(keccak256(bytes(s.idSeq.substring(i, i + 3))) == keccak256(\"\")){\r\n                i += 6;\r\n                len -= 2;\r\n            }else{\r\n                i += 4;\r\n            }\r\n        }\r\n        string[] memory idSeqArr = new string[](len / 4);\r\n        uint count = 0;\r\n        for(i = 0; i < bytes(s.idSeq).length;){\r\n            if(keccak256(bytes(s.idSeq.substring(i, i + 3))) == keccak256(\"\")){\r\n                idSeqArr[count++] = s.idSeq.substring(i, i + 6);\r\n                i += 6;\r\n            }else{\r\n                idSeqArr[count++] = s.idSeq.substring(i, i + 4);\r\n                i += 4;\r\n            }\r\n        }\r\n        return idSeqArr;\r\n    }\r\n\r\n    \r\n    function compareResult(string memory header, Compare chunk) public view returns (string[] memory, uint) {\r\n        uint cnt = 0;\r\n        string[] memory result = new string[](100);\r\n\r\n        Signature[] memory signatures = getSignatures(); \r\n\r\n        for(uint i = 0; i < signatures.length; i++){\r\n            string[] memory devide = devideString(signatures[i]);\r\n            if(devide.length == chunk.idSeq.length){\r\n                uint j;\r\n                for(j = 0; j < devide.length; j++){\r\n                    if(keccak256(bytes(devide[j])) != keccak256(bytes(chunk.idSeq[j]))){\r\n                        break;\r\n                    }\r\n                }\r\n                if(j == devide.length){\r\n                    if(signatures[i].checkValue.mark == 1){\r\n                        if(mp4valueCheck(signatures[i].checkValue, header, chunk) == true){\r\n                            result[cnt++] = signatures[i].itemType;\r\n                            result[cnt++] = signatures[i].itemName;\r\n                        }\r\n                    }else{\r\n                        result[cnt++] = signatures[i].itemType;\r\n                        result[cnt++] = signatures[i].itemName;\r\n                    }\r\n                }\r\n            }\r\n        }\r\n        return (result, cnt);\r\n    }\r\n\r\n    function isField(FieldValue field, Compare chunk) public pure returns (int) {\r\n        uint count = 0;\r\n        for(uint i = 0; i < chunk.idSeq.length; i++){\r\n            if(keccak256(bytes(field.id)) == keccak256(bytes(chunk.idSeq[i]))){\r\n                if(field.seq != count){\r\n                    count++;\r\n                    continue;\r\n                }\r\n                else{\r\n                    return int(i);\r\n                }\r\n            }\r\n        }\r\n        return -1;\r\n    }\r\n\r\n    function isSpecialChar(string memory value, uint start, uint end) public pure returns (int){\r\n        string[1] memory special = [\"a9746f6f\"]; \r\n        for(uint i = 0; i < special.length; i++){\r\n            int idx = value.substring(start, end).indexOf(special[i]);\r\n            if(idx != -1){\r\n                return idx;\r\n            }\r\n        }\r\n        return -1;\r\n    }\r\n    \r\n    function changeSpecialChar(string memory value) public pure returns (string memory) {\r\n        uint start = 0;\r\n        uint end = bytes(value).length;\r\n        int idx = isSpecialChar(value, start, end);\r\n        while(idx != -1){\r\n            string memory spilt = \"e29392\".concat(value.substring(uint(idx + 2), end));\r\n            value = value.substring(0, uint(idx)).concat(spilt);\r\n            start = start + 6;\r\n            end = bytes(value).length;\r\n            if(start > end){\r\n                break;\r\n            }\r\n            idx = isSpecialChar(value, start, end);\r\n        }\r\n        return value;\r\n    }\r\n\r\n    function mp4valueCheck(FieldValue field, string memory header, Compare chunk) public pure returns (bool){\r\n        int fieldIndex = isField(field, chunk);\r\n        string memory value;\r\n        if(fieldIndex != -1){\r\n            uint start = chunk.idSeqStart[uint(fieldIndex)];\r\n            if(field.startOffset == -1){\r\n                uint n = (header.substring(start - 8, start).fromHex().bytesToUint()) * 2;\r\n                if(start + n > bytes(header).length){\r\n                    value = changeSpecialChar(header.substring(start + 8, bytes(header).length));\r\n                }\r\n                else{\r\n                    value = changeSpecialChar(header.substring(start + 8, start + n));\r\n                }\r\n            }\r\n            else{\r\n                if(keccak256(bytes(field.id)) == keccak256(\"mdat\")){\r\n                    value = changeSpecialChar(header.substring(start - 8 + uint(field.startOffset * 2), start - 8 + uint(field.startOffset * 2) + uint(field.fieldSize * 2)));\r\n                }\r\n                else{\r\n                    value = changeSpecialChar(header.substring(start + 8 + uint(field.startOffset * 2), start + 8 + uint(field.startOffset * 2) + uint(field.fieldSize * 2)));\r\n                }\r\n            }\r\n            if(keccak256(bytes(field.valueType)) == keccak256(\"INT\")){\r\n                value = int(value.fromHex().bytesToUint()).int2str();\r\n            }\r\n            else if(keccak256(bytes(field.valueType)) == keccak256(\"BYTE\")){\r\n                value = value;\r\n            }\r\n            else{\r\n                value = string(value.fromHex());\r\n            }\r\n            if(value.indexOf(field.fieldValue) != -1){\r\n                return true;\r\n            }\r\n        }\r\n        return false;\r\n    }\r\n\r\n\r\n}",
  "sourcePath": "C:\\Users\\Eunsil\\KlaytnProject\\finalfinalfinalproject\\contracts\\mp4Analysis.sol",
  "compiler": {
    "name": "solc",
    "version": "0.4.25+commit.59dbf8f1.Emscripten.clang"
  },
  "schemaVersion": "2.0.2",
  "updatedAt": "2019-09-10T09:07:06.947Z"
}