{
  "contractName": "Mp4InitData9",
  "abi": [
    {
      "constant": true,
      "inputs": [
        {
          "name": "",
          "type": "uint256"
        }
      ],
      "name": "signatures",
      "outputs": [
        {
          "name": "creatTime",
          "type": "uint32"
        },
        {
          "name": "deleteTime",
          "type": "uint32"
        },
        {
          "name": "itemType",
          "type": "string"
        },
        {
          "name": "itemName",
          "type": "string"
        },
        {
          "name": "idSeq",
          "type": "string"
        }
      ],
      "payable": false,
      "stateMutability": "view",
      "type": "function"
    },
    {
      "inputs": [],
      "payable": false,
      "stateMutability": "nonpayable",
      "type": "constructor"
    },
    {
      "constant": true,
      "inputs": [],
      "name": "getSignatures",
      "outputs": [
        {
          "components": [
            {
              "name": "creatTime",
              "type": "uint32"
            },
            {
              "name": "deleteTime",
              "type": "uint32"
            },
            {
              "name": "itemType",
              "type": "string"
            },
            {
              "name": "itemName",
              "type": "string"
            },
            {
              "name": "idSeq",
              "type": "string"
            },
            {
              "components": [
                {
                  "name": "mark",
                  "type": "uint8"
                },
                {
                  "name": "seq",
                  "type": "uint8"
                },
                {
                  "name": "startOffset",
                  "type": "int8"
                },
                {
                  "name": "fieldSize",
                  "type": "int8"
                },
                {
                  "name": "id",
                  "type": "string"
                },
                {
                  "name": "fieldValue",
                  "type": "string"
                },
                {
                  "name": "valueType",
                  "type": "string"
                }
              ],
              "name": "checkValue",
              "type": "tuple[]"
            }
          ],
          "name": "",
          "type": "tuple[]"
        }
      ],
      "payable": false,
      "stateMutability": "view",
      "type": "function"
    },
    {
      "constant": false,
      "inputs": [],
      "name": "init",
      "outputs": [],
      "payable": false,
      "stateMutability": "nonpayable",
      "type": "function"
    }
  ],
  "bytecode": "0x60806040523480156200001157600080fd5b506200002b62000031640100000000026401000000009004565b62002b46565b6200003b62002687565b6001600080820160006101000a81549063ffffffff02191690556000820160046101000a81549063ffffffff02191690556001820160006200007e9190620026cf565b600282016000620000909190620026cf565b600382016000620000a29190620026cf565b600482016000620000b491906200271b565b505060e060405190810160405280600160ff168152602001600060ff1681526020017fffffffffffffffffffffffffffffffffffffffffffffffffffffffffffffffff60000b81526020017fffffffffffffffffffffffffffffffffffffffffffffffffffffffffffffffff60000b81526020016040805190810160405280600481526020017f68646c720000000000000000000000000000000000000000000000000000000081525081526020016040805190810160405280600b81526020017f4d61696e636f6e6365707400000000000000000000000000000000000000000081525081526020016040805190810160405280600381526020017f535452000000000000000000000000000000000000000000000000000000000081525081525090506001600401819080600181540180825580915050906001820390600052602060002090600402016000909192909190915060008201518160000160006101000a81548160ff021916908360ff16021790555060208201518160000160016101000a81548160ff021916908360ff16021790555060408201518160000160026101000a81548160ff021916908360000b60ff16021790555060608201518160000160036101000a81548160ff021916908360000b60ff1602179055506080820151816001019080519060200190620002b292919062002741565b5060a0820151816002019080519060200190620002d192919062002741565b5060c0820151816003019080519060200190620002f092919062002741565b5050505060e060405190810160405280600160ff168152602001600060ff1681526020017fffffffffffffffffffffffffffffffffffffffffffffffffffffffffffffffff60000b81526020017fffffffffffffffffffffffffffffffffffffffffffffffffffffffffffffffff60000b81526020016040805190810160405280600481526020017f757569640000000000000000000000000000000000000000000000000000000081525081526020016040805190810160405280600e81526020017f41646f6265205072656d6965726500000000000000000000000000000000000081525081526020016040805190810160405280600381526020017f535452000000000000000000000000000000000000000000000000000000000081525081525090506001600401819080600181540180825580915050906001820390600052602060002090600402016000909192909190915060008201518160000160006101000a81548160ff021916908360ff16021790555060208201518160000160016101000a81548160ff021916908360ff16021790555060408201518160000160026101000a81548160ff021916908360000b60ff16021790555060608201518160000160036101000a81548160ff021916908360000b60ff1602179055506080820151816001019080519060200190620004f092919062002741565b5060a08201518160020190805190602001906200050f92919062002741565b5060c08201518160030190805190602001906200052e92919062002741565b5050505060e060405190810160405280600160ff168152602001600060ff1681526020017fffffffffffffffffffffffffffffffffffffffffffffffffffffffffffffffff60000b81526020017fffffffffffffffffffffffffffffffffffffffffffffffffffffffffffffffff60000b81526020016040805190810160405280600481526020017f667479700000000000000000000000000000000000000000000000000000000081525081526020016040805190810160405280600481526020017f6d7034310000000000000000000000000000000000000000000000000000000081525081526020016040805190810160405280600381526020017f535452000000000000000000000000000000000000000000000000000000000081525081525090506001600401819080600181540180825580915050906001820390600052602060002090600402016000909192909190915060008201518160000160006101000a81548160ff021916908360ff16021790555060208201518160000160016101000a81548160ff021916908360ff16021790555060408201518160000160026101000a81548160ff021916908360000b60ff16021790555060608201518160000160036101000a81548160ff021916908360000b60ff16021790555060808201518160010190805190602001906200072e92919062002741565b5060a08201518160020190805190602001906200074d92919062002741565b5060c08201518160030190805190602001906200076c92919062002741565b505050506040805190810160405280600a81526020017f4d50345f454449544f5200000000000000000000000000000000000000000000815250600180019080519060200190620007bf929190620027c8565b506040805190810160405280600e81526020017f41646f6265205072656d696572650000000000000000000000000000000000008152506001600201908051906020019062000810929190620027c8565b506101006040519081016040528060ca8152602001620066c160ca91396001600301908051906020019062000847929190620027c8565b5042600160000160006101000a81548163ffffffff021916908363ffffffff1602179055506000600160000160046101000a81548163ffffffff021916908363ffffffff16021790555060006001908060018154018082558091505090600182039060005260206000209060050201600090919290919091506000820160009054906101000a900463ffffffff168160000160006101000a81548163ffffffff021916908363ffffffff1602179055506000820160049054906101000a900463ffffffff168160000160046101000a81548163ffffffff021916908363ffffffff16021790555060018201816001019080546001816001161561010002031660029004620009579291906200284f565b5060028201816002019080546001816001161561010002031660029004620009819291906200284f565b5060038201816003019080546001816001161561010002031660029004620009ab9291906200284f565b506004820181600401908054620009c4929190620028dd565b505050506001600080820160006101000a81549063ffffffff02191690556000820160046101000a81549063ffffffff021916905560018201600062000a0b9190620026cf565b60028201600062000a1d9190620026cf565b60038201600062000a2f9190620026cf565b60048201600062000a4191906200271b565b505060e060405190810160405280600160ff168152602001600060ff1681526020017fffffffffffffffffffffffffffffffffffffffffffffffffffffffffffffffff60000b81526020017fffffffffffffffffffffffffffffffffffffffffffffffffffffffffffffffff60000b81526020016040805190810160405280600481526020017f667479700000000000000000000000000000000000000000000000000000000081525081526020016040805190810160405280600481526020017f6d7034320000000000000000000000000000000000000000000000000000000081525081526020016040805190810160405280600381526020017f535452000000000000000000000000000000000000000000000000000000000081525081525090506001600401819080600181540180825580915050906001820390600052602060002090600402016000909192909190915060008201518160000160006101000a81548160ff021916908360ff16021790555060208201518160000160016101000a81548160ff021916908360ff16021790555060408201518160000160026101000a81548160ff021916908360000b60ff16021790555060608201518160000160036101000a81548160ff021916908360000b60ff160217905550608082015181600101908051906020019062000c3f92919062002741565b5060a082015181600201908051906020019062000c5e92919062002741565b5060c082015181600301908051906020019062000c7d92919062002741565b5050505060e060405190810160405280600160ff168152602001600060ff168152602001600460000b8152602001600460000b81526020016040805190810160405280600481526020017f667479700000000000000000000000000000000000000000000000000000000081525081526020016040805190810160405280600881526020017f313935323938353400000000000000000000000000000000000000000000000081525081526020016040805190810160405280600381526020017f494e54000000000000000000000000000000000000000000000000000000000081525081525090506001600401819080600181540180825580915050906001820390600052602060002090600402016000909192909190915060008201518160000160006101000a81548160ff021916908360ff16021790555060208201518160000160016101000a81548160ff021916908360ff16021790555060408201518160000160026101000a81548160ff021916908360000b60ff16021790555060608201518160000160036101000a81548160ff021916908360000b60ff160217905550608082015181600101908051906020019062000e3f92919062002741565b5060a082015181600201908051906020019062000e5e92919062002741565b5060c082015181600301908051906020019062000e7d92919062002741565b5050505060e060405190810160405280600160ff168152602001600060ff1681526020017fffffffffffffffffffffffffffffffffffffffffffffffffffffffffffffffff60000b81526020017fffffffffffffffffffffffffffffffffffffffffffffffffffffffffffffffff60000b81526020016040805190810160405280600481526020017f667479700000000000000000000000000000000000000000000000000000000081525081526020016040805190810160405280600481526020017f69736f6d0000000000000000000000000000000000000000000000000000000081525081526020016040805190810160405280600381526020017f535452000000000000000000000000000000000000000000000000000000000081525081525090506001600401819080600181540180825580915050906001820390600052602060002090600402016000909192909190915060008201518160000160006101000a81548160ff021916908360ff16021790555060208201518160000160016101000a81548160ff021916908360ff16021790555060408201518160000160026101000a81548160ff021916908360000b60ff16021790555060608201518160000160036101000a81548160ff021916908360000b60ff16021790555060808201518160010190805190602001906200107d92919062002741565b5060a08201518160020190805190602001906200109c92919062002741565b5060c0820151816003019080519060200190620010bb92919062002741565b505050506040805190810160405280600a81526020017f4d50345f454449544f52000000000000000000000000000000000000000000008152506001800190805190602001906200110e929190620027c8565b506040805190810160405280600581526020017f5665676173000000000000000000000000000000000000000000000000000000815250600160020190805190602001906200115f929190620027c8565b5060c060405190810160405280609481526020016200681f609491396001600301908051906020019062001195929190620027c8565b5042600160000160006101000a81548163ffffffff021916908363ffffffff1602179055506000600160000160046101000a81548163ffffffff021916908363ffffffff16021790555060006001908060018154018082558091505090600182039060005260206000209060050201600090919290919091506000820160009054906101000a900463ffffffff168160000160006101000a81548163ffffffff021916908363ffffffff1602179055506000820160049054906101000a900463ffffffff168160000160046101000a81548163ffffffff021916908363ffffffff16021790555060018201816001019080546001816001161561010002031660029004620012a59291906200284f565b5060028201816002019080546001816001161561010002031660029004620012cf9291906200284f565b5060038201816003019080546001816001161561010002031660029004620012f99291906200284f565b50600482018160040190805462001312929190620028dd565b505050506001600080820160006101000a81549063ffffffff02191690556000820160046101000a81549063ffffffff0219169055600182016000620013599190620026cf565b6002820160006200136b9190620026cf565b6003820160006200137d9190620026cf565b6004820160006200138f91906200271b565b505060e060405190810160405280600160ff168152602001600060ff1681526020017fffffffffffffffffffffffffffffffffffffffffffffffffffffffffffffffff60000b81526020017fffffffffffffffffffffffffffffffffffffffffffffffffffffffffffffffff60000b81526020016040805190810160405280600481526020017f667479700000000000000000000000000000000000000000000000000000000081525081526020016040805190810160405280600481526020017f6d7034320000000000000000000000000000000000000000000000000000000081525081526020016040805190810160405280600381526020017f535452000000000000000000000000000000000000000000000000000000000081525081525090506001600401819080600181540180825580915050906001820390600052602060002090600402016000909192909190915060008201518160000160006101000a81548160ff021916908360ff16021790555060208201518160000160016101000a81548160ff021916908360ff16021790555060408201518160000160026101000a81548160ff021916908360000b60ff16021790555060608201518160000160036101000a81548160ff021916908360000b60ff16021790555060808201518160010190805190602001906200158d92919062002741565b5060a0820151816002019080519060200190620015ac92919062002741565b5060c0820151816003019080519060200190620015cb92919062002741565b5050505060e060405190810160405280600160ff168152602001600060ff168152602001600460000b8152602001600460000b81526020016040805190810160405280600481526020017f667479700000000000000000000000000000000000000000000000000000000081525081526020016040805190810160405280600881526020017f313935323938353400000000000000000000000000000000000000000000000081525081526020016040805190810160405280600381526020017f494e54000000000000000000000000000000000000000000000000000000000081525081525090506001600401819080600181540180825580915050906001820390600052602060002090600402016000909192909190915060008201518160000160006101000a81548160ff021916908360ff16021790555060208201518160000160016101000a81548160ff021916908360ff16021790555060408201518160000160026101000a81548160ff021916908360000b60ff16021790555060608201518160000160036101000a81548160ff021916908360000b60ff16021790555060808201518160010190805190602001906200178d92919062002741565b5060a0820151816002019080519060200190620017ac92919062002741565b5060c0820151816003019080519060200190620017cb92919062002741565b5050505060e060405190810160405280600160ff168152602001600060ff1681526020017fffffffffffffffffffffffffffffffffffffffffffffffffffffffffffffffff60000b81526020017fffffffffffffffffffffffffffffffffffffffffffffffffffffffffffffffff60000b81526020016040805190810160405280600481526020017f667479700000000000000000000000000000000000000000000000000000000081525081526020016040805190810160405280600481526020017f69736f6d0000000000000000000000000000000000000000000000000000000081525081526020016040805190810160405280600381526020017f535452000000000000000000000000000000000000000000000000000000000081525081525090506001600401819080600181540180825580915050906001820390600052602060002090600402016000909192909190915060008201518160000160006101000a81548160ff021916908360ff16021790555060208201518160000160016101000a81548160ff021916908360ff16021790555060408201518160000160026101000a81548160ff021916908360000b60ff16021790555060608201518160000160036101000a81548160ff021916908360000b60ff1602179055506080820151816001019080519060200190620019cb92919062002741565b5060a0820151816002019080519060200190620019ea92919062002741565b5060c082015181600301908051906020019062001a0992919062002741565b505050506040805190810160405280600a81526020017f4d50345f454449544f520000000000000000000000000000000000000000000081525060018001908051906020019062001a5c929190620027c8565b506040805190810160405280600581526020017f56656761730000000000000000000000000000000000000000000000000000008152506001600201908051906020019062001aad929190620027c8565b5060c060405190810160405280609481526020016200678b609491396001600301908051906020019062001ae3929190620027c8565b5042600160000160006101000a81548163ffffffff021916908363ffffffff1602179055506000600160000160046101000a81548163ffffffff021916908363ffffffff16021790555060006001908060018154018082558091505090600182039060005260206000209060050201600090919290919091506000820160009054906101000a900463ffffffff168160000160006101000a81548163ffffffff021916908363ffffffff1602179055506000820160049054906101000a900463ffffffff168160000160046101000a81548163ffffffff021916908363ffffffff1602179055506001820181600101908054600181600116156101000203166002900462001bf39291906200284f565b506002820181600201908054600181600116156101000203166002900462001c1d9291906200284f565b506003820181600301908054600181600116156101000203166002900462001c479291906200284f565b50600482018160040190805462001c60929190620028dd565b505050506001600080820160006101000a81549063ffffffff02191690556000820160046101000a81549063ffffffff021916905560018201600062001ca79190620026cf565b60028201600062001cb99190620026cf565b60038201600062001ccb9190620026cf565b60048201600062001cdd91906200271b565b505060e060405190810160405280600160ff168152602001600060ff1681526020017fffffffffffffffffffffffffffffffffffffffffffffffffffffffffffffffff60000b81526020017fffffffffffffffffffffffffffffffffffffffffffffffffffffffffffffffff60000b81526020016040805190810160405280600481526020017f6d6574610000000000000000000000000000000000000000000000000000000081525081526020016040805190810160405280600d81526020017f4c61766635362e33362e3130300000000000000000000000000000000000000081525081526020016040805190810160405280600381526020017f535452000000000000000000000000000000000000000000000000000000000081525081525090506001600401819080600181540180825580915050906001820390600052602060002090600402016000909192909190915060008201518160000160006101000a81548160ff021916908360ff16021790555060208201518160000160016101000a81548160ff021916908360ff16021790555060408201518160000160026101000a81548160ff021916908360000b60ff16021790555060608201518160000160036101000a81548160ff021916908360000b60ff160217905550608082015181600101908051906020019062001edb92919062002741565b5060a082015181600201908051906020019062001efa92919062002741565b5060c082015181600301908051906020019062001f1992919062002741565b505050506040805190810160405280600a81526020017f4d50345f454449544f520000000000000000000000000000000000000000000081525060018001908051906020019062001f6c929190620027c8565b506040805190810160405280600881526020017f41766964656d75780000000000000000000000000000000000000000000000008152506001600201908051906020019062001fbd929190620027c8565b5060e06040519081016040528060a881526020016200657160a891396001600301908051906020019062001ff3929190620027c8565b5042600160000160006101000a81548163ffffffff021916908363ffffffff1602179055506000600160000160046101000a81548163ffffffff021916908363ffffffff16021790555060006001908060018154018082558091505090600182039060005260206000209060050201600090919290919091506000820160009054906101000a900463ffffffff168160000160006101000a81548163ffffffff021916908363ffffffff1602179055506000820160049054906101000a900463ffffffff168160000160046101000a81548163ffffffff021916908363ffffffff16021790555060018201816001019080546001816001161561010002031660029004620021039291906200284f565b50600282018160020190805460018160011615610100020316600290046200212d9291906200284f565b5060038201816003019080546001816001161561010002031660029004620021579291906200284f565b50600482018160040190805462002170929190620028dd565b505050506001600080820160006101000a81549063ffffffff02191690556000820160046101000a81549063ffffffff0219169055600182016000620021b79190620026cf565b600282016000620021c99190620026cf565b600382016000620021db9190620026cf565b600482016000620021ed91906200271b565b505060e060405190810160405280600160ff168152602001600060ff1681526020017fffffffffffffffffffffffffffffffffffffffffffffffffffffffffffffffff60000b81526020017fffffffffffffffffffffffffffffffffffffffffffffffffffffffffffffffff60000b81526020016040805190810160405280600481526020017f6d6574610000000000000000000000000000000000000000000000000000000081525081526020016040805190810160405280600d81526020017f4c61766635362e33362e3130300000000000000000000000000000000000000081525081526020016040805190810160405280600381526020017f535452000000000000000000000000000000000000000000000000000000000081525081525090506001600401819080600181540180825580915050906001820390600052602060002090600402016000909192909190915060008201518160000160006101000a81548160ff021916908360ff16021790555060208201518160000160016101000a81548160ff021916908360ff16021790555060408201518160000160026101000a81548160ff021916908360000b60ff16021790555060608201518160000160036101000a81548160ff021916908360000b60ff1602179055506080820151816001019080519060200190620023eb92919062002741565b5060a08201518160020190805190602001906200240a92919062002741565b5060c08201518160030190805190602001906200242992919062002741565b505050506040805190810160405280600a81526020017f4d50345f454449544f52000000000000000000000000000000000000000000008152506001800190805190602001906200247c929190620027c8565b506040805190810160405280600881526020017f41766964656d757800000000000000000000000000000000000000000000000081525060016002019080519060200190620024cd929190620027c8565b5060e06040519081016040528060a881526020016200661960a891396001600301908051906020019062002503929190620027c8565b5042600160000160006101000a81548163ffffffff021916908363ffffffff1602179055506000600160000160046101000a81548163ffffffff021916908363ffffffff16021790555060006001908060018154018082558091505090600182039060005260206000209060050201600090919290919091506000820160009054906101000a900463ffffffff168160000160006101000a81548163ffffffff021916908363ffffffff1602179055506000820160049054906101000a900463ffffffff168160000160046101000a81548163ffffffff021916908363ffffffff16021790555060018201816001019080546001816001161561010002031660029004620026139291906200284f565b50600282018160020190805460018160011615610100020316600290046200263d9291906200284f565b5060038201816003019080546001816001161561010002031660029004620026679291906200284f565b50600482018160040190805462002680929190620028dd565b5050505050565b60e060405190810160405280600060ff168152602001600060ff1681526020016000800b81526020016000800b81526020016060815260200160608152602001606081525090565b50805460018160011615610100020316600290046000825580601f10620026f7575062002718565b601f01602090049060005260206000209081019062002717919062002a76565b5b50565b50805460008255600402906000526020600020908101906200273e919062002a9e565b50565b828054600181600116156101000203166002900490600052602060002090601f016020900481019282601f106200278457805160ff1916838001178555620027b5565b82800160010185558215620027b5579182015b82811115620027b457825182559160200191906001019062002797565b5b509050620027c4919062002a76565b5090565b828054600181600116156101000203166002900490600052602060002090601f016020900481019282601f106200280b57805160ff19168380011785556200283c565b828001600101855582156200283c579182015b828111156200283b5782518255916020019190600101906200281e565b5b5090506200284b919062002a76565b5090565b828054600181600116156101000203166002900490600052602060002090601f016020900481019282601f106200288a5780548555620028ca565b82800160010185558215620028ca57600052602060002091601f016020900482015b82811115620028c9578254825591600101919060010190620028ac565b5b509050620028d9919062002a76565b5090565b82805482825590600052602060002090600402810192821562002a635760005260206000209160040282015b8281111562002a625782826000820160009054906101000a900460ff168160000160006101000a81548160ff021916908360ff1602179055506000820160019054906101000a900460ff168160000160016101000a81548160ff021916908360ff1602179055506000820160029054906101000a900460000b8160000160026101000a81548160ff021916908360000b60ff1602179055506000820160039054906101000a900460000b8160000160036101000a81548160ff021916908360000b60ff16021790555060018201816001019080546001816001161561010002031660029004620029fb9291906200284f565b506002820181600201908054600181600116156101000203166002900462002a259291906200284f565b506003820181600301908054600181600116156101000203166002900462002a4f9291906200284f565b5050509160040191906004019062002909565b5b50905062002a72919062002a9e565b5090565b62002a9b91905b8082111562002a9757600081600090555060010162002a7d565b5090565b90565b62002b4391905b8082111562002b3f57600080820160006101000a81549060ff02191690556000820160016101000a81549060ff02191690556000820160026101000a81549060ff02191690556000820160036101000a81549060ff021916905560018201600062002b119190620026cf565b60028201600062002b239190620026cf565b60038201600062002b359190620026cf565b5060040162002aa5565b5090565b90565b613a1b8062002b566000396000f300608060405260043610610057576000357c0100000000000000000000000000000000000000000000000000000000900463ffffffff1680638be101941461005c578063ad6f80ff1461009d578063e1c7392a146100c8575b600080fd5b34801561006857600080fd5b50610083600480360361007e9190810190613298565b6100df565b60405161009495949392919061356a565b60405180910390f35b3480156100a957600080fd5b506100b261030c565b6040516100bf9190613548565b60405180910390f35b3480156100d457600080fd5b506100dd610858565b005b6000818154811015156100ee57fe5b90600052602060002090600502016000915090508060000160009054906101000a900463ffffffff16908060000160049054906101000a900463ffffffff1690806001018054600181600116156101000203166002900480601f0160208091040260200160405190810160405280929190818152602001828054600181600116156101000203166002900480156101c65780601f1061019b576101008083540402835291602001916101c6565b820191906000526020600020905b8154815290600101906020018083116101a957829003601f168201915b505050505090806002018054600181600116156101000203166002900480601f0160208091040260200160405190810160405280929190818152602001828054600181600116156101000203166002900480156102645780601f1061023957610100808354040283529160200191610264565b820191906000526020600020905b81548152906001019060200180831161024757829003601f168201915b505050505090806003018054600181600116156101000203166002900480601f0160208091040260200160405190810160405280929190818152602001828054600181600116156101000203166002900480156103025780601f106102d757610100808354040283529160200191610302565b820191906000526020600020905b8154815290600101906020018083116102e557829003601f168201915b5050505050905085565b60606000805480602002602001604051908101604052809291908181526020016000905b8282101561084f578382906000526020600020906005020160c060405190810160405290816000820160009054906101000a900463ffffffff1663ffffffff1663ffffffff1681526020016000820160049054906101000a900463ffffffff1663ffffffff1663ffffffff168152602001600182018054600181600116156101000203166002900480601f0160208091040260200160405190810160405280929190818152602001828054600181600116156101000203166002900480156104395780601f1061040e57610100808354040283529160200191610439565b820191906000526020600020905b81548152906001019060200180831161041c57829003601f168201915b50505050508152602001600282018054600181600116156101000203166002900480601f0160208091040260200160405190810160405280929190818152602001828054600181600116156101000203166002900480156104db5780601f106104b0576101008083540402835291602001916104db565b820191906000526020600020905b8154815290600101906020018083116104be57829003601f168201915b50505050508152602001600382018054600181600116156101000203166002900480601f01602080910402602001604051908101604052809291908181526020018280546001816001161561010002031660029004801561057d5780601f106105525761010080835404028352916020019161057d565b820191906000526020600020905b81548152906001019060200180831161056057829003601f168201915b5050505050815260200160048201805480602002602001604051908101604052809291908181526020016000905b82821015610838578382906000526020600020906004020160e060405190810160405290816000820160009054906101000a900460ff1660ff1660ff1681526020016000820160019054906101000a900460ff1660ff1660ff1681526020016000820160029054906101000a900460000b60000b60000b81526020016000820160039054906101000a900460000b60000b60000b8152602001600182018054600181600116156101000203166002900480601f0160208091040260200160405190810160405280929190818152602001828054600181600116156101000203166002900480156106dc5780601f106106b1576101008083540402835291602001916106dc565b820191906000526020600020905b8154815290600101906020018083116106bf57829003601f168201915b50505050508152602001600282018054600181600116156101000203166002900480601f01602080910402602001604051908101604052809291908181526020018280546001816001161561010002031660029004801561077e5780601f106107535761010080835404028352916020019161077e565b820191906000526020600020905b81548152906001019060200180831161076157829003601f168201915b50505050508152602001600382018054600181600116156101000203166002900480601f0160208091040260200160405190810160405280929190818152602001828054600181600116156101000203166002900480156108205780601f106107f557610100808354040283529160200191610820565b820191906000526020600020905b81548152906001019060200180831161080357829003601f168201915b505050505081525050815260200190600101906105ab565b505050508152505081526020019060010190610330565b50505050905090565b610860612df7565b6001600080820160006101000a81549063ffffffff02191690556000820160046101000a81549063ffffffff02191690556001820160006108a19190612e3f565b6002820160006108b19190612e3f565b6003820160006108c19190612e3f565b6004820160006108d19190612e87565b505060e060405190810160405280600160ff168152602001600060ff1681526020017fffffffffffffffffffffffffffffffffffffffffffffffffffffffffffffffff60000b81526020017fffffffffffffffffffffffffffffffffffffffffffffffffffffffffffffffff60000b81526020016040805190810160405280600481526020017f68646c720000000000000000000000000000000000000000000000000000000081525081526020016040805190810160405280600b81526020017f4d61696e636f6e6365707400000000000000000000000000000000000000000081525081526020016040805190810160405280600381526020017f535452000000000000000000000000000000000000000000000000000000000081525081525090506001600401819080600181540180825580915050906001820390600052602060002090600402016000909192909190915060008201518160000160006101000a81548160ff021916908360ff16021790555060208201518160000160016101000a81548160ff021916908360ff16021790555060408201518160000160026101000a81548160ff021916908360000b60ff16021790555060608201518160000160036101000a81548160ff021916908360000b60ff1602179055506080820151816001019080519060200190610acd929190612eab565b5060a0820151816002019080519060200190610aea929190612eab565b5060c0820151816003019080519060200190610b07929190612eab565b5050505060e060405190810160405280600160ff168152602001600060ff1681526020017fffffffffffffffffffffffffffffffffffffffffffffffffffffffffffffffff60000b81526020017fffffffffffffffffffffffffffffffffffffffffffffffffffffffffffffffff60000b81526020016040805190810160405280600481526020017f757569640000000000000000000000000000000000000000000000000000000081525081526020016040805190810160405280600e81526020017f41646f6265205072656d6965726500000000000000000000000000000000000081525081526020016040805190810160405280600381526020017f535452000000000000000000000000000000000000000000000000000000000081525081525090506001600401819080600181540180825580915050906001820390600052602060002090600402016000909192909190915060008201518160000160006101000a81548160ff021916908360ff16021790555060208201518160000160016101000a81548160ff021916908360ff16021790555060408201518160000160026101000a81548160ff021916908360000b60ff16021790555060608201518160000160036101000a81548160ff021916908360000b60ff1602179055506080820151816001019080519060200190610d05929190612eab565b5060a0820151816002019080519060200190610d22929190612eab565b5060c0820151816003019080519060200190610d3f929190612eab565b5050505060e060405190810160405280600160ff168152602001600060ff1681526020017fffffffffffffffffffffffffffffffffffffffffffffffffffffffffffffffff60000b81526020017fffffffffffffffffffffffffffffffffffffffffffffffffffffffffffffffff60000b81526020016040805190810160405280600481526020017f667479700000000000000000000000000000000000000000000000000000000081525081526020016040805190810160405280600481526020017f6d7034310000000000000000000000000000000000000000000000000000000081525081526020016040805190810160405280600381526020017f535452000000000000000000000000000000000000000000000000000000000081525081525090506001600401819080600181540180825580915050906001820390600052602060002090600402016000909192909190915060008201518160000160006101000a81548160ff021916908360ff16021790555060208201518160000160016101000a81548160ff021916908360ff16021790555060408201518160000160026101000a81548160ff021916908360000b60ff16021790555060608201518160000160036101000a81548160ff021916908360000b60ff1602179055506080820151816001019080519060200190610f3d929190612eab565b5060a0820151816002019080519060200190610f5a929190612eab565b5060c0820151816003019080519060200190610f77929190612eab565b505050506040805190810160405280600a81526020017f4d50345f454449544f5200000000000000000000000000000000000000000000815250600180019080519060200190610fc8929190612f2b565b506040805190810160405280600e81526020017f41646f6265205072656d6965726500000000000000000000000000000000000081525060016002019080519060200190611017929190612f2b565b506101006040519081016040528060ca81526020016137f060ca91396001600301908051906020019061104b929190612f2b565b5042600160000160006101000a81548163ffffffff021916908363ffffffff1602179055506000600160000160046101000a81548163ffffffff021916908363ffffffff16021790555060006001908060018154018082558091505090600182039060005260206000209060050201600090919290919091506000820160009054906101000a900463ffffffff168160000160006101000a81548163ffffffff021916908363ffffffff1602179055506000820160049054906101000a900463ffffffff168160000160046101000a81548163ffffffff021916908363ffffffff16021790555060018201816001019080546001816001161561010002031660029004611159929190612fab565b5060028201816002019080546001816001161561010002031660029004611181929190612fab565b50600382018160030190805460018160011615610100020316600290046111a9929190612fab565b5060048201816004019080546111c0929190613032565b505050506001600080820160006101000a81549063ffffffff02191690556000820160046101000a81549063ffffffff02191690556001820160006112059190612e3f565b6002820160006112159190612e3f565b6003820160006112259190612e3f565b6004820160006112359190612e87565b505060e060405190810160405280600160ff168152602001600060ff1681526020017fffffffffffffffffffffffffffffffffffffffffffffffffffffffffffffffff60000b81526020017fffffffffffffffffffffffffffffffffffffffffffffffffffffffffffffffff60000b81526020016040805190810160405280600481526020017f667479700000000000000000000000000000000000000000000000000000000081525081526020016040805190810160405280600481526020017f6d7034320000000000000000000000000000000000000000000000000000000081525081526020016040805190810160405280600381526020017f535452000000000000000000000000000000000000000000000000000000000081525081525090506001600401819080600181540180825580915050906001820390600052602060002090600402016000909192909190915060008201518160000160006101000a81548160ff021916908360ff16021790555060208201518160000160016101000a81548160ff021916908360ff16021790555060408201518160000160026101000a81548160ff021916908360000b60ff16021790555060608201518160000160036101000a81548160ff021916908360000b60ff1602179055506080820151816001019080519060200190611431929190612eab565b5060a082015181600201908051906020019061144e929190612eab565b5060c082015181600301908051906020019061146b929190612eab565b5050505060e060405190810160405280600160ff168152602001600060ff168152602001600460000b8152602001600460000b81526020016040805190810160405280600481526020017f667479700000000000000000000000000000000000000000000000000000000081525081526020016040805190810160405280600881526020017f313935323938353400000000000000000000000000000000000000000000000081525081526020016040805190810160405280600381526020017f494e54000000000000000000000000000000000000000000000000000000000081525081525090506001600401819080600181540180825580915050906001820390600052602060002090600402016000909192909190915060008201518160000160006101000a81548160ff021916908360ff16021790555060208201518160000160016101000a81548160ff021916908360ff16021790555060408201518160000160026101000a81548160ff021916908360000b60ff16021790555060608201518160000160036101000a81548160ff021916908360000b60ff160217905550608082015181600101908051906020019061162b929190612eab565b5060a0820151816002019080519060200190611648929190612eab565b5060c0820151816003019080519060200190611665929190612eab565b5050505060e060405190810160405280600160ff168152602001600060ff1681526020017fffffffffffffffffffffffffffffffffffffffffffffffffffffffffffffffff60000b81526020017fffffffffffffffffffffffffffffffffffffffffffffffffffffffffffffffff60000b81526020016040805190810160405280600481526020017f667479700000000000000000000000000000000000000000000000000000000081525081526020016040805190810160405280600481526020017f69736f6d0000000000000000000000000000000000000000000000000000000081525081526020016040805190810160405280600381526020017f535452000000000000000000000000000000000000000000000000000000000081525081525090506001600401819080600181540180825580915050906001820390600052602060002090600402016000909192909190915060008201518160000160006101000a81548160ff021916908360ff16021790555060208201518160000160016101000a81548160ff021916908360ff16021790555060408201518160000160026101000a81548160ff021916908360000b60ff16021790555060608201518160000160036101000a81548160ff021916908360000b60ff1602179055506080820151816001019080519060200190611863929190612eab565b5060a0820151816002019080519060200190611880929190612eab565b5060c082015181600301908051906020019061189d929190612eab565b505050506040805190810160405280600a81526020017f4d50345f454449544f52000000000000000000000000000000000000000000008152506001800190805190602001906118ee929190612f2b565b506040805190810160405280600581526020017f56656761730000000000000000000000000000000000000000000000000000008152506001600201908051906020019061193d929190612f2b565b5060c0604051908101604052806094815260200161394e6094913960016003019080519060200190611970929190612f2b565b5042600160000160006101000a81548163ffffffff021916908363ffffffff1602179055506000600160000160046101000a81548163ffffffff021916908363ffffffff16021790555060006001908060018154018082558091505090600182039060005260206000209060050201600090919290919091506000820160009054906101000a900463ffffffff168160000160006101000a81548163ffffffff021916908363ffffffff1602179055506000820160049054906101000a900463ffffffff168160000160046101000a81548163ffffffff021916908363ffffffff16021790555060018201816001019080546001816001161561010002031660029004611a7e929190612fab565b5060028201816002019080546001816001161561010002031660029004611aa6929190612fab565b5060038201816003019080546001816001161561010002031660029004611ace929190612fab565b506004820181600401908054611ae5929190613032565b505050506001600080820160006101000a81549063ffffffff02191690556000820160046101000a81549063ffffffff0219169055600182016000611b2a9190612e3f565b600282016000611b3a9190612e3f565b600382016000611b4a9190612e3f565b600482016000611b5a9190612e87565b505060e060405190810160405280600160ff168152602001600060ff1681526020017fffffffffffffffffffffffffffffffffffffffffffffffffffffffffffffffff60000b81526020017fffffffffffffffffffffffffffffffffffffffffffffffffffffffffffffffff60000b81526020016040805190810160405280600481526020017f667479700000000000000000000000000000000000000000000000000000000081525081526020016040805190810160405280600481526020017f6d7034320000000000000000000000000000000000000000000000000000000081525081526020016040805190810160405280600381526020017f535452000000000000000000000000000000000000000000000000000000000081525081525090506001600401819080600181540180825580915050906001820390600052602060002090600402016000909192909190915060008201518160000160006101000a81548160ff021916908360ff16021790555060208201518160000160016101000a81548160ff021916908360ff16021790555060408201518160000160026101000a81548160ff021916908360000b60ff16021790555060608201518160000160036101000a81548160ff021916908360000b60ff1602179055506080820151816001019080519060200190611d56929190612eab565b5060a0820151816002019080519060200190611d73929190612eab565b5060c0820151816003019080519060200190611d90929190612eab565b5050505060e060405190810160405280600160ff168152602001600060ff168152602001600460000b8152602001600460000b81526020016040805190810160405280600481526020017f667479700000000000000000000000000000000000000000000000000000000081525081526020016040805190810160405280600881526020017f313935323938353400000000000000000000000000000000000000000000000081525081526020016040805190810160405280600381526020017f494e54000000000000000000000000000000000000000000000000000000000081525081525090506001600401819080600181540180825580915050906001820390600052602060002090600402016000909192909190915060008201518160000160006101000a81548160ff021916908360ff16021790555060208201518160000160016101000a81548160ff021916908360ff16021790555060408201518160000160026101000a81548160ff021916908360000b60ff16021790555060608201518160000160036101000a81548160ff021916908360000b60ff1602179055506080820151816001019080519060200190611f50929190612eab565b5060a0820151816002019080519060200190611f6d929190612eab565b5060c0820151816003019080519060200190611f8a929190612eab565b5050505060e060405190810160405280600160ff168152602001600060ff1681526020017fffffffffffffffffffffffffffffffffffffffffffffffffffffffffffffffff60000b81526020017fffffffffffffffffffffffffffffffffffffffffffffffffffffffffffffffff60000b81526020016040805190810160405280600481526020017f667479700000000000000000000000000000000000000000000000000000000081525081526020016040805190810160405280600481526020017f69736f6d0000000000000000000000000000000000000000000000000000000081525081526020016040805190810160405280600381526020017f535452000000000000000000000000000000000000000000000000000000000081525081525090506001600401819080600181540180825580915050906001820390600052602060002090600402016000909192909190915060008201518160000160006101000a81548160ff021916908360ff16021790555060208201518160000160016101000a81548160ff021916908360ff16021790555060408201518160000160026101000a81548160ff021916908360000b60ff16021790555060608201518160000160036101000a81548160ff021916908360000b60ff1602179055506080820151816001019080519060200190612188929190612eab565b5060a08201518160020190805190602001906121a5929190612eab565b5060c08201518160030190805190602001906121c2929190612eab565b505050506040805190810160405280600a81526020017f4d50345f454449544f5200000000000000000000000000000000000000000000815250600180019080519060200190612213929190612f2b565b506040805190810160405280600581526020017f566567617300000000000000000000000000000000000000000000000000000081525060016002019080519060200190612262929190612f2b565b5060c060405190810160405280609481526020016138ba6094913960016003019080519060200190612295929190612f2b565b5042600160000160006101000a81548163ffffffff021916908363ffffffff1602179055506000600160000160046101000a81548163ffffffff021916908363ffffffff16021790555060006001908060018154018082558091505090600182039060005260206000209060050201600090919290919091506000820160009054906101000a900463ffffffff168160000160006101000a81548163ffffffff021916908363ffffffff1602179055506000820160049054906101000a900463ffffffff168160000160046101000a81548163ffffffff021916908363ffffffff160217905550600182018160010190805460018160011615610100020316600290046123a3929190612fab565b50600282018160020190805460018160011615610100020316600290046123cb929190612fab565b50600382018160030190805460018160011615610100020316600290046123f3929190612fab565b50600482018160040190805461240a929190613032565b505050506001600080820160006101000a81549063ffffffff02191690556000820160046101000a81549063ffffffff021916905560018201600061244f9190612e3f565b60028201600061245f9190612e3f565b60038201600061246f9190612e3f565b60048201600061247f9190612e87565b505060e060405190810160405280600160ff168152602001600060ff1681526020017fffffffffffffffffffffffffffffffffffffffffffffffffffffffffffffffff60000b81526020017fffffffffffffffffffffffffffffffffffffffffffffffffffffffffffffffff60000b81526020016040805190810160405280600481526020017f6d6574610000000000000000000000000000000000000000000000000000000081525081526020016040805190810160405280600d81526020017f4c61766635362e33362e3130300000000000000000000000000000000000000081525081526020016040805190810160405280600381526020017f535452000000000000000000000000000000000000000000000000000000000081525081525090506001600401819080600181540180825580915050906001820390600052602060002090600402016000909192909190915060008201518160000160006101000a81548160ff021916908360ff16021790555060208201518160000160016101000a81548160ff021916908360ff16021790555060408201518160000160026101000a81548160ff021916908360000b60ff16021790555060608201518160000160036101000a81548160ff021916908360000b60ff160217905550608082015181600101908051906020019061267b929190612eab565b5060a0820151816002019080519060200190612698929190612eab565b5060c08201518160030190805190602001906126b5929190612eab565b505050506040805190810160405280600a81526020017f4d50345f454449544f5200000000000000000000000000000000000000000000815250600180019080519060200190612706929190612f2b565b506040805190810160405280600881526020017f41766964656d757800000000000000000000000000000000000000000000000081525060016002019080519060200190612755929190612f2b565b5060e06040519081016040528060a881526020016136a060a8913960016003019080519060200190612788929190612f2b565b5042600160000160006101000a81548163ffffffff021916908363ffffffff1602179055506000600160000160046101000a81548163ffffffff021916908363ffffffff16021790555060006001908060018154018082558091505090600182039060005260206000209060050201600090919290919091506000820160009054906101000a900463ffffffff168160000160006101000a81548163ffffffff021916908363ffffffff1602179055506000820160049054906101000a900463ffffffff168160000160046101000a81548163ffffffff021916908363ffffffff16021790555060018201816001019080546001816001161561010002031660029004612896929190612fab565b50600282018160020190805460018160011615610100020316600290046128be929190612fab565b50600382018160030190805460018160011615610100020316600290046128e6929190612fab565b5060048201816004019080546128fd929190613032565b505050506001600080820160006101000a81549063ffffffff02191690556000820160046101000a81549063ffffffff02191690556001820160006129429190612e3f565b6002820160006129529190612e3f565b6003820160006129629190612e3f565b6004820160006129729190612e87565b505060e060405190810160405280600160ff168152602001600060ff1681526020017fffffffffffffffffffffffffffffffffffffffffffffffffffffffffffffffff60000b81526020017fffffffffffffffffffffffffffffffffffffffffffffffffffffffffffffffff60000b81526020016040805190810160405280600481526020017f6d6574610000000000000000000000000000000000000000000000000000000081525081526020016040805190810160405280600d81526020017f4c61766635362e33362e3130300000000000000000000000000000000000000081525081526020016040805190810160405280600381526020017f535452000000000000000000000000000000000000000000000000000000000081525081525090506001600401819080600181540180825580915050906001820390600052602060002090600402016000909192909190915060008201518160000160006101000a81548160ff021916908360ff16021790555060208201518160000160016101000a81548160ff021916908360ff16021790555060408201518160000160026101000a81548160ff021916908360000b60ff16021790555060608201518160000160036101000a81548160ff021916908360000b60ff1602179055506080820151816001019080519060200190612b6e929190612eab565b5060a0820151816002019080519060200190612b8b929190612eab565b5060c0820151816003019080519060200190612ba8929190612eab565b505050506040805190810160405280600a81526020017f4d50345f454449544f5200000000000000000000000000000000000000000000815250600180019080519060200190612bf9929190612f2b565b506040805190810160405280600881526020017f41766964656d757800000000000000000000000000000000000000000000000081525060016002019080519060200190612c48929190612f2b565b5060e06040519081016040528060a8815260200161374860a8913960016003019080519060200190612c7b929190612f2b565b5042600160000160006101000a81548163ffffffff021916908363ffffffff1602179055506000600160000160046101000a81548163ffffffff021916908363ffffffff16021790555060006001908060018154018082558091505090600182039060005260206000209060050201600090919290919091506000820160009054906101000a900463ffffffff168160000160006101000a81548163ffffffff021916908363ffffffff1602179055506000820160049054906101000a900463ffffffff168160000160046101000a81548163ffffffff021916908363ffffffff16021790555060018201816001019080546001816001161561010002031660029004612d89929190612fab565b5060028201816002019080546001816001161561010002031660029004612db1929190612fab565b5060038201816003019080546001816001161561010002031660029004612dd9929190612fab565b506004820181600401908054612df0929190613032565b5050505050565b60e060405190810160405280600060ff168152602001600060ff1681526020016000800b81526020016000800b81526020016060815260200160608152602001606081525090565b50805460018160011615610100020316600290046000825580601f10612e655750612e84565b601f016020900490600052602060002090810190612e8391906131c0565b5b50565b5080546000825560040290600052602060002090810190612ea891906131e5565b50565b828054600181600116156101000203166002900490600052602060002090601f016020900481019282601f10612eec57805160ff1916838001178555612f1a565b82800160010185558215612f1a579182015b82811115612f19578251825591602001919060010190612efe565b5b509050612f2791906131c0565b5090565b828054600181600116156101000203166002900490600052602060002090601f016020900481019282601f10612f6c57805160ff1916838001178555612f9a565b82800160010185558215612f9a579182015b82811115612f99578251825591602001919060010190612f7e565b5b509050612fa791906131c0565b5090565b828054600181600116156101000203166002900490600052602060002090601f016020900481019282601f10612fe45780548555613021565b8280016001018555821561302157600052602060002091601f016020900482015b82811115613020578254825591600101919060010190613005565b5b50905061302e91906131c0565b5090565b8280548282559060005260206000209060040281019282156131af5760005260206000209160040282015b828111156131ae5782826000820160009054906101000a900460ff168160000160006101000a81548160ff021916908360ff1602179055506000820160019054906101000a900460ff168160000160016101000a81548160ff021916908360ff1602179055506000820160029054906101000a900460000b8160000160026101000a81548160ff021916908360000b60ff1602179055506000820160039054906101000a900460000b8160000160036101000a81548160ff021916908360000b60ff1602179055506001820181600101908054600181600116156101000203166002900461314c929190612fab565b5060028201816002019080546001816001161561010002031660029004613174929190612fab565b506003820181600301908054600181600116156101000203166002900461319c929190612fab565b5050509160040191906004019061305d565b5b5090506131bc91906131e5565b5090565b6131e291905b808211156131de5760008160009055506001016131c6565b5090565b90565b61328191905b8082111561327d57600080820160006101000a81549060ff02191690556000820160016101000a81549060ff02191690556000820160026101000a81549060ff02191690556000820160036101000a81549060ff02191690556001820160006132549190612e3f565b6002820160006132649190612e3f565b6003820160006132749190612e3f565b506004016131eb565b5090565b90565b60006132908235613651565b905092915050565b6000602082840312156132aa57600080fd5b60006132b884828501613284565b91505092915050565b60006132cc826135ec565b808452602084019350836020820285016132e5856135d2565b60005b8481101561331e5783830388526133008383516133e2565b925061330b8261360d565b91506020880197506001810190506132e8565b508196508694505050505092915050565b600061333a826135f7565b80845260208401935083602082028501613353856135df565b60005b8481101561338c57838303885261336e83835161348c565b92506133798261361a565b9150602088019750600181019050613356565b508196508694505050505092915050565b6133a681613627565b82525050565b60006133b782613602565b8084526133cb81602086016020860161365b565b6133d48161368e565b602085010191505092915050565b600060e0830160008301516133fa6000860182613539565b50602083015161340d6020860182613539565b506040830151613420604086018261339d565b506060830151613433606086018261339d565b506080830151848203608086015261344b82826133ac565b91505060a083015184820360a086015261346582826133ac565b91505060c083015184820360c086015261347f82826133ac565b9150508091505092915050565b600060c0830160008301516134a4600086018261352a565b5060208301516134b7602086018261352a565b50604083015184820360408601526134cf82826133ac565b915050606083015184820360608601526134e982826133ac565b9150506080830151848203608086015261350382826133ac565b91505060a083015184820360a086015261351d82826132c1565b9150508091505092915050565b61353381613634565b82525050565b61354281613644565b82525050565b60006020820190508181036000830152613562818461332f565b905092915050565b600060a08201905061357f600083018861352a565b61358c602083018761352a565b818103604083015261359e81866133ac565b905081810360608301526135b281856133ac565b905081810360808301526135c681846133ac565b90509695505050505050565b6000602082019050919050565b6000602082019050919050565b600081519050919050565b600081519050919050565b600081519050919050565b6000602082019050919050565b6000602082019050919050565b60008160000b9050919050565b600063ffffffff82169050919050565b600060ff82169050919050565b6000819050919050565b60005b8381101561367957808201518184015260208101905061365e565b83811115613688576000848401525b50505050565b6000601f19601f8301169050919050560066747970667265656d6461746d6f6f766d7668647472616b746b686465647473656c73746d6469616d64686468646c726d696e66766d686464696e66647265667374626c737473647374747373747373737473637374737a7374636f7472616b746b686465647473656c73746d6469616d64686468646c726d696e66736d686464696e66647265667374626c7374736473747473737473637374737a7374636f756474616d65746166747970667265656d6461746d6f6f766d7668647472616b746b686465647473656c73746d6469616d64686468646c726d696e66766d686464696e66647265667374626c737473647374747363747473737473637374737a7374636f7472616b746b686465647473656c73746d6469616d64686468646c726d696e66736d686464696e66647265667374626c7374736473747473737473637374737a7374636f756474616d657461667479706d6f6f766d7668647472616b746b686465647473656c73746d6469616d64686468646c726d696e66766d686468646c7264696e66647265667374626c73747364737474737374737373647470737473637374737a7374636f63747473757569647472616b746b686465647473656c73746d6469616d64686468646c726d696e66736d686468646c7264696e66647265667374626c7374736473747473737473637374737a7374636f75647461e2939254494de29392545343e2939254535a757569646d64617466747970667265656d6461746d6f6f766d7668647472616b746b68646d6469616d64686468646c726d696e66736d686464696e66647265667374626c7374736473747473737473637374737a7374636f7472616b746b68646d6469616d64686468646c726d696e66766d686464696e66647265667374626c737473647374747363747473737473637374737a7374636f7374737366747970667265656d6f6f766d7668647472616b746b68646d6469616d64686468646c726d696e66736d686464696e66647265667374626c7374736473747473737473637374737a7374636f7472616b746b68646d6469616d64686468646c726d696e66766d686464696e66647265667374626c737473647374747363747473737473637374737a7374636f737473736d646174a265627a7a72305820a32347cb121116f1bf09bc958df42dae7c7743b2f004503724d9f3a525829e746c6578706572696d656e74616cf5003766747970667265656d6461746d6f6f766d7668647472616b746b686465647473656c73746d6469616d64686468646c726d696e66766d686464696e66647265667374626c737473647374747373747373737473637374737a7374636f7472616b746b686465647473656c73746d6469616d64686468646c726d696e66736d686464696e66647265667374626c7374736473747473737473637374737a7374636f756474616d65746166747970667265656d6461746d6f6f766d7668647472616b746b686465647473656c73746d6469616d64686468646c726d696e66766d686464696e66647265667374626c737473647374747363747473737473637374737a7374636f7472616b746b686465647473656c73746d6469616d64686468646c726d696e66736d686464696e66647265667374626c7374736473747473737473637374737a7374636f756474616d657461667479706d6f6f766d7668647472616b746b686465647473656c73746d6469616d64686468646c726d696e66766d686468646c7264696e66647265667374626c73747364737474737374737373647470737473637374737a7374636f63747473757569647472616b746b686465647473656c73746d6469616d64686468646c726d696e66736d686468646c7264696e66647265667374626c7374736473747473737473637374737a7374636f75647461e2939254494de29392545343e2939254535a757569646d64617466747970667265656d6461746d6f6f766d7668647472616b746b68646d6469616d64686468646c726d696e66736d686464696e66647265667374626c7374736473747473737473637374737a7374636f7472616b746b68646d6469616d64686468646c726d696e66766d686464696e66647265667374626c737473647374747363747473737473637374737a7374636f7374737366747970667265656d6f6f766d7668647472616b746b68646d6469616d64686468646c726d696e66736d686464696e66647265667374626c7374736473747473737473637374737a7374636f7472616b746b68646d6469616d64686468646c726d696e66766d686464696e66647265667374626c737473647374747363747473737473637374737a7374636f737473736d646174",
  "source": "pragma solidity ^0.4.24;\r\npragma experimental ABIEncoderV2;\r\n\r\nimport \"./signatureShape.sol\";\r\n\r\n//0x58966172bcf5784d61ffda9d045b419feb584664\r\ncontract Mp4InitData9 is SignatureShape{\r\n\r\n    Signature[] public signatures;\r\n    Signature sig;\r\n\r\n    constructor() public {\r\n       init();\r\n    }\r\n\r\n    function getSignatures() public view returns (Signature[] memory){\r\n        return signatures;  \r\n    }\r\n\r\n    function init() public {\r\n        \r\n        FieldValue memory check;\r\n\r\n        //1\r\n        delete sig;\r\n        check = FieldValue(1, 0, -1, -1, \"hdlr\", \"Mainconcept\", \"STR\");\r\n        sig.checkValue.push(check);\r\n        check = FieldValue(1, 0, -1, -1, \"uuid\", \"Adobe Premiere\", \"STR\");\r\n        sig.checkValue.push(check);\r\n        check = FieldValue(1, 0, -1, -1, \"ftyp\", \"mp41\", \"STR\");\r\n        sig.checkValue.push(check);\r\n    \r\n        sig.itemType = \"MP4_EDITOR\";\r\n        sig.itemName = \"Adobe Premiere\"; // \" \" empty \r\n        sig.idSeq = \"ftypmoovmvhdtraktkhdedtselstmdiamdhdhdlrminfvmhdhdlrdinfdrefstblstsdsttsstsssdtpstscstszstcocttsuuidtraktkhdedtselstmdiamdhdhdlrminfsmhdhdlrdinfdrefstblstsdsttsstscstszstcoudtaTIMTSCTSZuuidmdat\";\r\n        sig.creatTime = uint32(now);\r\n        sig.deleteTime = 0;\r\n\r\n        signatures.push(sig);\r\n\r\n        //2\r\n        delete sig;\r\n        check = FieldValue(1, 0, -1, -1, \"ftyp\", \"mp42\", \"STR\");\r\n        sig.checkValue.push(check);\r\n        check = FieldValue(1, 0, 4, 4, \"ftyp\", \"19529854\", \"INT\");\r\n        sig.checkValue.push(check);\r\n        check = FieldValue(1, 0, -1, -1, \"ftyp\", \"isom\", \"STR\");\r\n        sig.checkValue.push(check);\r\n    \r\n        sig.itemType = \"MP4_EDITOR\";\r\n        sig.itemName = \"Vegas\"; // \" \" empty \r\n        sig.idSeq = \"ftypfreemoovmvhdtraktkhdmdiamdhdhdlrminfsmhddinfdrefstblstsdsttsstscstszstcotraktkhdmdiamdhdhdlrminfvmhddinfdrefstblstsdsttscttsstscstszstcostssmdat\";\r\n        sig.creatTime = uint32(now);\r\n        sig.deleteTime = 0;\r\n\r\n        signatures.push(sig);\r\n\r\n        //3\r\n        delete sig;\r\n        check = FieldValue(1, 0, -1, -1, \"ftyp\", \"mp42\", \"STR\");\r\n        sig.checkValue.push(check);\r\n        check = FieldValue(1, 0, 4, 4, \"ftyp\", \"19529854\", \"INT\");\r\n        sig.checkValue.push(check);\r\n        check = FieldValue(1, 0, -1, -1, \"ftyp\", \"isom\", \"STR\");\r\n        sig.checkValue.push(check);\r\n    \r\n        sig.itemType = \"MP4_EDITOR\";\r\n        sig.itemName = \"Vegas\"; // \" \" empty \r\n        sig.idSeq = \"ftypfreemdatmoovmvhdtraktkhdmdiamdhdhdlrminfsmhddinfdrefstblstsdsttsstscstszstcotraktkhdmdiamdhdhdlrminfvmhddinfdrefstblstsdsttscttsstscstszstcostss\";\r\n        sig.creatTime = uint32(now);\r\n        sig.deleteTime = 0;\r\n\r\n        signatures.push(sig);\r\n\r\n        //4\r\n        delete sig;\r\n        check = FieldValue(1, 0, -1, -1, \"meta\", \"Lavf56.36.100\", \"STR\");\r\n        sig.checkValue.push(check);\r\n    \r\n        sig.itemType = \"MP4_EDITOR\";\r\n        sig.itemName = \"Avidemux\"; // \" \" empty \r\n        sig.idSeq = \"ftypfreemdatmoovmvhdtraktkhdedtselstmdiamdhdhdlrminfvmhddinfdrefstblstsdsttsstssstscstszstcotraktkhdedtselstmdiamdhdhdlrminfsmhddinfdrefstblstsdsttsstscstszstcoudtameta\";\r\n        sig.creatTime = uint32(now);\r\n        sig.deleteTime = 0;\r\n\r\n        signatures.push(sig);\r\n\r\n        //5\r\n        delete sig;\r\n        check = FieldValue(1, 0, -1, -1, \"meta\", \"Lavf56.36.100\", \"STR\");\r\n        sig.checkValue.push(check);\r\n    \r\n        sig.itemType = \"MP4_EDITOR\";\r\n        sig.itemName = \"Avidemux\"; // \" \" empty \r\n        sig.idSeq = \"ftypfreemdatmoovmvhdtraktkhdedtselstmdiamdhdhdlrminfvmhddinfdrefstblstsdsttscttsstscstszstcotraktkhdedtselstmdiamdhdhdlrminfsmhddinfdrefstblstsdsttsstscstszstcoudtameta\";\r\n        sig.creatTime = uint32(now);\r\n        sig.deleteTime = 0;\r\n\r\n        signatures.push(sig);\r\n    }\r\n}",
  "sourcePath": "C:\\Users\\Eunsil\\KlaytnProject\\new-blackbox-project2\\contracts\\mp4InitData9.sol",
  "compiler": {
    "name": "solc",
    "version": "0.4.25+commit.59dbf8f1.Emscripten.clang"
  },
  "schemaVersion": "2.0.2",
  "updatedAt": "2019-08-30T06:50:23.295Z"
}