{
  "contractName": "mp4Parser",
  "abi": [
    {
      "constant": false,
      "inputs": [
        {
          "name": "header",
          "type": "string"
        }
      ],
      "name": "mp4Parser2",
      "outputs": [],
      "payable": false,
      "stateMutability": "nonpayable",
      "type": "function"
    },
    {
      "constant": true,
      "inputs": [
        {
          "name": "str",
          "type": "string"
        }
      ],
      "name": "isChild",
      "outputs": [
        {
          "name": "",
          "type": "bool"
        }
      ],
      "payable": false,
      "stateMutability": "pure",
      "type": "function"
    }
  ],
  "bytecode": "0x608060405234801561001057600080fd5b50610c07806100206000396000f30060806040526004361061004c576000357c0100000000000000000000000000000000000000000000000000000000900463ffffffff16806340385ac6146100515780634487eb2f146100ba575b600080fd5b34801561005d57600080fd5b506100b8600480360381019080803590602001908201803590602001908080601f016020809104026020016040519081016040528093929190818152602001838380828437820191505050505050919291929050505061013b565b005b3480156100c657600080fd5b50610121600480360381019080803590602001908201803590602001908080601f016020809104026020016040519081016040528093929190818152602001838380828437820191505050505050919291929050505061085a565b604051808215151515815260200191505060405180910390f35b6060600080600890505b8351811015610854578373__Strings_______________________________631dcd9b55909183600885016040518463ffffffff167c01000000000000000000000000000000000000000000000000000000000281526004018080602001848152602001838152602001828103825285818151815260200191508051906020019080838360005b838110156101e75780820151818401526020810190506101cc565b50505050905090810190601f1680156102145780820380516001836020036101000a031916815260200191505b5094505050505060006040518083038186803b15801561023357600080fd5b505af4158015610247573d6000803e3d6000fd5b505050506040513d6000823e3d601f19601f82011682018060405250602081101561027157600080fd5b81019080805164010000000081111561028957600080fd5b8281019050602081018481111561029f57600080fd5b81518560018202830111640100000000821117156102bc57600080fd5b505092919050505073__Strings_______________________________638e7e34d790916040518263ffffffff167c01000000000000000000000000000000000000000000000000000000000281526004018080602001828103825283818151815260200191508051906020019080838360005b8381101561034b578082015181840152602081019050610330565b50505050905090810190601f1680156103785780820380516001836020036101000a031916815260200191505b509250505060006040518083038186803b15801561039557600080fd5b505af41580156103a9573d6000803e3d6000fd5b505050506040513d6000823e3d601f19601f8201168201806040525060208110156103d357600080fd5b8101908080516401000000008111156103eb57600080fd5b8281019050602081018481111561040157600080fd5b815185600182028301116401000000008211171561041e57600080fd5b505092919050505092506000839080600181540180825580915050906001820390600052602060002001600090919290919091509080519060200190610465929190610b36565b50508373__Strings_______________________________631dcd9b55909160088403846040518463ffffffff167c01000000000000000000000000000000000000000000000000000000000281526004018080602001848152602001838152602001828103825285818151815260200191508051906020019080838360005b838110156105005780820151818401526020810190506104e5565b50505050905090810190601f16801561052d5780820380516001836020036101000a031916815260200191505b5094505050505060006040518083038186803b15801561054c57600080fd5b505af4158015610560573d6000803e3d6000fd5b505050506040513d6000823e3d601f19601f82011682018060405250602081101561058a57600080fd5b8101908080516401000000008111156105a257600080fd5b828101905060208101848111156105b857600080fd5b81518560018202830111640100000000821117156105d557600080fd5b505092919050505073__Strings_______________________________638e7e34d790916040518263ffffffff167c01000000000000000000000000000000000000000000000000000000000281526004018080602001828103825283818151815260200191508051906020019080838360005b83811015610664578082015181840152602081019050610649565b50505050905090810190601f1680156106915780820380516001836020036101000a031916815260200191505b509250505060006040518083038186803b1580156106ae57600080fd5b505af41580156106c2573d6000803e3d6000fd5b505050506040513d6000823e3d601f19601f8201168201806040525060208110156106ec57600080fd5b81019080805164010000000081111561070457600080fd5b8281019050602081018481111561071a57600080fd5b815185600182028301116401000000008211171561073757600080fd5b505092919050505073__BytesUtil_____________________________6302d06d0590916040518263ffffffff167c01000000000000000000000000000000000000000000000000000000000281526004018080602001828103825283818151815260200191508051906020019080838360005b838110156107c65780820151818401526020810190506107ab565b50505050905090810190601f1680156107f35780820380516001836020036101000a031916815260200191505b509250505060206040518083038186803b15801561081057600080fd5b505af4158015610824573d6000803e3d6000fd5b505050506040513d602081101561083a57600080fd5b810190808051906020019092919050505081019050610145565b50505050565b600060606000606060405190810160405280602581526020017f667479706d6f6f7675646174617472616b6d646961747265666d696e6664696e81526020017f667374626c0000000000000000000000000000000000000000000000000000008152509150600090505b8151811015610b2a578173__Strings_______________________________631dcd9b55909183600485016040518463ffffffff167c01000000000000000000000000000000000000000000000000000000000281526004018080602001848152602001838152602001828103825285818151815260200191508051906020019080838360005b8381101561096657808201518184015260208101905061094b565b50505050905090810190601f1680156109935780820380516001836020036101000a031916815260200191505b5094505050505060006040518083038186803b1580156109b257600080fd5b505af41580156109c6573d6000803e3d6000fd5b505050506040513d6000823e3d601f19601f8201168201806040525060208110156109f057600080fd5b810190808051640100000000811115610a0857600080fd5b82810190506020810184811115610a1e57600080fd5b8151856001820283011164010000000082111715610a3b57600080fd5b50509291905050506040518082805190602001908083835b602083101515610a785780518252602082019150602081019050602083039250610a53565b6001836020036101000a038019825116818451168082178552505050505050905001915050604051809103902060001916846040518082805190602001908083835b602083101515610adf5780518252602082019150602081019050602083039250610aba565b6001836020036101000a0380198251168184511680821785525050505050509050019150506040518091039020600019161415610b1f5760019250610b2f565b6004810190506108c4565b600092505b5050919050565b828054600181600116156101000203166002900490600052602060002090601f016020900481019282601f10610b7757805160ff1916838001178555610ba5565b82800160010185558215610ba5579182015b82811115610ba4578251825591602001919060010190610b89565b5b509050610bb29190610bb6565b5090565b610bd891905b80821115610bd4576000816000905550600101610bbc565b5090565b905600a165627a7a72305820ee27498e63156227511f8543f6570825eef87fca5f9023442604bce9ef89fad00029",
  "source": "pragma solidity ^0.4.24;\r\n\r\nimport \"./strings.sol\";\r\nimport \"./bytesUtil.sol\";\r\n\r\ncontract mp4Parser {\r\n    using Strings for *;\r\n    using BytesUtil for *;\r\n\r\n    string[] idSeq;\r\n\r\n    function mp4Parser2(string memory header) public {\r\n        \r\n        bytes memory b;\r\n        uint n;\r\n        for(uint i = 8; i < bytes(header).length;){\r\n            b = header.substring(i, i + 8).fromHex();\r\n            idSeq.push(string(b));\r\n            // if(isChild(string(b))){\r\n                \r\n                \r\n            //     i = i + header.substring(i - 8, i).fromHex().bytesToUint();\r\n            // }\r\n            i = i + header.substring(i - 8, i).fromHex().bytesToUint();\r\n            // else{\r\n            //     i = i + 16;\r\n            // }\r\n        }\r\n        //return aviChunk.idSeq;\r\n    }\r\n\r\n    function isChild(string memory str) public pure returns (bool){\r\n        string memory root = \"ftypmoovudatatrakmdiatrefminfdinfstbl\";\r\n        for(uint j = 0; j < bytes(root).length; j += 4){\r\n            if(keccak256(bytes(str)) == keccak256(bytes(root.substring(j, j + 4))))\r\n                return true;\r\n        }\r\n        return false;\r\n    }\r\n    \r\n}",
  "sourcePath": "C:\\Users\\Eunsil\\KlaytnProject\\blackbox-project2\\contracts\\mp4Parser.sol",
  "compiler": {
    "name": "solc",
    "version": "0.4.25+commit.59dbf8f1.Emscripten.clang"
  },
  "schemaVersion": "2.0.2",
  "updatedAt": "2019-08-18T16:21:22.842Z"
}