{
  "contractName": "Mp4SignatureDB",
  "abi": [
    {
      "constant": true,
      "inputs": [],
      "name": "getSignatures",
      "outputs": [
        {
          "components": [
            {
              "name": "creatTime",
              "type": "uint32"
            },
            {
              "name": "deleteTime",
              "type": "uint32"
            },
            {
              "name": "itemType",
              "type": "string"
            },
            {
              "name": "itemName",
              "type": "string"
            },
            {
              "name": "idSeq",
              "type": "string"
            },
            {
              "components": [
                {
                  "name": "mark",
                  "type": "uint8"
                },
                {
                  "name": "seq",
                  "type": "uint8"
                },
                {
                  "name": "startOffset",
                  "type": "int8"
                },
                {
                  "name": "fieldSize",
                  "type": "int8"
                },
                {
                  "name": "id",
                  "type": "string"
                },
                {
                  "name": "fieldValue",
                  "type": "string"
                },
                {
                  "name": "valueType",
                  "type": "string"
                }
              ],
              "name": "checkValue",
              "type": "tuple[]"
            }
          ],
          "name": "",
          "type": "tuple[]"
        }
      ],
      "payable": false,
      "stateMutability": "view",
      "type": "function"
    }
  ],
  "bytecode": "0x608060405273cf6dfaa0b81bb31f1d4d8b922e4f733289fe71566000806101000a81548173ffffffffffffffffffffffffffffffffffffffff021916908373ffffffffffffffffffffffffffffffffffffffff16021790555073bab8e44ed18214d9def8403503711b4deca7cb86600160006101000a81548173ffffffffffffffffffffffffffffffffffffffff021916908373ffffffffffffffffffffffffffffffffffffffff16021790555073268a2fe76428295f5248bf80eceb456847f57e89600260006101000a81548173ffffffffffffffffffffffffffffffffffffffff021916908373ffffffffffffffffffffffffffffffffffffffff16021790555073ef1d404ff4a59c30c662cb23200b0bcd8ca09191600360006101000a81548173ffffffffffffffffffffffffffffffffffffffff021916908373ffffffffffffffffffffffffffffffffffffffff16021790555073032fa4265419df11578f024896ccf7d28ca27c1c600460006101000a81548173ffffffffffffffffffffffffffffffffffffffff021916908373ffffffffffffffffffffffffffffffffffffffff1602179055503480156101b857600080fd5b50610e1d806101c86000396000f300608060405260043610610041576000357c0100000000000000000000000000000000000000000000000000000000900463ffffffff168063ad6f80ff14610046575b600080fd5b34801561005257600080fd5b5061005b610071565b6040516100689190610c2b565b60405180910390f35b606061007b610586565b6000806060600060a0604051908101604052806000809054906101000a900473ffffffffffffffffffffffffffffffffffffffff1673ffffffffffffffffffffffffffffffffffffffff1663ad6f80ff6040518163ffffffff167c0100000000000000000000000000000000000000000000000000000000028152600401600060405180830381600087803b15801561011357600080fd5b505af1158015610127573d6000803e3d6000fd5b505050506040513d6000823e3d601f19601f820116820180604052506101509190810190610963565b8152602001600160009054906101000a900473ffffffffffffffffffffffffffffffffffffffff1673ffffffffffffffffffffffffffffffffffffffff1663ad6f80ff6040518163ffffffff167c0100000000000000000000000000000000000000000000000000000000028152600401600060405180830381600087803b1580156101db57600080fd5b505af11580156101ef573d6000803e3d6000fd5b505050506040513d6000823e3d601f19601f820116820180604052506102189190810190610963565b8152602001600160009054906101000a900473ffffffffffffffffffffffffffffffffffffffff1673ffffffffffffffffffffffffffffffffffffffff1663ad6f80ff6040518163ffffffff167c0100000000000000000000000000000000000000000000000000000000028152600401600060405180830381600087803b1580156102a357600080fd5b505af11580156102b7573d6000803e3d6000fd5b505050506040513d6000823e3d601f19601f820116820180604052506102e09190810190610963565b8152602001600160009054906101000a900473ffffffffffffffffffffffffffffffffffffffff1673ffffffffffffffffffffffffffffffffffffffff1663ad6f80ff6040518163ffffffff167c0100000000000000000000000000000000000000000000000000000000028152600401600060405180830381600087803b15801561036b57600080fd5b505af115801561037f573d6000803e3d6000fd5b505050506040513d6000823e3d601f19601f820116820180604052506103a89190810190610963565b8152602001600160009054906101000a900473ffffffffffffffffffffffffffffffffffffffff1673ffffffffffffffffffffffffffffffffffffffff1663ad6f80ff6040518163ffffffff167c0100000000000000000000000000000000000000000000000000000000028152600401600060405180830381600087803b15801561043357600080fd5b505af1158015610447573d6000803e3d6000fd5b505050506040513d6000823e3d601f19601f820116820180604052506104709190810190610963565b815250945060009350600092505b60058310156104ac57848360058110151561049557fe5b60200201515184019350828060010193505061047e565b836040519080825280602002602001820160405280156104e657816020015b6104d36105ae565b8152602001906001900390816104cb5790505b509150600092505b600583101561057b57600090505b848360058110151561050a57fe5b60200201515181101561056e57848360058110151561052557fe5b60200201518181518110151561053757fe5b906020019060200201518282600886020181518110151561055457fe5b9060200190602002018190525080806001019150506104fc565b82806001019350506104ee565b819550505050505090565b60a0604051908101604052806005905b60608152602001906001900390816105965790505090565b60c060405190810160405280600063ffffffff168152602001600063ffffffff168152602001606081526020016060815260200160608152602001606081525090565b600082601f830112151561060457600080fd5b815161061761061282610c7a565b610c4d565b9150818183526020840193506020810190508360005b8381101561065d57815186016106438882610747565b84526020840193506020830192505060018101905061062d565b5050505092915050565b600082601f830112151561067a57600080fd5b815161068d61068882610ca2565b610c4d565b9150818183526020840193506020810190508360005b838110156106d357815186016106b9888261083f565b8452602084019350602083019250506001810190506106a3565b5050505092915050565b60006106e98251610d75565b905092915050565b600082601f830112151561070457600080fd5b815161071761071282610cca565b610c4d565b9150808252602083016020830185838301111561073357600080fd5b61073e838284610d9f565b50505092915050565b600060e0828403121561075957600080fd5b61076360e0610c4d565b905060006107738482850161094f565b60008301525060206107878482850161094f565b602083015250604061079b848285016106dd565b60408301525060606107af848285016106dd565b606083015250608082015167ffffffffffffffff8111156107cf57600080fd5b6107db848285016106f1565b60808301525060a082015167ffffffffffffffff8111156107fb57600080fd5b610807848285016106f1565b60a08301525060c082015167ffffffffffffffff81111561082757600080fd5b610833848285016106f1565b60c08301525092915050565b600060c0828403121561085157600080fd5b61085b60c0610c4d565b9050600061086b8482850161093b565b600083015250602061087f8482850161093b565b602083015250604082015167ffffffffffffffff81111561089f57600080fd5b6108ab848285016106f1565b604083015250606082015167ffffffffffffffff8111156108cb57600080fd5b6108d7848285016106f1565b606083015250608082015167ffffffffffffffff8111156108f757600080fd5b610903848285016106f1565b60808301525060a082015167ffffffffffffffff81111561092357600080fd5b61092f848285016105f1565b60a08301525092915050565b60006109478251610d82565b905092915050565b600061095b8251610d92565b905092915050565b60006020828403121561097557600080fd5b600082015167ffffffffffffffff81111561098f57600080fd5b61099b84828501610667565b91505092915050565b60006109af82610d10565b808452602084019350836020820285016109c885610cf6565b60005b84811015610a015783830388526109e3838351610ac5565b92506109ee82610d31565b91506020880197506001810190506109cb565b508196508694505050505092915050565b6000610a1d82610d1b565b80845260208401935083602082028501610a3685610d03565b60005b84811015610a6f578383038852610a51838351610b6f565b9250610a5c82610d3e565b9150602088019750600181019050610a39565b508196508694505050505092915050565b610a8981610d4b565b82525050565b6000610a9a82610d26565b808452610aae816020860160208601610d9f565b610ab781610dd2565b602085010191505092915050565b600060e083016000830151610add6000860182610c1c565b506020830151610af06020860182610c1c565b506040830151610b036040860182610a80565b506060830151610b166060860182610a80565b5060808301518482036080860152610b2e8282610a8f565b91505060a083015184820360a0860152610b488282610a8f565b91505060c083015184820360c0860152610b628282610a8f565b9150508091505092915050565b600060c083016000830151610b876000860182610c0d565b506020830151610b9a6020860182610c0d565b5060408301518482036040860152610bb28282610a8f565b91505060608301518482036060860152610bcc8282610a8f565b91505060808301518482036080860152610be68282610a8f565b91505060a083015184820360a0860152610c0082826109a4565b9150508091505092915050565b610c1681610d58565b82525050565b610c2581610d68565b82525050565b60006020820190508181036000830152610c458184610a12565b905092915050565b6000604051905081810181811067ffffffffffffffff82111715610c7057600080fd5b8060405250919050565b600067ffffffffffffffff821115610c9157600080fd5b602082029050602081019050919050565b600067ffffffffffffffff821115610cb957600080fd5b602082029050602081019050919050565b600067ffffffffffffffff821115610ce157600080fd5b601f19601f8301169050602081019050919050565b6000602082019050919050565b6000602082019050919050565b600081519050919050565b600081519050919050565b600081519050919050565b6000602082019050919050565b6000602082019050919050565b60008160000b9050919050565b600063ffffffff82169050919050565b600060ff82169050919050565b60008160000b9050919050565b600063ffffffff82169050919050565b600060ff82169050919050565b60005b83811015610dbd578082015181840152602081019050610da2565b83811115610dcc576000848401525b50505050565b6000601f19601f83011690509190505600a265627a7a72305820ae1eba1f641d2eacf5ae18510d8e87e8cdb53ff3327eef655457ff3379bbcadb6c6578706572696d656e74616cf50037",
  "source": "pragma solidity ^0.4.24;\r\npragma experimental ABIEncoderV2;\r\n\r\nimport \"./strings.sol\";\r\nimport \"./bytesUtil.sol\";\r\nimport \"./intUtil.sol\";\r\nimport \"./signatureShape.sol\";\r\n\r\ncontract Mp4DataInterface1 is SignatureShape{\r\n    function getSignatures() public view returns (Signature[] memory);\r\n}\r\n\r\ncontract Mp4DataInterface2 is SignatureShape{\r\n   function getSignatures() public view returns (Signature[] memory);\r\n}\r\n\r\ncontract Mp4DataInterface3 is SignatureShape{\r\n   function getSignatures() public view returns (Signature[] memory);\r\n}\r\n\r\ncontract Mp4DataInterface4 is SignatureShape{\r\n   function getSignatures() public view returns (Signature[] memory);\r\n}\r\n\r\ncontract Mp4DataInterface5 is SignatureShape{\r\n   function getSignatures() public view returns (Signature[] memory);\r\n}\r\n\r\ncontract Mp4SignatureDB is SignatureShape {\r\n\r\n    using Strings for *;\r\n    using BytesUtil for *;\r\n    using IntUtil for *;\r\n\r\n    Mp4DataInterface1 mp4Contract1 = Mp4DataInterface1(0xcf6dfaa0b81bb31f1d4d8b922e4f733289fe7156);\r\n    Mp4DataInterface2 mp4Contract2 = Mp4DataInterface2(0xbab8e44ed18214d9def8403503711b4deca7cb86);\r\n    Mp4DataInterface3 mp4Contract3 = Mp4DataInterface3(0x268a2fe76428295f5248bf80eceb456847f57e89);\r\n    Mp4DataInterface4 mp4Contract4 = Mp4DataInterface4(0xef1d404ff4a59c30c662cb23200b0bcd8ca09191);\r\n    Mp4DataInterface5 mp4Contract5 = Mp4DataInterface5(0x032fa4265419df11578f024896ccf7d28ca27c1c);\r\n\r\n    function getSignatures() public view returns (Signature[] memory){\r\n        Signature[][5] memory sigsEach = [mp4Contract1.getSignatures(), mp4Contract2.getSignatures(), mp4Contract2.getSignatures(), mp4Contract2.getSignatures(), mp4Contract2.getSignatures()];\r\n\r\n        uint len = 0;\r\n        for(uint i = 0; i < sigsEach.length; i++){\r\n            len += sigsEach[i].length;\r\n        }\r\n        Signature[] memory sigsAll = new Signature[](len);\r\n\r\n        for(i = 0; i < 5; i++){\r\n            for(uint j = 0; j < sigsEach[i].length; j++){\r\n                sigsAll[i * 8 + j] = sigsEach[i][j];\r\n            }\r\n        }\r\n\r\n        return sigsAll;\r\n    }\r\n\r\n\r\n}",
  "sourcePath": "C:\\Users\\Eunsil\\KlaytnProject\\new-blackbox-project\\contracts\\mp4Analysis.sol",
  "compiler": {
    "name": "solc",
    "version": "0.4.25+commit.59dbf8f1.Emscripten.clang"
  },
  "schemaVersion": "2.0.2",
  "updatedAt": "2019-08-21T10:07:48.812Z"
}