{
  "contractName": "SignatureDB",
  "abi": [
    {
      "constant": true,
      "inputs": [],
      "name": "displayAllSignatures",
      "outputs": [
        {
          "components": [
            {
              "name": "creatTime",
              "type": "uint32"
            },
            {
              "name": "deleteTime",
              "type": "uint32"
            },
            {
              "name": "itemType",
              "type": "string"
            },
            {
              "name": "itemName",
              "type": "string"
            },
            {
              "name": "idSeq",
              "type": "string"
            },
            {
              "components": [
                {
                  "name": "mark",
                  "type": "uint8"
                },
                {
                  "name": "seq",
                  "type": "uint8"
                },
                {
                  "name": "startOffset",
                  "type": "int8"
                },
                {
                  "name": "fieldSize",
                  "type": "int8"
                },
                {
                  "name": "id",
                  "type": "string"
                },
                {
                  "name": "fieldValue",
                  "type": "string"
                },
                {
                  "name": "valueType",
                  "type": "string"
                }
              ],
              "name": "checkValue",
              "type": "tuple"
            }
          ],
          "name": "",
          "type": "tuple[]"
        }
      ],
      "payable": false,
      "stateMutability": "view",
      "type": "function"
    },
    {
      "constant": true,
      "inputs": [],
      "name": "getAddress",
      "outputs": [
        {
          "name": "",
          "type": "address"
        }
      ],
      "payable": false,
      "stateMutability": "view",
      "type": "function"
    },
    {
      "constant": true,
      "inputs": [
        {
          "name": "size",
          "type": "string"
        }
      ],
      "name": "getAviFieldSize",
      "outputs": [
        {
          "name": "",
          "type": "uint256"
        }
      ],
      "payable": false,
      "stateMutability": "pure",
      "type": "function"
    },
    {
      "constant": true,
      "inputs": [
        {
          "name": "str",
          "type": "string"
        }
      ],
      "name": "isMp4Child",
      "outputs": [
        {
          "name": "",
          "type": "bool"
        }
      ],
      "payable": false,
      "stateMutability": "pure",
      "type": "function"
    },
    {
      "constant": true,
      "inputs": [],
      "name": "owner",
      "outputs": [
        {
          "name": "",
          "type": "address"
        }
      ],
      "payable": false,
      "stateMutability": "view",
      "type": "function"
    },
    {
      "constant": true,
      "inputs": [
        {
          "name": "header",
          "type": "string"
        }
      ],
      "name": "mp4Parser",
      "outputs": [
        {
          "components": [
            {
              "name": "idSeq",
              "type": "string[]"
            },
            {
              "name": "idSeqStart",
              "type": "uint256[]"
            }
          ],
          "name": "",
          "type": "tuple"
        },
        {
          "name": "",
          "type": "uint256"
        }
      ],
      "payable": false,
      "stateMutability": "pure",
      "type": "function"
    },
    {
      "constant": true,
      "inputs": [
        {
          "name": "header",
          "type": "string"
        }
      ],
      "name": "aviParser",
      "outputs": [
        {
          "components": [
            {
              "name": "idSeq",
              "type": "string[]"
            },
            {
              "name": "idSeqStart",
              "type": "uint256[]"
            }
          ],
          "name": "",
          "type": "tuple"
        },
        {
          "name": "",
          "type": "uint256"
        }
      ],
      "payable": false,
      "stateMutability": "pure",
      "type": "function"
    },
    {
      "constant": true,
      "inputs": [
        {
          "components": [
            {
              "name": "idSeq",
              "type": "string[]"
            },
            {
              "name": "idSeqStart",
              "type": "uint256[]"
            }
          ],
          "name": "chunk",
          "type": "tuple"
        },
        {
          "name": "cnt",
          "type": "uint256"
        }
      ],
      "name": "arraySlice",
      "outputs": [
        {
          "components": [
            {
              "name": "idSeq",
              "type": "string[]"
            },
            {
              "name": "idSeqStart",
              "type": "uint256[]"
            }
          ],
          "name": "",
          "type": "tuple"
        }
      ],
      "payable": false,
      "stateMutability": "pure",
      "type": "function"
    },
    {
      "constant": true,
      "inputs": [
        {
          "name": "header",
          "type": "string"
        }
      ],
      "name": "compareResult",
      "outputs": [
        {
          "name": "",
          "type": "string[]"
        },
        {
          "name": "",
          "type": "uint256"
        }
      ],
      "payable": false,
      "stateMutability": "view",
      "type": "function"
    },
    {
      "constant": false,
      "inputs": [
        {
          "name": "newOwner",
          "type": "address"
        }
      ],
      "name": "transferOwnership",
      "outputs": [],
      "payable": false,
      "stateMutability": "nonpayable",
      "type": "function"
    },
    {
      "anonymous": false,
      "inputs": [
        {
          "indexed": true,
          "name": "previousOwner",
          "type": "address"
        },
        {
          "indexed": true,
          "name": "newOwner",
          "type": "address"
        }
      ],
      "name": "OwnershipTransferred",
      "type": "event"
    },
    {
      "constant": true,
      "inputs": [],
      "name": "getBalance",
      "outputs": [
        {
          "name": "",
          "type": "uint256"
        }
      ],
      "payable": false,
      "stateMutability": "view",
      "type": "function"
    },
    {
      "constant": true,
      "inputs": [
        {
          "name": "own",
          "type": "address"
        }
      ],
      "name": "getBalanceOwner",
      "outputs": [
        {
          "name": "",
          "type": "uint256"
        }
      ],
      "payable": false,
      "stateMutability": "view",
      "type": "function"
    },
    {
      "constant": false,
      "inputs": [],
      "name": "deposit",
      "outputs": [],
      "payable": true,
      "stateMutability": "payable",
      "type": "function"
    },
    {
      "constant": false,
      "inputs": [
        {
          "name": "result",
          "type": "string[]"
        },
        {
          "name": "fileHash",
          "type": "string"
        },
        {
          "name": "fileName",
          "type": "string"
        },
        {
          "name": "checkTime",
          "type": "string"
        }
      ],
      "name": "singleRegi",
      "outputs": [],
      "payable": true,
      "stateMutability": "payable",
      "type": "function"
    },
    {
      "constant": false,
      "inputs": [
        {
          "name": "compareResult",
          "type": "string"
        },
        {
          "name": "result",
          "type": "string[]"
        },
        {
          "name": "result2",
          "type": "string[]"
        },
        {
          "name": "fileHash",
          "type": "string[]"
        },
        {
          "name": "fileName",
          "type": "string[]"
        },
        {
          "name": "checkTime",
          "type": "string"
        }
      ],
      "name": "twoRegi",
      "outputs": [],
      "payable": true,
      "stateMutability": "payable",
      "type": "function"
    },
    {
      "constant": true,
      "inputs": [
        {
          "components": [
            {
              "name": "result",
              "type": "string[]"
            },
            {
              "name": "fileHash",
              "type": "string"
            },
            {
              "name": "fileName",
              "type": "string"
            },
            {
              "name": "checkTime",
              "type": "string"
            },
            {
              "name": "userAddress",
              "type": "address"
            }
          ],
          "name": "video",
          "type": "tuple"
        }
      ],
      "name": "isRegister",
      "outputs": [
        {
          "name": "",
          "type": "uint256"
        }
      ],
      "payable": false,
      "stateMutability": "view",
      "type": "function"
    },
    {
      "constant": true,
      "inputs": [
        {
          "name": "temp",
          "type": "uint256[]"
        }
      ],
      "name": "getCount",
      "outputs": [
        {
          "name": "",
          "type": "uint256"
        }
      ],
      "payable": false,
      "stateMutability": "pure",
      "type": "function"
    },
    {
      "constant": true,
      "inputs": [
        {
          "name": "fileHash",
          "type": "string"
        },
        {
          "name": "user",
          "type": "address"
        }
      ],
      "name": "getResult",
      "outputs": [
        {
          "components": [
            {
              "name": "result",
              "type": "string[]"
            },
            {
              "name": "fileHash",
              "type": "string"
            },
            {
              "name": "fileName",
              "type": "string"
            },
            {
              "name": "checkTime",
              "type": "string"
            },
            {
              "name": "userAddress",
              "type": "address"
            }
          ],
          "name": "",
          "type": "tuple[]"
        },
        {
          "components": [
            {
              "components": [
                {
                  "name": "result",
                  "type": "string[]"
                },
                {
                  "name": "fileHash",
                  "type": "string"
                },
                {
                  "name": "fileName",
                  "type": "string"
                },
                {
                  "name": "checkTime",
                  "type": "string"
                },
                {
                  "name": "userAddress",
                  "type": "address"
                }
              ],
              "name": "beforeVideo",
              "type": "tuple"
            },
            {
              "components": [
                {
                  "name": "result",
                  "type": "string[]"
                },
                {
                  "name": "fileHash",
                  "type": "string"
                },
                {
                  "name": "fileName",
                  "type": "string"
                },
                {
                  "name": "checkTime",
                  "type": "string"
                },
                {
                  "name": "userAddress",
                  "type": "address"
                }
              ],
              "name": "afterVideo",
              "type": "tuple"
            },
            {
              "name": "result",
              "type": "string"
            }
          ],
          "name": "",
          "type": "tuple[]"
        }
      ],
      "payable": false,
      "stateMutability": "view",
      "type": "function"
    },
    {
      "constant": true,
      "inputs": [],
      "name": "displayAllUserData",
      "outputs": [
        {
          "components": [
            {
              "name": "result",
              "type": "string[]"
            },
            {
              "name": "fileHash",
              "type": "string"
            },
            {
              "name": "fileName",
              "type": "string"
            },
            {
              "name": "checkTime",
              "type": "string"
            },
            {
              "name": "userAddress",
              "type": "address"
            }
          ],
          "name": "",
          "type": "tuple[]"
        }
      ],
      "payable": false,
      "stateMutability": "view",
      "type": "function"
    },
    {
      "constant": false,
      "inputs": [
        {
          "name": "_value",
          "type": "uint256"
        }
      ],
      "name": "transfer",
      "outputs": [
        {
          "name": "",
          "type": "bool"
        }
      ],
      "payable": false,
      "stateMutability": "nonpayable",
      "type": "function"
    }
  ],
  "bytecode": "0x60806040527303bbb1ffee2be9485743fac40191ca9856d319c1600160006101000a81548173ffffffffffffffffffffffffffffffffffffffff021916908373ffffffffffffffffffffffffffffffffffffffff160217905550734c6609896274ea3b52f92a79d15be352a18bed65600260006101000a81548173ffffffffffffffffffffffffffffffffffffffff021916908373ffffffffffffffffffffffffffffffffffffffff160217905550336000806101000a81548173ffffffffffffffffffffffffffffffffffffffff021916908373ffffffffffffffffffffffffffffffffffffffff160217905550615f28806100fd6000396000f300608060405260043610610112576000357c0100000000000000000000000000000000000000000000000000000000900463ffffffff16806312065fe01461011757806312514bba146101425780631e22f6831461017f578063278d5ce61461019b5780632b9c749b146101c657806338cc4831146101f15780634c90b5301461021c578063513ccfc81461025957806388468ea71461029657806388d10a70146102d35780638bb1542d146103105780638da5cb5b1461032c5780639980be6d14610357578063aabadac414610394578063b7de5932146103d2578063d0e30db014610410578063d96e8e1c1461041a578063e771e54014610458578063e8024aa514610495578063f2fde38b146104d3575b600080fd5b34801561012357600080fd5b5061012c6104fc565b6040516101399190615b1e565b60405180910390f35b34801561014e57600080fd5b5061016960048036036101649190810190615192565b61051b565b604051610176919061591e565b60405180910390f35b61019960048036036101949190810190614d34565b6105b9565b005b3480156101a757600080fd5b506101b0610710565b6040516101bd91906158c5565b60405180910390f35b3480156101d257600080fd5b506101db610af3565b6040516101e891906158a3565b60405180910390f35b3480156101fd57600080fd5b50610206610d7e565b6040516102139190615858565b60405180910390f35b34801561022857600080fd5b50610243600480360361023e9190810190614f0e565b610da7565b6040516102509190615b1e565b60405180910390f35b34801561026557600080fd5b50610280600480360361027b9190810190615151565b610fd6565b60405161028d9190615b1e565b60405180910390f35b3480156102a257600080fd5b506102bd60048036036102b89190810190614d0b565b611184565b6040516102ca9190615b1e565b60405180910390f35b3480156102df57600080fd5b506102fa60048036036102f59190810190614f0e565b6111a5565b604051610307919061591e565b60405180910390f35b61032a60048036036103259190810190614fe4565b6114e7565b005b34801561033857600080fd5b50610341611a0c565b60405161034e9190615858565b60405180910390f35b34801561036357600080fd5b5061037e60048036036103799190810190614e8c565b611a31565b60405161038b9190615b1e565b60405180910390f35b3480156103a057600080fd5b506103bb60048036036103b69190810190614f0e565b611a87565b6040516103c9929190615aee565b60405180910390f35b3480156103de57600080fd5b506103f960048036036103f49190810190614f0e565b61215f565b604051610407929190615aee565b60405180910390f35b61041861278f565b005b34801561042657600080fd5b50610441600480360361043c9190810190614f90565b612791565b60405161044f9291906158e7565b60405180910390f35b34801561046457600080fd5b5061047f600480360361047a91908101906150fd565b6138dd565b60405161048c9190615acc565b60405180910390f35b3480156104a157600080fd5b506104bc60048036036104b79190810190614f0e565b613a00565b6040516104ca929190615873565b60405180910390f35b3480156104df57600080fd5b506104fa60048036036104f59190810190614d0b565b613e10565b005b60003073ffffffffffffffffffffffffffffffffffffffff1631905090565b6000816105266104fc565b10151515610569576040517f08c379a000000000000000000000000000000000000000000000000000000000815260040161056090615aac565b60405180910390fd5b3373ffffffffffffffffffffffffffffffffffffffff166108fc839081150290604051600060405180830381858888f193505050501580156105af573d6000803e3d6000fd5b5060019050919050565b6105c16141a2565b84816000018190525083816020018190525082816040018190525081816060018190525033816080019073ffffffffffffffffffffffffffffffffffffffff16908173ffffffffffffffffffffffffffffffffffffffff16815250506003819080600181540180825580915050906001820390600052602060002090600502016000909192909190915060008201518160000190805190602001906106679291906141e8565b506020820151816001019080519060200190610684929190614248565b5060408201518160020190805190602001906106a1929190614248565b5060608201518160030190805190602001906106be929190614248565b5060808201518160040160006101000a81548173ffffffffffffffffffffffffffffffffffffffff021916908373ffffffffffffffffffffffffffffffffffffffff1602179055505050505050505050565b60608060008060038054905060405190808252806020026020018201604052801561075557816020015b6107426142c8565b81526020019060019003908161073a5790505b50925060009150600090505b600380549050811015610aea5760038181548110151561077d57fe5b906000526020600020906005020160a0604051908101604052908160008201805480602002602001604051908101604052809291908181526020016000905b82821015610878578382906000526020600020018054600181600116156101000203166002900480601f0160208091040260200160405190810160405280929190818152602001828054600181600116156101000203166002900480156108645780601f1061083957610100808354040283529160200191610864565b820191906000526020600020905b81548152906001019060200180831161084757829003601f168201915b5050505050815260200190600101906107bc565b505050508152602001600182018054600181600116156101000203166002900480601f0160208091040260200160405190810160405280929190818152602001828054600181600116156101000203166002900480156109195780601f106108ee57610100808354040283529160200191610919565b820191906000526020600020905b8154815290600101906020018083116108fc57829003601f168201915b50505050508152602001600282018054600181600116156101000203166002900480601f0160208091040260200160405190810160405280929190818152602001828054600181600116156101000203166002900480156109bb5780601f10610990576101008083540402835291602001916109bb565b820191906000526020600020905b81548152906001019060200180831161099e57829003601f168201915b50505050508152602001600382018054600181600116156101000203166002900480601f016020809104026020016040519081016040528092919081815260200182805460018160011615610100020316600290048015610a5d5780601f10610a3257610100808354040283529160200191610a5d565b820191906000526020600020905b815481529060010190602001808311610a4057829003601f168201915b505050505081526020016004820160009054906101000a900473ffffffffffffffffffffffffffffffffffffffff1673ffffffffffffffffffffffffffffffffffffffff1673ffffffffffffffffffffffffffffffffffffffff16815250508383806001019450815181101515610ad057fe5b906020019060200201819052508080600101915050610761565b82935050505090565b606080606080600080600260009054906101000a900473ffffffffffffffffffffffffffffffffffffffff1673ffffffffffffffffffffffffffffffffffffffff1663ad6f80ff6040518163ffffffff167c0100000000000000000000000000000000000000000000000000000000028152600401600060405180830381600087803b158015610b8257600080fd5b505af1158015610b96573d6000803e3d6000fd5b505050506040513d6000823e3d601f19601f82011682018060405250610bbf9190810190614e4b565b9450600260009054906101000a900473ffffffffffffffffffffffffffffffffffffffff1673ffffffffffffffffffffffffffffffffffffffff1663ad6f80ff6040518163ffffffff167c0100000000000000000000000000000000000000000000000000000000028152600401600060405180830381600087803b158015610c4757600080fd5b505af1158015610c5b573d6000803e3d6000fd5b505050506040513d6000823e3d601f19601f82011682018060405250610c849190810190614e4b565b93508351855101604051908082528060200260200182016040528015610cc457816020015b610cb161430e565b815260200190600190039081610ca95790505b50925060009150600090505b8451811015610d1f578481815181101515610ce757fe5b906020019060200201518383806001019450815181101515610d0557fe5b906020019060200201819052508080600101915050610cd0565b600090505b8351811015610d73578381815181101515610d3b57fe5b906020019060200201518383806001019450815181101515610d5957fe5b906020019060200201819052508080600101915050610d24565b829550505050505090565b60008060009054906101000a900473ffffffffffffffffffffffffffffffffffffffff16905090565b6000606060008373__Strings_______________________________63171ec7a590916040518263ffffffff167c0100000000000000000000000000000000000000000000000000000000028152600401610e02919061595b565b60006040518083038186803b158015610e1a57600080fd5b505af4158015610e2e573d6000803e3d6000fd5b505050506040513d6000823e3d601f19601f82011682018060405250610e579190810190614f4f565b91508173__Strings_______________________________638e7e34d790916040518263ffffffff167c0100000000000000000000000000000000000000000000000000000000028152600401610eae919061595b565b60006040518083038186803b158015610ec657600080fd5b505af4158015610eda573d6000803e3d6000fd5b505050506040513d6000823e3d601f19601f82011682018060405250610f039190810190614ecd565b73__BytesUtil_____________________________6302d06d0590916040518263ffffffff167c0100000000000000000000000000000000000000000000000000000000028152600401610f579190615939565b60206040518083038186803b158015610f6f57600080fd5b505af4158015610f83573d6000803e3d6000fd5b505050506040513d601f19601f82011682018060405250610fa791908101906151bb565b90506000600282811515610fb757fe5b06141515610fc6576001810190505b6002810290508092505050919050565b600080600090505b60038054905081101561117957826080015173ffffffffffffffffffffffffffffffffffffffff1660038281548110151561101557fe5b906000526020600020906005020160040160009054906101000a900473ffffffffffffffffffffffffffffffffffffffff1673ffffffffffffffffffffffffffffffffffffffff1614801561115e575082602001516040518082805190602001908083835b60208310151561109f578051825260208201915060208101905060208303925061107a565b6001836020036101000a0380198251168184511680821785525050505050509050019150506040518091039020600019166003828154811015156110df57fe5b9060005260206000209060050201600101604051808280546001816001161561010002031660029004801561114b5780601f1061112957610100808354040283529182019161114b565b820191906000526020600020905b815481529060010190602001808311611137575b5050915050604051809103902060001916145b1561116c576001915061117e565b8080600101915050610fde565b600091505b50919050565b60008173ffffffffffffffffffffffffffffffffffffffff16319050919050565b60006111af614358565b6000610120604051908101604052806040805190810160405280600481526020017f6d6461740000000000000000000000000000000000000000000000000000000081525081526020016040805190810160405280600481526020017f6d6f6f760000000000000000000000000000000000000000000000000000000081525081526020016040805190810160405280600481526020017f756474610000000000000000000000000000000000000000000000000000000081525081526020016040805190810160405280600481526020017f7472616b0000000000000000000000000000000000000000000000000000000081525081526020016040805190810160405280600481526020017f6d6469610000000000000000000000000000000000000000000000000000000081525081526020016040805190810160405280600481526020017f6d696e660000000000000000000000000000000000000000000000000000000081525081526020016040805190810160405280600481526020017f64696e660000000000000000000000000000000000000000000000000000000081525081526020016040805190810160405280600481526020017f7374626c0000000000000000000000000000000000000000000000000000000081525081526020016040805190810160405280600481526020017f65647473000000000000000000000000000000000000000000000000000000008152508152509150600090505b60098110156114db5781816009811015156113ed57fe5b60200201516040518082805190602001908083835b6020831015156114275780518252602082019150602081019050602083039250611402565b6001836020036101000a038019825116818451168082178552505050505050905001915050604051809103902060001916846040518082805190602001908083835b60208310151561148e5780518252602082019150602081019050602083039250611469565b6001836020036101000a03801982511681845116808217855250505050505090500191505060405180910390206000191614156114ce57600192506114e0565b80806001019150506113d6565b600092505b5050919050565b6114ef6141a2565b6114f76141a2565b86826000018190525084600081518110151561150f57fe5b90602001906020020151826020018190525083600081518110151561153057fe5b90602001906020020151826040018190525082826060018190525033826080019073ffffffffffffffffffffffffffffffffffffffff16908173ffffffffffffffffffffffffffffffffffffffff1681525050600161158e83610fd6565b141515611682576003829080600181540180825580915050906001820390600052602060002090600502016000909192909190915060008201518160000190805190602001906115df9291906141e8565b5060208201518160010190805190602001906115fc929190614248565b506040820151816002019080519060200190611619929190614248565b506060820151816003019080519060200190611636929190614248565b5060808201518160040160006101000a81548173ffffffffffffffffffffffffffffffffffffffff021916908373ffffffffffffffffffffffffffffffffffffffff1602179055505050505b85816000018190525084600181518110151561169a57fe5b9060200190602002015181602001819052508360018151811015156116bb57fe5b90602001906020020151816040018190525082816060018190525033816080019073ffffffffffffffffffffffffffffffffffffffff16908173ffffffffffffffffffffffffffffffffffffffff1681525050600161171982610fd6565b14151561180d5760038190806001815401808255809150509060018203906000526020600020906005020160009091929091909150600082015181600001908051906020019061176a9291906141e8565b506020820151816001019080519060200190611787929190614248565b5060408201518160020190805190602001906117a4929190614248565b5060608201518160030190805190602001906117c1929190614248565b5060808201518160040160006101000a81548173ffffffffffffffffffffffffffffffffffffffff021916908373ffffffffffffffffffffffffffffffffffffffff1602179055505050505b60046060604051908101604052808481526020018381526020018a8152509080600181540180825580915050906001820390600052602060002090600b020160009091929091909150600082015181600001600082015181600001908051906020019061187b9291906141e8565b506020820151816001019080519060200190611898929190614248565b5060408201518160020190805190602001906118b5929190614248565b5060608201518160030190805190602001906118d2929190614248565b5060808201518160040160006101000a81548173ffffffffffffffffffffffffffffffffffffffff021916908373ffffffffffffffffffffffffffffffffffffffff160217905550505060208201518160050160008201518160000190805190602001906119419291906141e8565b50602082015181600101908051906020019061195e929190614248565b50604082015181600201908051906020019061197b929190614248565b506060820151816003019080519060200190611998929190614248565b5060808201518160040160006101000a81548173ffffffffffffffffffffffffffffffffffffffff021916908373ffffffffffffffffffffffffffffffffffffffff1602179055505050604082015181600a0190805190602001906119fe929190614248565b505050505050505050505050565b6000809054906101000a900473ffffffffffffffffffffffffffffffffffffffff1681565b6000806000809150600090505b8351811015611a7d5760018482815181101515611a5757fe5b906020019060200201511415611a705781806001019250505b8080600101915050611a3e565b8192505050919050565b611a8f614381565b60006060806000611a9e614381565b6000806064604051908082528060200260200182016040528015611ad657816020015b6060815260200190600190039081611ac15790505b5083600001819052506064604051908082528060200260200182016040528015611b0f5781602001602082028038833980820191505090505b50836020018190525060009150600890505b885181101561214e578873__Strings_______________________________631dcd9b55909183600885016040518463ffffffff167c0100000000000000000000000000000000000000000000000000000000028152600401611b8693929190615a6e565b60006040518083038186803b158015611b9e57600080fd5b505af4158015611bb2573d6000803e3d6000fd5b505050506040513d6000823e3d601f19601f82011682018060405250611bdb9190810190614f4f565b955060405180807f613900000000000000000000000000000000000000000000000000000000000081525060020190506040518091039020600019168673__Strings_______________________________631dcd9b559091600060026040518463ffffffff167c0100000000000000000000000000000000000000000000000000000000028152600401611c729392919061597d565b60006040518083038186803b158015611c8a57600080fd5b505af4158015611c9e573d6000803e3d6000fd5b505050506040513d6000823e3d601f19601f82011682018060405250611cc79190810190614f4f565b6040518082805190602001908083835b602083101515611cfc5780518252602082019150602081019050602083039250611cd7565b6001836020036101000a0380198251168184511680821785525050505050509050019150506040518091039020600019161415611e2d57611e2a8673__Strings_______________________________631dcd9b559091600260086040518463ffffffff167c0100000000000000000000000000000000000000000000000000000000028152600401611d91939291906159f9565b60006040518083038186803b158015611da957600080fd5b505af4158015611dbd573d6000803e3d6000fd5b505050506040513d6000823e3d601f19601f82011682018060405250611de69190810190614f4f565b6040805190810160405280600681526020017f6532393339320000000000000000000000000000000000000000000000000000815250613fd190919063ffffffff16565b95505b8573__Strings_______________________________638e7e34d790916040518263ffffffff167c0100000000000000000000000000000000000000000000000000000000028152600401611e82919061595b565b60006040518083038186803b158015611e9a57600080fd5b505af4158015611eae573d6000803e3d6000fd5b505050506040513d6000823e3d601f19601f82011682018060405250611ed79190810190614ecd565b945084836000015183815181101515611eec57fe5b9060200190602002018190525080836020015183806001019450815181101515611f1257fe5b9060200190602002018181525050611f29856111a5565b1515612142578873__Strings_______________________________631dcd9b55909160088403846040518463ffffffff167c0100000000000000000000000000000000000000000000000000000000028152600401611f8b93929190615a6e565b60006040518083038186803b158015611fa357600080fd5b505af4158015611fb7573d6000803e3d6000fd5b505050506040513d6000823e3d601f19601f82011682018060405250611fe09190810190614f4f565b95508573__Strings_______________________________638e7e34d790916040518263ffffffff167c0100000000000000000000000000000000000000000000000000000000028152600401612037919061595b565b60006040518083038186803b15801561204f57600080fd5b505af4158015612063573d6000803e3d6000fd5b505050506040513d6000823e3d601f19601f8201168201806040525061208c9190810190614ecd565b945060028573__BytesUtil_____________________________6302d06d0590916040518263ffffffff167c01000000000000000000000000000000000000000000000000000000000281526004016120e59190615939565b60206040518083038186803b1580156120fd57600080fd5b505af4158015612111573d6000803e3d6000fd5b505050506040513d601f19601f8201168201806040525061213591908101906151bb565b0293508381019050612149565b6010810190505b611b21565b828297509750505050505050915091565b612167614381565b60006060806000612176614381565b6000806000915060646040519080825280602002602001820160405280156121b257816020015b606081526020019060019003908161219d5790505b50836000018190525060646040519080825280602002602001820160405280156121eb5781602001602082028038833980820191505090505b508360200181905250600090505b885181101561277e578873__Strings_______________________________631dcd9b55909183600885016040518463ffffffff167c010000000000000000000000000000000000000000000000000000000002815260040161225e93929190615a6e565b60006040518083038186803b15801561227657600080fd5b505af415801561228a573d6000803e3d6000fd5b505050506040513d6000823e3d601f19601f820116820180604052506122b39190810190614f4f565b95508573__Strings_______________________________638e7e34d790916040518263ffffffff167c010000000000000000000000000000000000000000000000000000000002815260040161230a919061595b565b60006040518083038186803b15801561232257600080fd5b505af4158015612336573d6000803e3d6000fd5b505050506040513d6000823e3d601f19601f8201168201806040525061235f9190810190614ecd565b945060405180807f52494646000000000000000000000000000000000000000000000000000000008152506004019050604051809103902060001916856040518082805190602001908083835b6020831015156123d157805182526020820191506020810190506020830392506123ac565b6001836020036101000a03801982511681845116808217855250505050505090500191505060405180910390206000191614806124ac575060405180807f4c495354000000000000000000000000000000000000000000000000000000008152506004019050604051809103902060001916856040518082805190602001908083835b6020831015156124795780518252602082019150602081019050602083039250612454565b6001836020036101000a038019825116818451168082178552505050505050905001915050604051809103902060001916145b15612668576010810190508873__Strings_______________________________631dcd9b55909183600885016040518463ffffffff167c010000000000000000000000000000000000000000000000000000000002815260040161251393929190615a6e565b60006040518083038186803b15801561252b57600080fd5b505af415801561253f573d6000803e3d6000fd5b505050506040513d6000823e3d601f19601f820116820180604052506125689190810190614f4f565b95508573__Strings_______________________________638e7e34d790916040518263ffffffff167c01000000000000000000000000000000000000000000000000000000000281526004016125bf919061595b565b60006040518083038186803b1580156125d757600080fd5b505af41580156125eb573d6000803e3d6000fd5b505050506040513d6000823e3d601f19601f820116820180604052506126149190810190614ecd565b94508483600001518381518110151561262957fe5b906020019060200201819052508083602001518380600101945081518110151561264f57fe5b9060200190602002018181525050600881019050612779565b8483600001518381518110151561267b57fe5b90602001906020020181905250808360200151838060010194508151811015156126a157fe5b906020019060200201818152505060088101905061276e8973__Strings_______________________________631dcd9b55909184600886016040518463ffffffff167c010000000000000000000000000000000000000000000000000000000002815260040161271493929190615a6e565b60006040518083038186803b15801561272c57600080fd5b505af4158015612740573d6000803e3d6000fd5b505050506040513d6000823e3d601f19601f820116820180604052506127699190810190614f4f565b610da7565b935083600882010190505b6121f9565b828297509750505050505050915091565b565b60608060606000806060806003805490506040519080825280602002602001820160405280156127d05781602001602082028038833980820191505090505b509450600093505b600380549050841015612981578773ffffffffffffffffffffffffffffffffffffffff1660038581548110151561280b57fe5b906000526020600020906005020160040160009054906101000a900473ffffffffffffffffffffffffffffffffffffffff1673ffffffffffffffffffffffffffffffffffffffff161480156129505750886040518082805190602001908083835b602083101515612891578051825260208201915060208101905060208303925061286c565b6001836020036101000a0380198251168184511680821785525050505050509050019150506040518091039020600019166003858154811015156128d157fe5b9060005260206000209060050201600101604051808280546001816001161561010002031660029004801561293d5780601f1061291b57610100808354040283529182019161293d565b820191906000526020600020905b815481529060010190602001808311612929575b5050915050604051809103902060001916145b15612974576001858581518110151561296557fe5b90602001906020020181815250505b83806001019450506127d8565b61298a85611a31565b9250826040519080825280602002602001820160405280156129c657816020015b6129b36142c8565b8152602001906001900390816129ab5790505b50915060009250600093505b600380549050841015612d7c57600185858151811015156129ef57fe5b906020019060200201511415612d6f57600384815481101515612a0e57fe5b906000526020600020906005020160a0604051908101604052908160008201805480602002602001604051908101604052809291908181526020016000905b82821015612b09578382906000526020600020018054600181600116156101000203166002900480601f016020809104026020016040519081016040528092919081815260200182805460018160011615610100020316600290048015612af55780601f10612aca57610100808354040283529160200191612af5565b820191906000526020600020905b815481529060010190602001808311612ad857829003601f168201915b505050505081526020019060010190612a4d565b505050508152602001600182018054600181600116156101000203166002900480601f016020809104026020016040519081016040528092919081815260200182805460018160011615610100020316600290048015612baa5780601f10612b7f57610100808354040283529160200191612baa565b820191906000526020600020905b815481529060010190602001808311612b8d57829003601f168201915b50505050508152602001600282018054600181600116156101000203166002900480601f016020809104026020016040519081016040528092919081815260200182805460018160011615610100020316600290048015612c4c5780601f10612c2157610100808354040283529160200191612c4c565b820191906000526020600020905b815481529060010190602001808311612c2f57829003601f168201915b50505050508152602001600382018054600181600116156101000203166002900480601f016020809104026020016040519081016040528092919081815260200182805460018160011615610100020316600290048015612cee5780601f10612cc357610100808354040283529160200191612cee565b820191906000526020600020905b815481529060010190602001808311612cd157829003601f168201915b505050505081526020016004820160009054906101000a900473ffffffffffffffffffffffffffffffffffffffff1673ffffffffffffffffffffffffffffffffffffffff1673ffffffffffffffffffffffffffffffffffffffff16815250508284806001019550815181101515612d6157fe5b906020019060200201819052505b83806001019450506129d2565b600480549050604051908082528060200260200182016040528015612db05781602001602082028038833980820191505090505b509450600093505b6004805490508410156130df578773ffffffffffffffffffffffffffffffffffffffff16600485815481101515612deb57fe5b90600052602060002090600b020160050160040160009054906101000a900473ffffffffffffffffffffffffffffffffffffffff1673ffffffffffffffffffffffffffffffffffffffff16148015612f365750886040518082805190602001908083835b602083101515612e745780518252602082019150602081019050602083039250612e4f565b6001836020036101000a038019825116818451168082178552505050505050905001915050604051809103902060001916600485815481101515612eb457fe5b90600052602060002090600b02016005016001016040518082805460018160011615610100020316600290048015612f235780601f10612f01576101008083540402835291820191612f23565b820191906000526020600020905b815481529060010190602001808311612f0f575b5050915050604051809103902060001916145b806130ae57508773ffffffffffffffffffffffffffffffffffffffff16600485815481101515612f6257fe5b90600052602060002090600b020160000160040160009054906101000a900473ffffffffffffffffffffffffffffffffffffffff1673ffffffffffffffffffffffffffffffffffffffff161480156130ad5750886040518082805190602001908083835b602083101515612feb5780518252602082019150602081019050602083039250612fc6565b6001836020036101000a03801982511681845116808217855250505050505090500191505060405180910390206000191660048581548110151561302b57fe5b90600052602060002090600b0201600001600101604051808280546001816001161561010002031660029004801561309a5780601f1061307857610100808354040283529182019161309a565b820191906000526020600020905b815481529060010190602001808311613086575b5050915050604051809103902060001916145b5b156130d257600185858151811015156130c357fe5b90602001906020020181815250505b8380600101945050612db8565b6130e885611a31565b92508260405190808252806020026020018201604052801561312457816020015b61311161439b565b8152602001906001900390816131095790505b50905060009250600093505b6004805490508410156138cb576001858581518110151561314d57fe5b9060200190602002015114156138be5760048481548110151561316c57fe5b90600052602060002090600b0201606060405190810160405290816000820160a0604051908101604052908160008201805480602002602001604051908101604052809291908181526020016000905b82821015613278578382906000526020600020018054600181600116156101000203166002900480601f0160208091040260200160405190810160405280929190818152602001828054600181600116156101000203166002900480156132645780601f1061323957610100808354040283529160200191613264565b820191906000526020600020905b81548152906001019060200180831161324757829003601f168201915b5050505050815260200190600101906131bc565b505050508152602001600182018054600181600116156101000203166002900480601f0160208091040260200160405190810160405280929190818152602001828054600181600116156101000203166002900480156133195780601f106132ee57610100808354040283529160200191613319565b820191906000526020600020905b8154815290600101906020018083116132fc57829003601f168201915b50505050508152602001600282018054600181600116156101000203166002900480601f0160208091040260200160405190810160405280929190818152602001828054600181600116156101000203166002900480156133bb5780601f10613390576101008083540402835291602001916133bb565b820191906000526020600020905b81548152906001019060200180831161339e57829003601f168201915b50505050508152602001600382018054600181600116156101000203166002900480601f01602080910402602001604051908101604052809291908181526020018280546001816001161561010002031660029004801561345d5780601f106134325761010080835404028352916020019161345d565b820191906000526020600020905b81548152906001019060200180831161344057829003601f168201915b505050505081526020016004820160009054906101000a900473ffffffffffffffffffffffffffffffffffffffff1673ffffffffffffffffffffffffffffffffffffffff1673ffffffffffffffffffffffffffffffffffffffff168152505081526020016005820160a0604051908101604052908160008201805480602002602001604051908101604052809291908181526020016000905b828210156135b2578382906000526020600020018054600181600116156101000203166002900480601f01602080910402602001604051908101604052809291908181526020018280546001816001161561010002031660029004801561359e5780601f106135735761010080835404028352916020019161359e565b820191906000526020600020905b81548152906001019060200180831161358157829003601f168201915b5050505050815260200190600101906134f6565b505050508152602001600182018054600181600116156101000203166002900480601f0160208091040260200160405190810160405280929190818152602001828054600181600116156101000203166002900480156136535780601f1061362857610100808354040283529160200191613653565b820191906000526020600020905b81548152906001019060200180831161363657829003601f168201915b50505050508152602001600282018054600181600116156101000203166002900480601f0160208091040260200160405190810160405280929190818152602001828054600181600116156101000203166002900480156136f55780601f106136ca576101008083540402835291602001916136f5565b820191906000526020600020905b8154815290600101906020018083116136d857829003601f168201915b50505050508152602001600382018054600181600116156101000203166002900480601f0160208091040260200160405190810160405280929190818152602001828054600181600116156101000203166002900480156137975780601f1061376c57610100808354040283529160200191613797565b820191906000526020600020905b81548152906001019060200180831161377a57829003601f168201915b505050505081526020016004820160009054906101000a900473ffffffffffffffffffffffffffffffffffffffff1673ffffffffffffffffffffffffffffffffffffffff1673ffffffffffffffffffffffffffffffffffffffff16815250508152602001600a82018054600181600116156101000203166002900480601f0160208091040260200160405190810160405280929190818152602001828054600181600116156101000203166002900480156138935780601f1061386857610100808354040283529160200191613893565b820191906000526020600020905b81548152906001019060200180831161387657829003601f168201915b50505050508152505081848060010195508151811015156138b057fe5b906020019060200201819052505b8380600101945050613130565b81819650965050505050509250929050565b6138e5614381565b6138ed614381565b60008360405190808252806020026020018201604052801561392357816020015b606081526020019060019003908161390e5790505b5082600001819052508360405190808252806020026020018201604052801561395b5781602001602082028038833980820191505090505b508260200181905250600090505b838110156139f55784600001518181518110151561398357fe5b9060200190602002015182600001518281518110151561399f57fe5b906020019060200201819052508460200151818151811015156139be57fe5b906020019060200201518260200151828151811015156139da57fe5b90602001906020020181815250508080600101915050613969565b819250505092915050565b60606000606080613a0f614381565b60008673__Strings_______________________________631dcd9b559091600060086040518463ffffffff167c0100000000000000000000000000000000000000000000000000000000028152600401613a6c939291906159bb565b60006040518083038186803b158015613a8457600080fd5b505af4158015613a98573d6000803e3d6000fd5b505050506040513d6000823e3d601f19601f82011682018060405250613ac19190810190614f4f565b73__Strings_______________________________638e7e34d790916040518263ffffffff167c0100000000000000000000000000000000000000000000000000000000028152600401613b15919061595b565b60006040518083038186803b158015613b2d57600080fd5b505af4158015613b41573d6000803e3d6000fd5b505050506040513d6000823e3d601f19601f82011682018060405250613b6a9190810190614ecd565b935060405180807f52494646000000000000000000000000000000000000000000000000000000008152506004019050604051809103902060001916846040518082805190602001908083835b602083101515613bdc5780518252602082019150602081019050602083039250613bb7565b6001836020036101000a0380198251168184511680821785525050505050509050019150506040518091039020600019161415613d0c57613c1c8761215f565b8092508193505050613c2e82826138dd565b9150600260009054906101000a900473ffffffffffffffffffffffffffffffffffffffff1673ffffffffffffffffffffffffffffffffffffffff16628aeecd88846040518363ffffffff167c0100000000000000000000000000000000000000000000000000000000028152600401613ca8929190615a37565b600060405180830381600087803b158015613cc257600080fd5b505af1158015613cd6573d6000803e3d6000fd5b505050506040513d6000823e3d601f19601f82011682018060405250613cff9190810190614df7565b8092508194505050613e01565b613d1587611a87565b8092508193505050613d2782826138dd565b9150600160009054906101000a900473ffffffffffffffffffffffffffffffffffffffff1673ffffffffffffffffffffffffffffffffffffffff16628aeecd88846040518363ffffffff167c0100000000000000000000000000000000000000000000000000000000028152600401613da1929190615a37565b600060405180830381600087803b158015613dbb57600080fd5b505af1158015613dcf573d6000803e3d6000fd5b505050506040513d6000823e3d601f19601f82011682018060405250613df89190810190614df7565b80925081945050505b82819550955050505050915091565b6000809054906101000a900473ffffffffffffffffffffffffffffffffffffffff1673ffffffffffffffffffffffffffffffffffffffff163373ffffffffffffffffffffffffffffffffffffffff16141515613ea1576040517f08c379a0000000000000000000000000000000000000000000000000000000008152600401613e9890615aac565b60405180910390fd5b600073ffffffffffffffffffffffffffffffffffffffff168173ffffffffffffffffffffffffffffffffffffffff1614151515613f13576040517f08c379a0000000000000000000000000000000000000000000000000000000008152600401613f0a90615aac565b60405180910390fd5b8073ffffffffffffffffffffffffffffffffffffffff166000809054906101000a900473ffffffffffffffffffffffffffffffffffffffff1673ffffffffffffffffffffffffffffffffffffffff167f8be0079c531659141344cd1fd0a4f28419497f9722a3daafe3b4186f6b6457e060405160405180910390a3806000806101000a81548173ffffffffffffffffffffffffffffffffffffffff021916908373ffffffffffffffffffffffffffffffffffffffff16021790555050565b606080606080606060008088955087945084518651016040519080825280601f01601f1916602001820160405280156140195781602001602082028038833980820191505090505b50935083925060009050600091505b85518210156140db57858281518110151561403f57fe5b9060200101517f010000000000000000000000000000000000000000000000000000000000000090047f010000000000000000000000000000000000000000000000000000000000000002838280600101935081518110151561409e57fe5b9060200101907effffffffffffffffffffffffffffffffffffffffffffffffffffffffffffff1916908160001a9053508180600101925050614028565b600091505b84518210156141935784828151811015156140f757fe5b9060200101517f010000000000000000000000000000000000000000000000000000000000000090047f010000000000000000000000000000000000000000000000000000000000000002838280600101935081518110151561415657fe5b9060200101907effffffffffffffffffffffffffffffffffffffffffffffffffffffffffffff1916908160001a90535081806001019250506140e0565b82965050505050505092915050565b60a06040519081016040528060608152602001606081526020016060815260200160608152602001600073ffffffffffffffffffffffffffffffffffffffff1681525090565b828054828255906000526020600020908101928215614237579160200282015b82811115614236578251829080519060200190614226929190614248565b5091602001919060010190614208565b5b50905061424491906143ca565b5090565b828054600181600116156101000203166002900490600052602060002090601f016020900481019282601f1061428957805160ff19168380011785556142b7565b828001600101855582156142b7579182015b828111156142b657825182559160200191906001019061429b565b5b5090506142c491906143f6565b5090565b60a06040519081016040528060608152602001606081526020016060815260200160608152602001600073ffffffffffffffffffffffffffffffffffffffff1681525090565b61018060405190810160405280600063ffffffff168152602001600063ffffffff16815260200160608152602001606081526020016060815260200161435261441b565b81525090565b610120604051908101604052806009905b60608152602001906001900390816143695790505090565b604080519081016040528060608152602001606081525090565b610160604051908101604052806143b06142c8565b81526020016143bd6142c8565b8152602001606081525090565b6143f391905b808211156143ef57600081816143e69190614463565b506001016143d0565b5090565b90565b61441891905b808211156144145760008160009055506001016143fc565b5090565b90565b60e060405190810160405280600060ff168152602001600060ff1681526020016000800b81526020016000800b81526020016060815260200160608152602001606081525090565b50805460018160011615610100020316600290046000825580601f1061448957506144a8565b601f0160209004906000526020600020908101906144a791906143f6565b5b50565b60006144b78235615e11565b905092915050565b600082601f83011215156144d257600080fd5b81356144e56144e082615b66565b615b39565b9150818183526020840193506020810190508360005b8381101561452b5781358601614511888261480b565b8452602084019350602083019250506001810190506144fb565b5050505092915050565b600082601f830112151561454857600080fd5b813561455b61455682615b8e565b615b39565b9150818183526020840193506020810190508360005b838110156145a15781358601614587888261480b565b845260208401935060208301925050600181019050614571565b5050505092915050565b600082601f83011215156145be57600080fd5b81516145d16145cc82615b8e565b615b39565b9150818183526020840193506020810190508360005b8381101561461757815186016145fd8882614861565b8452602084019350602083019250506001810190506145e7565b5050505092915050565b600082601f830112151561463457600080fd5b815161464761464282615bb6565b615b39565b9150818183526020840193506020810190508360005b8381101561468d57815186016146738882614ad7565b84526020840193506020830192505060018101905061465d565b5050505092915050565b600082601f83011215156146aa57600080fd5b81356146bd6146b882615bde565b615b39565b915081818352602084019350602081019050838560208402820111156146e257600080fd5b60005b8381101561471257816146f88882614cbb565b8452602084019350602083019250506001810190506146e5565b5050505092915050565b600082601f830112151561472f57600080fd5b813561474261473d82615c06565b615b39565b9150818183526020840193506020810190508385602084028201111561476757600080fd5b60005b83811015614797578161477d8882614cbb565b84526020840193506020830192505060018101905061476a565b5050505092915050565b600082601f83011215156147b457600080fd5b81516147c76147c282615c2e565b615b39565b915080825260208301602083018583830111156147e357600080fd5b6147ee838284615eaa565b50505092915050565b60006148038251615e31565b905092915050565b600082601f830112151561481e57600080fd5b813561483161482c82615c5a565b615b39565b9150808252602083016020830185838301111561484d57600080fd5b614858838284615e9b565b50505092915050565b600082601f830112151561487457600080fd5b815161488761488282615c5a565b615b39565b915080825260208301602083018583830111156148a357600080fd5b6148ae838284615eaa565b50505092915050565b600082601f83011215156148ca57600080fd5b81356148dd6148d882615c86565b615b39565b915080825260208301602083018583830111156148f957600080fd5b614904838284615e9b565b50505092915050565b600082601f830112151561492057600080fd5b815161493361492e82615c86565b615b39565b9150808252602083016020830185838301111561494f57600080fd5b61495a838284615eaa565b50505092915050565b60006040828403121561497557600080fd5b61497f6040615b39565b9050600082013567ffffffffffffffff81111561499b57600080fd5b6149a7848285016144bf565b600083015250602082013567ffffffffffffffff8111156149c757600080fd5b6149d384828501614697565b60208301525092915050565b600060e082840312156149f157600080fd5b6149fb60e0615b39565b90506000614a0b84828501614cf7565b6000830152506020614a1f84828501614cf7565b6020830152506040614a33848285016147f7565b6040830152506060614a47848285016147f7565b606083015250608082015167ffffffffffffffff811115614a6757600080fd5b614a7384828501614861565b60808301525060a082015167ffffffffffffffff811115614a9357600080fd5b614a9f84828501614861565b60a08301525060c082015167ffffffffffffffff811115614abf57600080fd5b614acb84828501614861565b60c08301525092915050565b600060c08284031215614ae957600080fd5b614af360c0615b39565b90506000614b0384828501614ce3565b6000830152506020614b1784828501614ce3565b602083015250604082015167ffffffffffffffff811115614b3757600080fd5b614b4384828501614861565b604083015250606082015167ffffffffffffffff811115614b6357600080fd5b614b6f84828501614861565b606083015250608082015167ffffffffffffffff811115614b8f57600080fd5b614b9b84828501614861565b60808301525060a082015167ffffffffffffffff811115614bbb57600080fd5b614bc7848285016149df565b60a08301525092915050565b600060a08284031215614be557600080fd5b614bef60a0615b39565b9050600082013567ffffffffffffffff811115614c0b57600080fd5b614c17848285016144bf565b600083015250602082013567ffffffffffffffff811115614c3757600080fd5b614c438482850161480b565b602083015250604082013567ffffffffffffffff811115614c6357600080fd5b614c6f8482850161480b565b604083015250606082013567ffffffffffffffff811115614c8f57600080fd5b614c9b8482850161480b565b6060830152506080614caf848285016144ab565b60808301525092915050565b6000614cc78235615e3e565b905092915050565b6000614cdb8251615e3e565b905092915050565b6000614cef8251615e48565b905092915050565b6000614d038251615e58565b905092915050565b600060208284031215614d1d57600080fd5b6000614d2b848285016144ab565b91505092915050565b60008060008060808587031215614d4a57600080fd5b600085013567ffffffffffffffff811115614d6457600080fd5b614d7087828801614535565b945050602085013567ffffffffffffffff811115614d8d57600080fd5b614d99878288016148b7565b935050604085013567ffffffffffffffff811115614db657600080fd5b614dc2878288016148b7565b925050606085013567ffffffffffffffff811115614ddf57600080fd5b614deb878288016148b7565b91505092959194509250565b60008060408385031215614e0a57600080fd5b600083015167ffffffffffffffff811115614e2457600080fd5b614e30858286016145ab565b9250506020614e4185828601614ccf565b9150509250929050565b600060208284031215614e5d57600080fd5b600082015167ffffffffffffffff811115614e7757600080fd5b614e8384828501614621565b91505092915050565b600060208284031215614e9e57600080fd5b600082013567ffffffffffffffff811115614eb857600080fd5b614ec48482850161471c565b91505092915050565b600060208284031215614edf57600080fd5b600082015167ffffffffffffffff811115614ef957600080fd5b614f05848285016147a1565b91505092915050565b600060208284031215614f2057600080fd5b600082013567ffffffffffffffff811115614f3a57600080fd5b614f46848285016148b7565b91505092915050565b600060208284031215614f6157600080fd5b600082015167ffffffffffffffff811115614f7b57600080fd5b614f878482850161490d565b91505092915050565b60008060408385031215614fa357600080fd5b600083013567ffffffffffffffff811115614fbd57600080fd5b614fc9858286016148b7565b9250506020614fda858286016144ab565b9150509250929050565b60008060008060008060c08789031215614ffd57600080fd5b600087013567ffffffffffffffff81111561501757600080fd5b61502389828a016148b7565b965050602087013567ffffffffffffffff81111561504057600080fd5b61504c89828a01614535565b955050604087013567ffffffffffffffff81111561506957600080fd5b61507589828a01614535565b945050606087013567ffffffffffffffff81111561509257600080fd5b61509e89828a01614535565b935050608087013567ffffffffffffffff8111156150bb57600080fd5b6150c789828a01614535565b92505060a087013567ffffffffffffffff8111156150e457600080fd5b6150f089828a016148b7565b9150509295509295509295565b6000806040838503121561511057600080fd5b600083013567ffffffffffffffff81111561512a57600080fd5b61513685828601614963565b925050602061514785828601614cbb565b9150509250929050565b60006020828403121561516357600080fd5b600082013567ffffffffffffffff81111561517d57600080fd5b61518984828501614bd3565b91505092915050565b6000602082840312156151a457600080fd5b60006151b284828501614cbb565b91505092915050565b6000602082840312156151cd57600080fd5b60006151db84828501614ccf565b91505092915050565b6151ed81615db1565b82525050565b60006151fe82615d0b565b8084526020840193508360208202850161521785615cbf565b60005b84811015615250578383038852615232838351615561565b925061523d82615d70565b915060208801975060018101905061521a565b508196508694505050505092915050565b600061526c82615d00565b8084526020840193508360208202850161528585615cb2565b60005b848110156152be5783830388526152a0838351615561565b92506152ab82615d63565b9150602088019750600181019050615288565b508196508694505050505092915050565b60006152da82615d16565b808452602084019350836020820285016152f385615ccc565b60005b8481101561532c57838303885261530e838351615695565b925061531982615d7d565b91506020880197506001810190506152f6565b508196508694505050505092915050565b600061534882615d21565b8084526020840193508360208202850161536185615cd9565b60005b8481101561539a57838303885261537c838351615733565b925061538782615d8a565b9150602088019750600181019050615364565b508196508694505050505092915050565b60006153b682615d2c565b808452602084019350836020820285016153cf85615ce6565b60005b848110156154085783830388526153ea838351615791565b92506153f582615d97565b91506020880197506001810190506153d2565b508196508694505050505092915050565b600061542482615d37565b80845260208401935061543683615cf3565b60005b828110156154685761544c86835161581c565b61545582615da4565b9150602086019550600181019050615439565b50849250505092915050565b61547d81615dd1565b82525050565b600061548e82615d42565b8084526154a2816020860160208601615eaa565b6154ab81615edd565b602085010191505092915050565b6154c281615ddd565b82525050565b6154d181615e65565b82525050565b6154e081615e77565b82525050565b6154ef81615e89565b82525050565b600061550082615d58565b808452615514816020860160208601615eaa565b61551d81615edd565b602085010191505092915050565b600061553682615d58565b80845261554a816020860160208601615eaa565b61555381615edd565b602085010191505092915050565b600061556c82615d4d565b808452615580816020860160208601615eaa565b61558981615edd565b602085010191505092915050565b6000808252602082019050919050565b600060408301600083015184820360008601526155c48282615261565b915050602083015184820360208601526155de8282615419565b9150508091505092915050565b600060e0830160008301516156036000860182615849565b5060208301516156166020860182615849565b50604083015161562960408601826154b9565b50606083015161563c60608601826154b9565b50608083015184820360808601526156548282615561565b91505060a083015184820360a086015261566e8282615561565b91505060c083015184820360c08601526156888282615561565b9150508091505092915050565b600060c0830160008301516156ad600086018261583a565b5060208301516156c0602086018261583a565b50604083015184820360408601526156d88282615561565b915050606083015184820360608601526156f28282615561565b9150506080830151848203608086015261570c8282615561565b91505060a083015184820360a086015261572682826155eb565b9150508091505092915050565b600060608301600083015184820360008601526157508282615791565b9150506020830151848203602086015261576a8282615791565b915050604083015184820360408601526157848282615561565b9150508091505092915050565b600060a08301600083015184820360008601526157ae8282615261565b915050602083015184820360208601526157c88282615561565b915050604083015184820360408601526157e28282615561565b915050606083015184820360608601526157fc8282615561565b915050608083015161581160808601826151e4565b508091505092915050565b61582581615dea565b82525050565b61583481615dea565b82525050565b61584381615df4565b82525050565b61585281615e04565b82525050565b600060208201905061586d60008301846151e4565b92915050565b6000604082019050818103600083015261588d81856151f3565b905061589c602083018461581c565b9392505050565b600060208201905081810360008301526158bd81846152cf565b905092915050565b600060208201905081810360008301526158df81846153ab565b905092915050565b6000604082019050818103600083015261590181856153ab565b90508181036020830152615915818461533d565b90509392505050565b60006020820190506159336000830184615474565b92915050565b600060208201905081810360008301526159538184615483565b905092915050565b60006020820190508181036000830152615975818461552b565b905092915050565b60006060820190508181036000830152615997818661552b565b90506159a660208301856154c8565b6159b360408301846154d7565b949350505050565b600060608201905081810360008301526159d5818661552b565b90506159e460208301856154c8565b6159f160408301846154e6565b949350505050565b60006060820190508181036000830152615a13818661552b565b9050615a2260208301856154d7565b615a2f60408301846154e6565b949350505050565b60006040820190508181036000830152615a5181856154f5565b90508181036020830152615a6581846155a7565b90509392505050565b60006060820190508181036000830152615a88818661552b565b9050615a97602083018561582b565b615aa4604083018461582b565b949350505050565b60006020820190508181036000830152615ac581615597565b9050919050565b60006020820190508181036000830152615ae681846155a7565b905092915050565b60006040820190508181036000830152615b0881856155a7565b9050615b17602083018461581c565b9392505050565b6000602082019050615b33600083018461581c565b92915050565b6000604051905081810181811067ffffffffffffffff82111715615b5c57600080fd5b8060405250919050565b600067ffffffffffffffff821115615b7d57600080fd5b602082029050602081019050919050565b600067ffffffffffffffff821115615ba557600080fd5b602082029050602081019050919050565b600067ffffffffffffffff821115615bcd57600080fd5b602082029050602081019050919050565b600067ffffffffffffffff821115615bf557600080fd5b602082029050602081019050919050565b600067ffffffffffffffff821115615c1d57600080fd5b602082029050602081019050919050565b600067ffffffffffffffff821115615c4557600080fd5b601f19601f8301169050602081019050919050565b600067ffffffffffffffff821115615c7157600080fd5b601f19601f8301169050602081019050919050565b600067ffffffffffffffff821115615c9d57600080fd5b601f19601f8301169050602081019050919050565b6000602082019050919050565b6000602082019050919050565b6000602082019050919050565b6000602082019050919050565b6000602082019050919050565b6000602082019050919050565b600081519050919050565b600081519050919050565b600081519050919050565b600081519050919050565b600081519050919050565b600081519050919050565b600081519050919050565b600081519050919050565b600081519050919050565b6000602082019050919050565b6000602082019050919050565b6000602082019050919050565b6000602082019050919050565b6000602082019050919050565b6000602082019050919050565b600073ffffffffffffffffffffffffffffffffffffffff82169050919050565b60008115159050919050565b60008160000b9050919050565b6000819050919050565b600063ffffffff82169050919050565b600060ff82169050919050565b600073ffffffffffffffffffffffffffffffffffffffff82169050919050565b60008160000b9050919050565b6000819050919050565b600063ffffffff82169050919050565b600060ff82169050919050565b6000615e7082615dea565b9050919050565b6000615e8282615dea565b9050919050565b6000615e9482615dea565b9050919050565b82818337600083830152505050565b60005b83811015615ec8578082015181840152602081019050615ead565b83811115615ed7576000848401525b50505050565b6000601f19601f83011690509190505600a265627a7a72305820424b656a63f3868d1899a141b4ea55bb374404feb5fe1f05b950a9c1b8cfe5126c6578706572696d656e74616cf50037",
  "source": "pragma solidity ^0.4.24;\r\npragma experimental ABIEncoderV2;\r\n\r\nimport \"./videoParser.sol\";\r\n\r\ncontract SignatureDB is VideoParser{\r\n\r\n    struct VideoShape {\r\n        string[]    result;         //  \r\n        string      fileHash;       //  \r\n        string      fileName;       // \r\n        string      checkTime;      // \r\n        address     userAddress;    // \r\n    }\r\n\r\n    struct VideoShapeCompare {\r\n        VideoShape   beforeVideo;\r\n        VideoShape   afterVideo;\r\n        string      result;\r\n    }\r\n    \r\n    VideoShape[] videoshapes;\r\n    VideoShapeCompare[] videoshapescompare;\r\n\r\n    function getBalance() public view returns (uint) {\r\n        return address(this).balance;\r\n    }\r\n\r\n    function getBalanceOwner(address own) public view returns (uint) {\r\n        return own.balance;\r\n    }\r\n\r\n    function deposit() public payable { \r\n    }   \r\n\r\n    function singleRegi(string[] result, string fileHash, string fileName, string checkTime) public payable {\r\n        VideoShape memory video;\r\n        video.result = result;\r\n        video.fileHash = fileHash;\r\n        video.fileName = fileName;\r\n        video.checkTime = checkTime;\r\n        video.userAddress = msg.sender;\r\n        videoshapes.push(video);\r\n    }  \r\n\r\n    function twoRegi(string compareResult, string[] result, string[] result2, string[] fileHash, string[] fileName, string checkTime) public payable {\r\n        VideoShape memory beforeVideo;\r\n        beforeVideo.result = result;\r\n        beforeVideo.fileHash = fileHash[0];\r\n        beforeVideo.fileName = fileName[0];\r\n        beforeVideo.checkTime = checkTime;\r\n        beforeVideo.userAddress = msg.sender;\r\n        if(isRegister(beforeVideo) != 1){\r\n            videoshapes.push(beforeVideo);\r\n        }\r\n        VideoShape memory afterVideo;\r\n        afterVideo.result = result2;\r\n        afterVideo.fileHash = fileHash[1];\r\n        afterVideo.fileName = fileName[1];\r\n        afterVideo.checkTime = checkTime;\r\n        afterVideo.userAddress = msg.sender;\r\n        if(isRegister(afterVideo) != 1){\r\n            videoshapes.push(afterVideo);\r\n        }\r\n        videoshapescompare.push(VideoShapeCompare(beforeVideo, afterVideo, compareResult));\r\n    }  \r\n\r\n    function isRegister(VideoShape video) public view returns (uint) {\r\n        for(uint i = 0; i < videoshapes.length; i++){\r\n            if(videoshapes[i].userAddress == video.userAddress && keccak256(bytes(videoshapes[i].fileHash)) == keccak256(bytes(video.fileHash))){\r\n                return 1;\r\n            }\r\n        }\r\n        return 0;\r\n    }\r\n\r\n    function getCount(uint[] memory temp) public pure returns (uint) {\r\n        uint cnt = 0;\r\n        for(uint i = 0; i < temp.length; i++){\r\n            if(temp[i] == 1){\r\n                cnt++;\r\n            }\r\n        }\r\n        return cnt;\r\n    } \r\n\r\n    function getResult(string memory fileHash, address user) public view returns (VideoShape[] memory, VideoShapeCompare[] memory) {\r\n        uint[] memory temp = new uint[](videoshapes.length);\r\n        for(uint i = 0; i < videoshapes.length; i++){\r\n            if(videoshapes[i].userAddress == user && keccak256(bytes(videoshapes[i].fileHash)) == keccak256(bytes(fileHash))){\r\n                temp[i] = 1;\r\n            }\r\n        }\r\n        uint cnt = getCount(temp);\r\n        VideoShape[] memory videotemp = new VideoShape[](cnt);\r\n        cnt = 0;\r\n        for(i = 0; i < videoshapes.length; i++){\r\n            if(temp[i] == 1){\r\n                videotemp[cnt++] = videoshapes[i];\r\n            }\r\n        }\r\n        \r\n        temp = new uint[](videoshapescompare.length);\r\n        for(i = 0; i < videoshapescompare.length; i++){\r\n            if((videoshapescompare[i].afterVideo.userAddress == user && keccak256(bytes(videoshapescompare[i].afterVideo.fileHash)) == keccak256(bytes(fileHash)))\r\n                || (videoshapescompare[i].beforeVideo.userAddress == user && keccak256(bytes(videoshapescompare[i].beforeVideo.fileHash)) == keccak256(bytes(fileHash)))){\r\n                temp[i] = 1;\r\n            }\r\n        }\r\n        cnt = getCount(temp);\r\n        VideoShapeCompare[] memory videocomparetemp = new VideoShapeCompare[](cnt);\r\n        cnt = 0;\r\n        for(i = 0; i < videoshapescompare.length; i++){\r\n            if(temp[i] == 1){\r\n                videocomparetemp[cnt++] = videoshapescompare[i];\r\n            }\r\n        }\r\n\r\n        return (videotemp, videocomparetemp);\r\n    }\r\n\r\n    function displayAllUserData() public view returns (VideoShape[] memory){\r\n        VideoShape[] memory userShapeArr = new VideoShape[](videoshapes.length);\r\n        \r\n        uint cnt = 0;\r\n        for(uint i = 0; i < videoshapes.length; i++){\r\n            userShapeArr[cnt++] = videoshapes[i];\r\n        }\r\n\r\n        return userShapeArr;\r\n    }\r\n\r\n    function transfer(uint _value) public returns (bool) {\r\n        require(getBalance() >= _value, \"\");\r\n        msg.sender.transfer(_value);\r\n        return true;\r\n    }\r\n}",
  "sourcePath": "C:\\Users\\Eunsil\\KlaytnProject\\finalfinalfinalproject\\contracts\\signatureDB.sol",
  "compiler": {
    "name": "solc",
    "version": "0.4.25+commit.59dbf8f1.Emscripten.clang"
  },
  "schemaVersion": "2.0.2",
  "updatedAt": "2019-09-10T09:07:29.686Z"
}