{
  "contractName": "Strings",
  "abi": [
    {
      "constant": true,
      "inputs": [
        {
          "name": "self",
          "type": "string"
        },
        {
          "name": "startIndex",
          "type": "uint256"
        },
        {
          "name": "endIndex",
          "type": "uint256"
        }
      ],
      "name": "substring",
      "outputs": [
        {
          "name": "",
          "type": "string"
        }
      ],
      "payable": false,
      "stateMutability": "pure",
      "type": "function"
    },
    {
      "constant": true,
      "inputs": [
        {
          "name": "c",
          "type": "uint256"
        }
      ],
      "name": "fromHexChar",
      "outputs": [
        {
          "name": "",
          "type": "uint256"
        }
      ],
      "payable": false,
      "stateMutability": "pure",
      "type": "function"
    },
    {
      "constant": true,
      "inputs": [
        {
          "name": "self",
          "type": "string"
        }
      ],
      "name": "fromHex",
      "outputs": [
        {
          "name": "",
          "type": "bytes"
        }
      ],
      "payable": false,
      "stateMutability": "pure",
      "type": "function"
    },
    {
      "constant": true,
      "inputs": [
        {
          "name": "s",
          "type": "string"
        }
      ],
      "name": "stringToUint",
      "outputs": [
        {
          "name": "",
          "type": "uint256"
        }
      ],
      "payable": false,
      "stateMutability": "pure",
      "type": "function"
    },
    {
      "constant": true,
      "inputs": [
        {
          "name": "_haystack",
          "type": "string"
        },
        {
          "name": "_needle",
          "type": "string"
        }
      ],
      "name": "indexOf",
      "outputs": [
        {
          "name": "",
          "type": "int256"
        }
      ],
      "payable": false,
      "stateMutability": "pure",
      "type": "function"
    },
    {
      "constant": true,
      "inputs": [
        {
          "name": "self",
          "type": "string"
        }
      ],
      "name": "reverseValue",
      "outputs": [
        {
          "name": "",
          "type": "string"
        }
      ],
      "payable": false,
      "stateMutability": "pure",
      "type": "function"
    }
  ],
  "bytecode": "0x61135a610030600b82828239805160001a6073146000811461002057610022565bfe5b5030600052607381538281f300730000000000000000000000000000000000000000301460806040526004361061008f576000357c0100000000000000000000000000000000000000000000000000000000900463ffffffff168063171ec7a5146100945780631bd95155146101695780631dcd9b55146101d95780638a0807b7146102c25780638e7e34d714610378578063b73127071461044d575b600080fd5b6100ee600480360381019080803590602001908201803590602001908080601f0160208091040260200160405190810160405280939291908181526020018383808284378201915050505050509192919290505050610481565b6040518080602001828103825283818151815260200191508051906020019080838360005b8381101561012e578082015181840152602081019050610113565b50505050905090810190601f16801561015b5780820380516001836020036101000a031916815260200191505b509250505060405180910390f35b6101c3600480360381019080803590602001908201803590602001908080601f0160208091040260200160405190810160405280939291908181526020018383808284378201915050505050509192919290505050610635565b6040518082815260200191505060405180910390f35b610247600480360381019080803590602001908201803590602001908080601f0160208091040260200160405190810160405280939291908181526020018383808284378201915050505050509192919290803590602001909291908035906020019092919050505061083f565b6040518080602001828103825283818151815260200191508051906020019080838360005b8381101561028757808201518184015260208101905061026c565b50505050905090810190601f1680156102b45780820380516001836020036101000a031916815260200191505b509250505060405180910390f35b610362600480360381019080803590602001908201803590602001908080601f0160208091040260200160405190810160405280939291908181526020018383808284378201915050505050509192919290803590602001908201803590602001908080601f0160208091040260200160405190810160405280939291908181526020018383808284378201915050505050509192919290505050610940565b6040518082815260200191505060405180910390f35b6103d2600480360381019080803590602001908201803590602001908080601f0160208091040260200160405190810160405280939291908181526020018383808284378201915050505050509192919290505050610c5f565b6040518080602001828103825283818151815260200191508051906020019080838360005b838110156104125780820151818401526020810190506103f7565b50505050905090810190601f16801561043f5780820380516001836020036101000a031916815260200191505b509250505060405180910390f35b61046b60048036038101908080359060200190929190505050610ed6565b6040518082815260200191505060405180910390f35b60608060608060008593506000845111151561049957fe5b83516040519080825280601f01601f1916602001820160405280156104cd5781602001602082028038833980820191505090505b509250829150600090505b83518110156106295783818151811015156104ef57fe5b9060200101517f010000000000000000000000000000000000000000000000000000000000000090047f010000000000000000000000000000000000000000000000000000000000000002826002838751030381518110151561054e57fe5b9060200101907effffffffffffffffffffffffffffffffffffffffffffffffffffffffffffff1916908160001a905350836001820181518110151561058f57fe5b9060200101517f010000000000000000000000000000000000000000000000000000000000000090047f01000000000000000000000000000000000000000000000000000000000000000282600183875103038151811015156105ee57fe5b9060200101907effffffffffffffffffffffffffffffffffffffffffffffffffffffffffffff1916908160001a9053506002810190506104d8565b81945050505050919050565b6000606060008084925060009150600090505b82518110156108345760307f010000000000000000000000000000000000000000000000000000000000000002838281518110151561068357fe5b9060200101517f010000000000000000000000000000000000000000000000000000000000000090047f0100000000000000000000000000000000000000000000000000000000000000027effffffffffffffffffffffffffffffffffffffffffffffffffffffffffffff19161015801561079b575060397f010000000000000000000000000000000000000000000000000000000000000002838281518110151561072b57fe5b9060200101517f010000000000000000000000000000000000000000000000000000000000000090047f0100000000000000000000000000000000000000000000000000000000000000027effffffffffffffffffffffffffffffffffffffffffffffffffffffffffffff191611155b1561082757603083828151811015156107b057fe5b9060200101517f010000000000000000000000000000000000000000000000000000000000000090047f0100000000000000000000000000000000000000000000000000000000000000027f0100000000000000000000000000000000000000000000000000000000000000900403600a83020191505b8080600101915050610648565b819350505050919050565b606080606060008692508585036040519080825280601f01601f19166020018201604052801561087e5781602001602082028038833980820191505090505b5091508590505b8481101561093357828181518110151561089b57fe5b9060200101517f010000000000000000000000000000000000000000000000000000000000000090047f010000000000000000000000000000000000000000000000000000000000000002828783038151811015156108f657fe5b9060200101907effffffffffffffffffffffffffffffffffffffffffffffffffffffffffffff1916908160001a9053508080600101915050610885565b8193505050509392505050565b600060608060008086935085925060018451108061095f575060018351105b8061096b575083518351115b15610998577fffffffffffffffffffffffffffffffffffffffffffffffffffffffffffffffff9450610c55565b6fffffffffffffffffffffffffffffffff845111156109d9577fffffffffffffffffffffffffffffffffffffffffffffffffffffffffffffffff9450610c55565b60009150600090505b8351811015610c31578260008151811015156109fa57fe5b9060200101517f010000000000000000000000000000000000000000000000000000000000000090047f0100000000000000000000000000000000000000000000000000000000000000027effffffffffffffffffffffffffffffffffffffffffffffffffffffffffffff19168482815181101515610a7557fe5b9060200101517f010000000000000000000000000000000000000000000000000000000000000090047f0100000000000000000000000000000000000000000000000000000000000000027effffffffffffffffffffffffffffffffffffffffffffffffffffffffffffff19161415610c2457600191505b825182108015610aff57508351828201105b8015610c0057508282815181101515610b1457fe5b9060200101517f010000000000000000000000000000000000000000000000000000000000000090047f0100000000000000000000000000000000000000000000000000000000000000027effffffffffffffffffffffffffffffffffffffffffffffffffffffffffffff191684838301815181101515610b9157fe5b9060200101517f010000000000000000000000000000000000000000000000000000000000000090047f0100000000000000000000000000000000000000000000000000000000000000027effffffffffffffffffffffffffffffffffffffffffffffffffffffffffffff1916145b15610c12578180600101925050610aed565b8251821415610c2357809450610c55565b5b80806001019150506109e2565b7fffffffffffffffffffffffffffffffffffffffffffffffffffffffffffffffff94505b5050505092915050565b60608060606000849250600060028451811515610c7857fe5b06141515610cee576040517f08c379a00000000000000000000000000000000000000000000000000000000081526004018080602001828103825260058152602001807f4572726f7200000000000000000000000000000000000000000000000000000081525060200191505060405180910390fd5b60028351811515610cfb57fe5b046040519080825280601f01601f191660200182016040528015610d2e5781602001602082028038833980820191505090505b509150600090505b60028351811515610d4357fe5b04811015610ecb57610dd58360018360020201815181101515610d6257fe5b9060200101517f010000000000000000000000000000000000000000000000000000000000000090047f0100000000000000000000000000000000000000000000000000000000000000027f01000000000000000000000000000000000000000000000000000000000000009004610ed6565b6010610e5e8584600202815181101515610deb57fe5b9060200101517f010000000000000000000000000000000000000000000000000000000000000090047f0100000000000000000000000000000000000000000000000000000000000000027f01000000000000000000000000000000000000000000000000000000000000009004610ed6565b02017f0100000000000000000000000000000000000000000000000000000000000000028282815181101515610e9057fe5b9060200101907effffffffffffffffffffffffffffffffffffffffffffffffffffffffffffff1916908160001a905350806001019050610d36565b819350505050919050565b60007f30000000000000000000000000000000000000000000000000000000000000007effffffffffffffffffffffffffffffffffffffffffffffffffffffffffffff1916827f0100000000000000000000000000000000000000000000000000000000000000027effffffffffffffffffffffffffffffffffffffffffffffffffffffffffffff191610158015610ff457507f39000000000000000000000000000000000000000000000000000000000000007effffffffffffffffffffffffffffffffffffffffffffffffffffffffffffff1916827f0100000000000000000000000000000000000000000000000000000000000000027effffffffffffffffffffffffffffffffffffffffffffffffffffffffffffff191611155b15611046577f30000000000000000000000000000000000000000000000000000000000000007f0100000000000000000000000000000000000000000000000000000000000000900482039050611329565b7f61000000000000000000000000000000000000000000000000000000000000007effffffffffffffffffffffffffffffffffffffffffffffffffffffffffffff1916827f0100000000000000000000000000000000000000000000000000000000000000027effffffffffffffffffffffffffffffffffffffffffffffffffffffffffffff19161015801561116257507f66000000000000000000000000000000000000000000000000000000000000007effffffffffffffffffffffffffffffffffffffffffffffffffffffffffffff1916827f0100000000000000000000000000000000000000000000000000000000000000027effffffffffffffffffffffffffffffffffffffffffffffffffffffffffffff191611155b156111b7577f61000000000000000000000000000000000000000000000000000000000000007f0100000000000000000000000000000000000000000000000000000000000000900482600a01039050611329565b7f41000000000000000000000000000000000000000000000000000000000000007effffffffffffffffffffffffffffffffffffffffffffffffffffffffffffff1916827f0100000000000000000000000000000000000000000000000000000000000000027effffffffffffffffffffffffffffffffffffffffffffffffffffffffffffff1916101580156112d357507f46000000000000000000000000000000000000000000000000000000000000007effffffffffffffffffffffffffffffffffffffffffffffffffffffffffffff1916827f0100000000000000000000000000000000000000000000000000000000000000027effffffffffffffffffffffffffffffffffffffffffffffffffffffffffffff191611155b15611328577f41000000000000000000000000000000000000000000000000000000000000007f0100000000000000000000000000000000000000000000000000000000000000900482600a01039050611329565b5b9190505600a165627a7a7230582002cc81f2553fdea37a41a7c342ebf30effb07cec6cd4f9f3185c8ba4cafda3740029",
  "source": "pragma solidity ^0.4.24;\r\n\r\nlibrary Strings {\r\n    function substring(string memory self, uint startIndex, uint endIndex) public pure returns (string) {\r\n        bytes memory strBytes = bytes(self);\r\n        bytes memory result = new bytes(endIndex-startIndex);\r\n        for(uint i = startIndex; i < endIndex; i++)\r\n        {\r\n            result[i-startIndex] = strBytes[i];\r\n        }\r\n        return string(result);\r\n    }\r\n\r\n    // Convert an hexadecimal character to their value\r\n    function fromHexChar(uint c) public pure returns (uint) {\r\n        if (byte(c) >= byte('0') && byte(c) <= byte('9')) {\r\n            return c - uint(byte('0'));\r\n        }\r\n        if (byte(c) >= byte('a') && byte(c) <= byte('f')) {\r\n            return 10 + c - uint(byte('a'));\r\n        }\r\n        if (byte(c) >= byte('A') && byte(c) <= byte('F')) {\r\n            return 10 + c - uint(byte('A'));\r\n        }\r\n    }\r\n\r\n    // Convert an hexadecimal string to raw bytes\r\n    function fromHex(string memory self) public pure returns (bytes) {\r\n        bytes memory ss = bytes(self);\r\n        require(ss.length%2 == 0, \"Error\"); // length must be even\r\n        bytes memory r = new bytes(ss.length/2);\r\n        for (uint i = 0; i < ss.length/2; ++i) {\r\n            r[i] = byte(fromHexChar(uint(ss[2*i])) * 16 +\r\n                        fromHexChar(uint(ss[2*i+1])));\r\n        }\r\n        return r;\r\n    }\r\n    \r\n    function stringToUint(string s) public pure returns (uint) {\r\n        bytes memory b = bytes(s);\r\n        uint result = 0;\r\n        for (uint i = 0; i < b.length; i++) { // c = b[i] was not needed\r\n            if (b[i] >= 48 && b[i] <= 57) {\r\n                result = result * 10 + (uint(b[i]) - 48); // bytes and int are not compatible with the operator -.\r\n            }\r\n        }\r\n        return result; // this was missing\r\n    }\r\n\r\n\r\n    function indexOf(string _haystack, string _needle) public pure returns (int) {\r\n    \tbytes memory h = bytes(_haystack);\r\n    \tbytes memory n = bytes(_needle);\r\n    \tif(h.length < 1 || n.length < 1 || (n.length > h.length))\r\n    \t\treturn -1;\r\n    \telse if(h.length > (2**128 - 1)) // since we have to be able to return -1 (if the char isn't found or input error), this function must return an \"int\" type with a max length of (2^128 - 1)\r\n    \t\treturn -1;\r\n    \telse\r\n    \t{\r\n    \t\tuint subindex = 0;\r\n    \t\tfor (uint i = 0; i < h.length; i ++)\r\n    \t\t{\r\n    \t\t\tif (h[i] == n[0]) // found the first char of b\r\n    \t\t\t{\r\n    \t\t\t\tsubindex = 1;\r\n    \t\t\t\twhile(subindex < n.length && (i + subindex) < h.length && h[i + subindex] == n[subindex]) // search until the chars don't match or until we reach the end of a or b\r\n    \t\t\t\t{\r\n    \t\t\t\t\tsubindex++;\r\n    \t\t\t\t}\r\n    \t\t\t\tif(subindex == n.length)\r\n    \t\t\t\t\treturn int(i);\r\n    \t\t\t}\r\n    \t\t}\r\n    \t\treturn -1;\r\n    \t}\r\n    }\r\n\r\n    function reverseValue(string memory self) public pure returns(string) {\r\n        bytes memory _baseBytes = bytes(self);\r\n        assert(_baseBytes.length > 0);\r\n\r\n        string memory _tempValue = new string(_baseBytes.length);\r\n        bytes memory _newValue = bytes(_tempValue);\r\n\r\n\r\n        for(uint i = 0; i < _baseBytes.length; i += 2){\r\n            _newValue[_baseBytes.length - i - 2] = _baseBytes[i];\r\n             _newValue[_baseBytes.length - i - 1] = _baseBytes[i + 1];\r\n        }\r\n\r\n        return string(_newValue);\r\n    }\r\n\r\n    function concat(string self, string _value) internal pure returns (string) {\r\n        bytes memory _baseBytes = bytes(self);\r\n        bytes memory _valueBytes = bytes(_value);\r\n\r\n        string memory _tmpValue = new string(_baseBytes.length + _valueBytes.length);\r\n        bytes memory _newValue = bytes(_tmpValue);\r\n\r\n        uint i;\r\n        uint j = 0;\r\n\r\n        for(i=0; i<_baseBytes.length; i++) {\r\n            _newValue[j++] = _baseBytes[i];\r\n        }\r\n\r\n        for(i=0; i<_valueBytes.length; i++) {\r\n            _newValue[j++] = _valueBytes[i];\r\n        }\r\n\r\n        return string(_newValue);\r\n    }\r\n    \r\n}",
  "sourcePath": "C:\\Users\\Eunsil\\KlaytnProject\\finalfinalfinalproject\\contracts\\strings.sol",
  "compiler": {
    "name": "solc",
    "version": "0.4.25+commit.59dbf8f1.Emscripten.clang"
  },
  "schemaVersion": "2.0.2",
  "updatedAt": "2019-09-10T09:07:06.073Z"
}