{
  "contractName": "VideoParser",
  "abi": [
    {
      "constant": true,
      "inputs": [],
      "name": "getAddress",
      "outputs": [
        {
          "name": "",
          "type": "address"
        }
      ],
      "payable": false,
      "stateMutability": "view",
      "type": "function"
    },
    {
      "constant": true,
      "inputs": [],
      "name": "owner",
      "outputs": [
        {
          "name": "",
          "type": "address"
        }
      ],
      "payable": false,
      "stateMutability": "view",
      "type": "function"
    },
    {
      "constant": false,
      "inputs": [
        {
          "name": "newOwner",
          "type": "address"
        }
      ],
      "name": "transferOwnership",
      "outputs": [],
      "payable": false,
      "stateMutability": "nonpayable",
      "type": "function"
    },
    {
      "anonymous": false,
      "inputs": [
        {
          "indexed": true,
          "name": "previousOwner",
          "type": "address"
        },
        {
          "indexed": true,
          "name": "newOwner",
          "type": "address"
        }
      ],
      "name": "OwnershipTransferred",
      "type": "event"
    },
    {
      "constant": true,
      "inputs": [
        {
          "name": "header",
          "type": "string"
        }
      ],
      "name": "compareResult",
      "outputs": [
        {
          "name": "",
          "type": "string[]"
        },
        {
          "name": "",
          "type": "uint256"
        }
      ],
      "payable": false,
      "stateMutability": "view",
      "type": "function"
    },
    {
      "constant": true,
      "inputs": [
        {
          "components": [
            {
              "name": "idSeq",
              "type": "string[]"
            },
            {
              "name": "idSeqStart",
              "type": "uint256[]"
            }
          ],
          "name": "chunk",
          "type": "tuple"
        },
        {
          "name": "cnt",
          "type": "uint256"
        }
      ],
      "name": "arraySlice",
      "outputs": [
        {
          "components": [
            {
              "name": "idSeq",
              "type": "string[]"
            },
            {
              "name": "idSeqStart",
              "type": "uint256[]"
            }
          ],
          "name": "",
          "type": "tuple"
        }
      ],
      "payable": false,
      "stateMutability": "pure",
      "type": "function"
    },
    {
      "constant": true,
      "inputs": [
        {
          "name": "header",
          "type": "string"
        }
      ],
      "name": "mp4Parser",
      "outputs": [
        {
          "components": [
            {
              "name": "idSeq",
              "type": "string[]"
            },
            {
              "name": "idSeqStart",
              "type": "uint256[]"
            }
          ],
          "name": "",
          "type": "tuple"
        },
        {
          "name": "",
          "type": "uint256"
        }
      ],
      "payable": false,
      "stateMutability": "pure",
      "type": "function"
    },
    {
      "constant": true,
      "inputs": [
        {
          "name": "str",
          "type": "string"
        }
      ],
      "name": "isMp4Child",
      "outputs": [
        {
          "name": "",
          "type": "bool"
        }
      ],
      "payable": false,
      "stateMutability": "pure",
      "type": "function"
    },
    {
      "constant": true,
      "inputs": [
        {
          "name": "header",
          "type": "string"
        }
      ],
      "name": "aviParser",
      "outputs": [
        {
          "components": [
            {
              "name": "idSeq",
              "type": "string[]"
            },
            {
              "name": "idSeqStart",
              "type": "uint256[]"
            }
          ],
          "name": "",
          "type": "tuple"
        },
        {
          "name": "",
          "type": "uint256"
        }
      ],
      "payable": false,
      "stateMutability": "pure",
      "type": "function"
    },
    {
      "constant": true,
      "inputs": [
        {
          "name": "size",
          "type": "string"
        }
      ],
      "name": "getAviFieldSize",
      "outputs": [
        {
          "name": "",
          "type": "uint256"
        }
      ],
      "payable": false,
      "stateMutability": "pure",
      "type": "function"
    },
    {
      "constant": true,
      "inputs": [],
      "name": "displayAllSignatures",
      "outputs": [
        {
          "components": [
            {
              "name": "creatTime",
              "type": "uint32"
            },
            {
              "name": "deleteTime",
              "type": "uint32"
            },
            {
              "name": "itemType",
              "type": "string"
            },
            {
              "name": "itemName",
              "type": "string"
            },
            {
              "name": "idSeq",
              "type": "string"
            },
            {
              "components": [
                {
                  "name": "mark",
                  "type": "uint8"
                },
                {
                  "name": "seq",
                  "type": "uint8"
                },
                {
                  "name": "startOffset",
                  "type": "int8"
                },
                {
                  "name": "fieldSize",
                  "type": "int8"
                },
                {
                  "name": "id",
                  "type": "string"
                },
                {
                  "name": "fieldValue",
                  "type": "string"
                },
                {
                  "name": "valueType",
                  "type": "string"
                }
              ],
              "name": "checkValue",
              "type": "tuple"
            }
          ],
          "name": "",
          "type": "tuple[]"
        }
      ],
      "payable": false,
      "stateMutability": "view",
      "type": "function"
    }
  ],
  "bytecode": "0x60806040527303bbb1ffee2be9485743fac40191ca9856d319c1600160006101000a81548173ffffffffffffffffffffffffffffffffffffffff021916908373ffffffffffffffffffffffffffffffffffffffff160217905550734c6609896274ea3b52f92a79d15be352a18bed65600260006101000a81548173ffffffffffffffffffffffffffffffffffffffff021916908373ffffffffffffffffffffffffffffffffffffffff160217905550336000806101000a81548173ffffffffffffffffffffffffffffffffffffffff021916908373ffffffffffffffffffffffffffffffffffffffff1602179055506134df806100fd6000396000f3006080604052600436106100a4576000357c0100000000000000000000000000000000000000000000000000000000900463ffffffff1680632b9c749b146100a957806338cc4831146100d45780634c90b530146100ff57806388d10a701461013c5780638da5cb5b14610179578063aabadac4146101a4578063b7de5932146101e2578063e771e54014610220578063e8024aa51461025d578063f2fde38b1461029b575b600080fd5b3480156100b557600080fd5b506100be6102c4565b6040516100cb9190612f25565b60405180910390f35b3480156100e057600080fd5b506100e961054f565b6040516100f69190612eda565b60405180910390f35b34801561010b57600080fd5b506101266004803603610121919081019061292c565b610578565b6040516101339190613147565b60405180910390f35b34801561014857600080fd5b50610163600480360361015e919081019061292c565b6107a7565b6040516101709190612f47565b60405180910390f35b34801561018557600080fd5b5061018e610ae9565b60405161019b9190612eda565b60405180910390f35b3480156101b057600080fd5b506101cb60048036036101c6919081019061292c565b610b0e565b6040516101d9929190613117565b60405180910390f35b3480156101ee57600080fd5b506102096004803603610204919081019061292c565b6111e6565b604051610217929190613117565b60405180910390f35b34801561022c57600080fd5b50610247600480360361024291908101906129ae565b611816565b60405161025491906130f5565b60405180910390f35b34801561026957600080fd5b50610284600480360361027f919081019061292c565b611939565b604051610292929190612ef5565b60405180910390f35b3480156102a757600080fd5b506102c260048036036102bd919081019061282d565b611d49565b005b606080606080600080600260009054906101000a900473ffffffffffffffffffffffffffffffffffffffff1673ffffffffffffffffffffffffffffffffffffffff1663ad6f80ff6040518163ffffffff167c0100000000000000000000000000000000000000000000000000000000028152600401600060405180830381600087803b15801561035357600080fd5b505af1158015610367573d6000803e3d6000fd5b505050506040513d6000823e3d601f19601f8201168201806040525061039091908101906128aa565b9450600260009054906101000a900473ffffffffffffffffffffffffffffffffffffffff1673ffffffffffffffffffffffffffffffffffffffff1663ad6f80ff6040518163ffffffff167c0100000000000000000000000000000000000000000000000000000000028152600401600060405180830381600087803b15801561041857600080fd5b505af115801561042c573d6000803e3d6000fd5b505050506040513d6000823e3d601f19601f8201168201806040525061045591908101906128aa565b9350835185510160405190808252806020026020018201604052801561049557816020015b6104826120db565b81526020019060019003908161047a5790505b50925060009150600090505b84518110156104f05784818151811015156104b857fe5b9060200190602002015183838060010194508151811015156104d657fe5b9060200190602002018190525080806001019150506104a1565b600090505b835181101561054457838181518110151561050c57fe5b90602001906020020151838380600101945081518110151561052a57fe5b9060200190602002018190525080806001019150506104f5565b829550505050505090565b60008060009054906101000a900473ffffffffffffffffffffffffffffffffffffffff16905090565b6000606060008373__Strings_______________________________63171ec7a590916040518263ffffffff167c01000000000000000000000000000000000000000000000000000000000281526004016105d39190612f84565b60006040518083038186803b1580156105eb57600080fd5b505af41580156105ff573d6000803e3d6000fd5b505050506040513d6000823e3d601f19601f82011682018060405250610628919081019061296d565b91508173__Strings_______________________________638e7e34d790916040518263ffffffff167c010000000000000000000000000000000000000000000000000000000002815260040161067f9190612f84565b60006040518083038186803b15801561069757600080fd5b505af41580156106ab573d6000803e3d6000fd5b505050506040513d6000823e3d601f19601f820116820180604052506106d491908101906128eb565b73__BytesUtil_____________________________6302d06d0590916040518263ffffffff167c01000000000000000000000000000000000000000000000000000000000281526004016107289190612f62565b60206040518083038186803b15801561074057600080fd5b505af4158015610754573d6000803e3d6000fd5b505050506040513d601f19601f820116820180604052506107789190810190612a02565b9050600060028281151561078857fe5b06141515610797576001810190505b6002810290508092505050919050565b60006107b1612125565b6000610120604051908101604052806040805190810160405280600481526020017f6d6461740000000000000000000000000000000000000000000000000000000081525081526020016040805190810160405280600481526020017f6d6f6f760000000000000000000000000000000000000000000000000000000081525081526020016040805190810160405280600481526020017f756474610000000000000000000000000000000000000000000000000000000081525081526020016040805190810160405280600481526020017f7472616b0000000000000000000000000000000000000000000000000000000081525081526020016040805190810160405280600481526020017f6d6469610000000000000000000000000000000000000000000000000000000081525081526020016040805190810160405280600481526020017f6d696e660000000000000000000000000000000000000000000000000000000081525081526020016040805190810160405280600481526020017f64696e660000000000000000000000000000000000000000000000000000000081525081526020016040805190810160405280600481526020017f7374626c0000000000000000000000000000000000000000000000000000000081525081526020016040805190810160405280600481526020017f65647473000000000000000000000000000000000000000000000000000000008152508152509150600090505b6009811015610add5781816009811015156109ef57fe5b60200201516040518082805190602001908083835b602083101515610a295780518252602082019150602081019050602083039250610a04565b6001836020036101000a038019825116818451168082178552505050505050905001915050604051809103902060001916846040518082805190602001908083835b602083101515610a905780518252602082019150602081019050602083039250610a6b565b6001836020036101000a0380198251168184511680821785525050505050509050019150506040518091039020600019161415610ad05760019250610ae2565b80806001019150506109d8565b600092505b5050919050565b6000809054906101000a900473ffffffffffffffffffffffffffffffffffffffff1681565b610b1661214e565b60006060806000610b2561214e565b6000806064604051908082528060200260200182016040528015610b5d57816020015b6060815260200190600190039081610b485790505b5083600001819052506064604051908082528060200260200182016040528015610b965781602001602082028038833980820191505090505b50836020018190525060009150600890505b88518110156111d5578873__Strings_______________________________631dcd9b55909183600885016040518463ffffffff167c0100000000000000000000000000000000000000000000000000000000028152600401610c0d93929190613097565b60006040518083038186803b158015610c2557600080fd5b505af4158015610c39573d6000803e3d6000fd5b505050506040513d6000823e3d601f19601f82011682018060405250610c62919081019061296d565b955060405180807f613900000000000000000000000000000000000000000000000000000000000081525060020190506040518091039020600019168673__Strings_______________________________631dcd9b559091600060026040518463ffffffff167c0100000000000000000000000000000000000000000000000000000000028152600401610cf993929190612fa6565b60006040518083038186803b158015610d1157600080fd5b505af4158015610d25573d6000803e3d6000fd5b505050506040513d6000823e3d601f19601f82011682018060405250610d4e919081019061296d565b6040518082805190602001908083835b602083101515610d835780518252602082019150602081019050602083039250610d5e565b6001836020036101000a0380198251168184511680821785525050505050509050019150506040518091039020600019161415610eb457610eb18673__Strings_______________________________631dcd9b559091600260086040518463ffffffff167c0100000000000000000000000000000000000000000000000000000000028152600401610e1893929190613022565b60006040518083038186803b158015610e3057600080fd5b505af4158015610e44573d6000803e3d6000fd5b505050506040513d6000823e3d601f19601f82011682018060405250610e6d919081019061296d565b6040805190810160405280600681526020017f6532393339320000000000000000000000000000000000000000000000000000815250611f0a90919063ffffffff16565b95505b8573__Strings_______________________________638e7e34d790916040518263ffffffff167c0100000000000000000000000000000000000000000000000000000000028152600401610f099190612f84565b60006040518083038186803b158015610f2157600080fd5b505af4158015610f35573d6000803e3d6000fd5b505050506040513d6000823e3d601f19601f82011682018060405250610f5e91908101906128eb565b945084836000015183815181101515610f7357fe5b9060200190602002018190525080836020015183806001019450815181101515610f9957fe5b9060200190602002018181525050610fb0856107a7565b15156111c9578873__Strings_______________________________631dcd9b55909160088403846040518463ffffffff167c010000000000000000000000000000000000000000000000000000000002815260040161101293929190613097565b60006040518083038186803b15801561102a57600080fd5b505af415801561103e573d6000803e3d6000fd5b505050506040513d6000823e3d601f19601f82011682018060405250611067919081019061296d565b95508573__Strings_______________________________638e7e34d790916040518263ffffffff167c01000000000000000000000000000000000000000000000000000000000281526004016110be9190612f84565b60006040518083038186803b1580156110d657600080fd5b505af41580156110ea573d6000803e3d6000fd5b505050506040513d6000823e3d601f19601f8201168201806040525061111391908101906128eb565b945060028573__BytesUtil_____________________________6302d06d0590916040518263ffffffff167c010000000000000000000000000000000000000000000000000000000002815260040161116c9190612f62565b60206040518083038186803b15801561118457600080fd5b505af4158015611198573d6000803e3d6000fd5b505050506040513d601f19601f820116820180604052506111bc9190810190612a02565b02935083810190506111d0565b6010810190505b610ba8565b828297509750505050505050915091565b6111ee61214e565b600060608060006111fd61214e565b60008060009150606460405190808252806020026020018201604052801561123957816020015b60608152602001906001900390816112245790505b50836000018190525060646040519080825280602002602001820160405280156112725781602001602082028038833980820191505090505b508360200181905250600090505b8851811015611805578873__Strings_______________________________631dcd9b55909183600885016040518463ffffffff167c01000000000000000000000000000000000000000000000000000000000281526004016112e593929190613097565b60006040518083038186803b1580156112fd57600080fd5b505af4158015611311573d6000803e3d6000fd5b505050506040513d6000823e3d601f19601f8201168201806040525061133a919081019061296d565b95508573__Strings_______________________________638e7e34d790916040518263ffffffff167c01000000000000000000000000000000000000000000000000000000000281526004016113919190612f84565b60006040518083038186803b1580156113a957600080fd5b505af41580156113bd573d6000803e3d6000fd5b505050506040513d6000823e3d601f19601f820116820180604052506113e691908101906128eb565b945060405180807f52494646000000000000000000000000000000000000000000000000000000008152506004019050604051809103902060001916856040518082805190602001908083835b6020831015156114585780518252602082019150602081019050602083039250611433565b6001836020036101000a0380198251168184511680821785525050505050509050019150506040518091039020600019161480611533575060405180807f4c495354000000000000000000000000000000000000000000000000000000008152506004019050604051809103902060001916856040518082805190602001908083835b60208310151561150057805182526020820191506020810190506020830392506114db565b6001836020036101000a038019825116818451168082178552505050505050905001915050604051809103902060001916145b156116ef576010810190508873__Strings_______________________________631dcd9b55909183600885016040518463ffffffff167c010000000000000000000000000000000000000000000000000000000002815260040161159a93929190613097565b60006040518083038186803b1580156115b257600080fd5b505af41580156115c6573d6000803e3d6000fd5b505050506040513d6000823e3d601f19601f820116820180604052506115ef919081019061296d565b95508573__Strings_______________________________638e7e34d790916040518263ffffffff167c01000000000000000000000000000000000000000000000000000000000281526004016116469190612f84565b60006040518083038186803b15801561165e57600080fd5b505af4158015611672573d6000803e3d6000fd5b505050506040513d6000823e3d601f19601f8201168201806040525061169b91908101906128eb565b9450848360000151838151811015156116b057fe5b90602001906020020181905250808360200151838060010194508151811015156116d657fe5b9060200190602002018181525050600881019050611800565b8483600001518381518110151561170257fe5b906020019060200201819052508083602001518380600101945081518110151561172857fe5b90602001906020020181815250506008810190506117f58973__Strings_______________________________631dcd9b55909184600886016040518463ffffffff167c010000000000000000000000000000000000000000000000000000000002815260040161179b93929190613097565b60006040518083038186803b1580156117b357600080fd5b505af41580156117c7573d6000803e3d6000fd5b505050506040513d6000823e3d601f19601f820116820180604052506117f0919081019061296d565b610578565b935083600882010190505b611280565b828297509750505050505050915091565b61181e61214e565b61182661214e565b60008360405190808252806020026020018201604052801561185c57816020015b60608152602001906001900390816118475790505b508260000181905250836040519080825280602002602001820160405280156118945781602001602082028038833980820191505090505b508260200181905250600090505b8381101561192e578460000151818151811015156118bc57fe5b906020019060200201518260000151828151811015156118d857fe5b906020019060200201819052508460200151818151811015156118f757fe5b9060200190602002015182602001518281518110151561191357fe5b906020019060200201818152505080806001019150506118a2565b819250505092915050565b6060600060608061194861214e565b60008673__Strings_______________________________631dcd9b559091600060086040518463ffffffff167c01000000000000000000000000000000000000000000000000000000000281526004016119a593929190612fe4565b60006040518083038186803b1580156119bd57600080fd5b505af41580156119d1573d6000803e3d6000fd5b505050506040513d6000823e3d601f19601f820116820180604052506119fa919081019061296d565b73__Strings_______________________________638e7e34d790916040518263ffffffff167c0100000000000000000000000000000000000000000000000000000000028152600401611a4e9190612f84565b60006040518083038186803b158015611a6657600080fd5b505af4158015611a7a573d6000803e3d6000fd5b505050506040513d6000823e3d601f19601f82011682018060405250611aa391908101906128eb565b935060405180807f52494646000000000000000000000000000000000000000000000000000000008152506004019050604051809103902060001916846040518082805190602001908083835b602083101515611b155780518252602082019150602081019050602083039250611af0565b6001836020036101000a0380198251168184511680821785525050505050509050019150506040518091039020600019161415611c4557611b55876111e6565b8092508193505050611b678282611816565b9150600260009054906101000a900473ffffffffffffffffffffffffffffffffffffffff1673ffffffffffffffffffffffffffffffffffffffff16628aeecd88846040518363ffffffff167c0100000000000000000000000000000000000000000000000000000000028152600401611be1929190613060565b600060405180830381600087803b158015611bfb57600080fd5b505af1158015611c0f573d6000803e3d6000fd5b505050506040513d6000823e3d601f19601f82011682018060405250611c389190810190612856565b8092508194505050611d3a565b611c4e87610b0e565b8092508193505050611c608282611816565b9150600160009054906101000a900473ffffffffffffffffffffffffffffffffffffffff1673ffffffffffffffffffffffffffffffffffffffff16628aeecd88846040518363ffffffff167c0100000000000000000000000000000000000000000000000000000000028152600401611cda929190613060565b600060405180830381600087803b158015611cf457600080fd5b505af1158015611d08573d6000803e3d6000fd5b505050506040513d6000823e3d601f19601f82011682018060405250611d319190810190612856565b80925081945050505b82819550955050505050915091565b6000809054906101000a900473ffffffffffffffffffffffffffffffffffffffff1673ffffffffffffffffffffffffffffffffffffffff163373ffffffffffffffffffffffffffffffffffffffff16141515611dda576040517f08c379a0000000000000000000000000000000000000000000000000000000008152600401611dd1906130d5565b60405180910390fd5b600073ffffffffffffffffffffffffffffffffffffffff168173ffffffffffffffffffffffffffffffffffffffff1614151515611e4c576040517f08c379a0000000000000000000000000000000000000000000000000000000008152600401611e43906130d5565b60405180910390fd5b8073ffffffffffffffffffffffffffffffffffffffff166000809054906101000a900473ffffffffffffffffffffffffffffffffffffffff1673ffffffffffffffffffffffffffffffffffffffff167f8be0079c531659141344cd1fd0a4f28419497f9722a3daafe3b4186f6b6457e060405160405180910390a3806000806101000a81548173ffffffffffffffffffffffffffffffffffffffff021916908373ffffffffffffffffffffffffffffffffffffffff16021790555050565b606080606080606060008088955087945084518651016040519080825280601f01601f191660200182016040528015611f525781602001602082028038833980820191505090505b50935083925060009050600091505b8551821015612014578582815181101515611f7857fe5b9060200101517f010000000000000000000000000000000000000000000000000000000000000090047f0100000000000000000000000000000000000000000000000000000000000000028382806001019350815181101515611fd757fe5b9060200101907effffffffffffffffffffffffffffffffffffffffffffffffffffffffffffff1916908160001a9053508180600101925050611f61565b600091505b84518210156120cc57848281518110151561203057fe5b9060200101517f010000000000000000000000000000000000000000000000000000000000000090047f010000000000000000000000000000000000000000000000000000000000000002838280600101935081518110151561208f57fe5b9060200101907effffffffffffffffffffffffffffffffffffffffffffffffffffffffffffff1916908160001a9053508180600101925050612019565b82965050505050505092915050565b61018060405190810160405280600063ffffffff168152602001600063ffffffff16815260200160608152602001606081526020016060815260200161211f612168565b81525090565b610120604051908101604052806009905b60608152602001906001900390816121365790505090565b604080519081016040528060608152602001606081525090565b60e060405190810160405280600060ff168152602001600060ff1681526020016000800b81526020016000800b81526020016060815260200160608152602001606081525090565b60006121bc82356133c8565b905092915050565b600082601f83011215156121d757600080fd5b81356121ea6121e58261318f565b613162565b9150818183526020840193506020810190508360005b8381101561223057813586016122168882612415565b845260208401935060208301925050600181019050612200565b5050505092915050565b600082601f830112151561224d57600080fd5b815161226061225b826131b7565b613162565b9150818183526020840193506020810190508360005b838110156122a6578151860161228c888261246b565b845260208401935060208301925050600181019050612276565b5050505092915050565b600082601f83011215156122c357600080fd5b81516122d66122d1826131df565b613162565b9150818183526020840193506020810190508360005b8381101561231c578151860161230288826126e1565b8452602084019350602083019250506001810190506122ec565b5050505092915050565b600082601f830112151561233957600080fd5b813561234c61234782613207565b613162565b9150818183526020840193506020810190508385602084028201111561237157600080fd5b60005b838110156123a1578161238788826127dd565b845260208401935060208301925050600181019050612374565b5050505092915050565b600082601f83011215156123be57600080fd5b81516123d16123cc8261322f565b613162565b915080825260208301602083018583830111156123ed57600080fd5b6123f8838284613461565b50505092915050565b600061240d82516133e8565b905092915050565b600082601f830112151561242857600080fd5b813561243b6124368261325b565b613162565b9150808252602083016020830185838301111561245757600080fd5b612462838284613452565b50505092915050565b600082601f830112151561247e57600080fd5b815161249161248c8261325b565b613162565b915080825260208301602083018583830111156124ad57600080fd5b6124b8838284613461565b50505092915050565b600082601f83011215156124d457600080fd5b81356124e76124e282613287565b613162565b9150808252602083016020830185838301111561250357600080fd5b61250e838284613452565b50505092915050565b600082601f830112151561252a57600080fd5b815161253d61253882613287565b613162565b9150808252602083016020830185838301111561255957600080fd5b612564838284613461565b50505092915050565b60006040828403121561257f57600080fd5b6125896040613162565b9050600082013567ffffffffffffffff8111156125a557600080fd5b6125b1848285016121c4565b600083015250602082013567ffffffffffffffff8111156125d157600080fd5b6125dd84828501612326565b60208301525092915050565b600060e082840312156125fb57600080fd5b61260560e0613162565b9050600061261584828501612819565b600083015250602061262984828501612819565b602083015250604061263d84828501612401565b604083015250606061265184828501612401565b606083015250608082015167ffffffffffffffff81111561267157600080fd5b61267d8482850161246b565b60808301525060a082015167ffffffffffffffff81111561269d57600080fd5b6126a98482850161246b565b60a08301525060c082015167ffffffffffffffff8111156126c957600080fd5b6126d58482850161246b565b60c08301525092915050565b600060c082840312156126f357600080fd5b6126fd60c0613162565b9050600061270d84828501612805565b600083015250602061272184828501612805565b602083015250604082015167ffffffffffffffff81111561274157600080fd5b61274d8482850161246b565b604083015250606082015167ffffffffffffffff81111561276d57600080fd5b6127798482850161246b565b606083015250608082015167ffffffffffffffff81111561279957600080fd5b6127a58482850161246b565b60808301525060a082015167ffffffffffffffff8111156127c557600080fd5b6127d1848285016125e9565b60a08301525092915050565b60006127e982356133f5565b905092915050565b60006127fd82516133f5565b905092915050565b600061281182516133ff565b905092915050565b6000612825825161340f565b905092915050565b60006020828403121561283f57600080fd5b600061284d848285016121b0565b91505092915050565b6000806040838503121561286957600080fd5b600083015167ffffffffffffffff81111561288357600080fd5b61288f8582860161223a565b92505060206128a0858286016127f1565b9150509250929050565b6000602082840312156128bc57600080fd5b600082015167ffffffffffffffff8111156128d657600080fd5b6128e2848285016122b0565b91505092915050565b6000602082840312156128fd57600080fd5b600082015167ffffffffffffffff81111561291757600080fd5b612923848285016123ab565b91505092915050565b60006020828403121561293e57600080fd5b600082013567ffffffffffffffff81111561295857600080fd5b612964848285016124c1565b91505092915050565b60006020828403121561297f57600080fd5b600082015167ffffffffffffffff81111561299957600080fd5b6129a584828501612517565b91505092915050565b600080604083850312156129c157600080fd5b600083013567ffffffffffffffff8111156129db57600080fd5b6129e78582860161256d565b92505060206129f8858286016127dd565b9150509250929050565b600060208284031215612a1457600080fd5b6000612a22848285016127f1565b91505092915050565b612a3481613368565b82525050565b6000612a45826132f2565b80845260208401935083602082028501612a5e856132c0565b60005b84811015612a97578383038852612a79838351612ccc565b9250612a8482613341565b9150602088019750600181019050612a61565b508196508694505050505092915050565b6000612ab3826132e7565b80845260208401935083602082028501612acc856132b3565b60005b84811015612b05578383038852612ae7838351612ccc565b9250612af282613334565b9150602088019750600181019050612acf565b508196508694505050505092915050565b6000612b21826132fd565b80845260208401935083602082028501612b3a856132cd565b60005b84811015612b73578383038852612b55838351612e00565b9250612b608261334e565b9150602088019750600181019050612b3d565b508196508694505050505092915050565b6000612b8f82613308565b808452602084019350612ba1836132da565b60005b82811015612bd357612bb7868351612e9e565b612bc08261335b565b9150602086019550600181019050612ba4565b50849250505092915050565b612be881613388565b82525050565b6000612bf982613313565b808452612c0d816020860160208601613461565b612c1681613494565b602085010191505092915050565b612c2d81613394565b82525050565b612c3c8161341c565b82525050565b612c4b8161342e565b82525050565b612c5a81613440565b82525050565b6000612c6b82613329565b808452612c7f816020860160208601613461565b612c8881613494565b602085010191505092915050565b6000612ca182613329565b808452612cb5816020860160208601613461565b612cbe81613494565b602085010191505092915050565b6000612cd78261331e565b808452612ceb816020860160208601613461565b612cf481613494565b602085010191505092915050565b6000808252602082019050919050565b60006040830160008301518482036000860152612d2f8282612aa8565b91505060208301518482036020860152612d498282612b84565b9150508091505092915050565b600060e083016000830151612d6e6000860182612ecb565b506020830151612d816020860182612ecb565b506040830151612d946040860182612c24565b506060830151612da76060860182612c24565b5060808301518482036080860152612dbf8282612ccc565b91505060a083015184820360a0860152612dd98282612ccc565b91505060c083015184820360c0860152612df38282612ccc565b9150508091505092915050565b600060c083016000830151612e186000860182612ebc565b506020830151612e2b6020860182612ebc565b5060408301518482036040860152612e438282612ccc565b91505060608301518482036060860152612e5d8282612ccc565b91505060808301518482036080860152612e778282612ccc565b91505060a083015184820360a0860152612e918282612d56565b9150508091505092915050565b612ea7816133a1565b82525050565b612eb6816133a1565b82525050565b612ec5816133ab565b82525050565b612ed4816133bb565b82525050565b6000602082019050612eef6000830184612a2b565b92915050565b60006040820190508181036000830152612f0f8185612a3a565b9050612f1e6020830184612e9e565b9392505050565b60006020820190508181036000830152612f3f8184612b16565b905092915050565b6000602082019050612f5c6000830184612bdf565b92915050565b60006020820190508181036000830152612f7c8184612bee565b905092915050565b60006020820190508181036000830152612f9e8184612c96565b905092915050565b60006060820190508181036000830152612fc08186612c96565b9050612fcf6020830185612c33565b612fdc6040830184612c42565b949350505050565b60006060820190508181036000830152612ffe8186612c96565b905061300d6020830185612c33565b61301a6040830184612c51565b949350505050565b6000606082019050818103600083015261303c8186612c96565b905061304b6020830185612c42565b6130586040830184612c51565b949350505050565b6000604082019050818103600083015261307a8185612c60565b9050818103602083015261308e8184612d12565b90509392505050565b600060608201905081810360008301526130b18186612c96565b90506130c06020830185612ead565b6130cd6040830184612ead565b949350505050565b600060208201905081810360008301526130ee81612d02565b9050919050565b6000602082019050818103600083015261310f8184612d12565b905092915050565b600060408201905081810360008301526131318185612d12565b90506131406020830184612e9e565b9392505050565b600060208201905061315c6000830184612e9e565b92915050565b6000604051905081810181811067ffffffffffffffff8211171561318557600080fd5b8060405250919050565b600067ffffffffffffffff8211156131a657600080fd5b602082029050602081019050919050565b600067ffffffffffffffff8211156131ce57600080fd5b602082029050602081019050919050565b600067ffffffffffffffff8211156131f657600080fd5b602082029050602081019050919050565b600067ffffffffffffffff82111561321e57600080fd5b602082029050602081019050919050565b600067ffffffffffffffff82111561324657600080fd5b601f19601f8301169050602081019050919050565b600067ffffffffffffffff82111561327257600080fd5b601f19601f8301169050602081019050919050565b600067ffffffffffffffff82111561329e57600080fd5b601f19601f8301169050602081019050919050565b6000602082019050919050565b6000602082019050919050565b6000602082019050919050565b6000602082019050919050565b600081519050919050565b600081519050919050565b600081519050919050565b600081519050919050565b600081519050919050565b600081519050919050565b600081519050919050565b6000602082019050919050565b6000602082019050919050565b6000602082019050919050565b6000602082019050919050565b600073ffffffffffffffffffffffffffffffffffffffff82169050919050565b60008115159050919050565b60008160000b9050919050565b6000819050919050565b600063ffffffff82169050919050565b600060ff82169050919050565b600073ffffffffffffffffffffffffffffffffffffffff82169050919050565b60008160000b9050919050565b6000819050919050565b600063ffffffff82169050919050565b600060ff82169050919050565b6000613427826133a1565b9050919050565b6000613439826133a1565b9050919050565b600061344b826133a1565b9050919050565b82818337600083830152505050565b60005b8381101561347f578082015181840152602081019050613464565b8381111561348e576000848401525b50505050565b6000601f19601f83011690509190505600a265627a7a72305820f121d0aa64c394084f7dd8b14ebc47f396f6c44405985b157ed31de79daa10716c6578706572696d656e74616cf50037",
  "source": "pragma solidity ^0.4.24;\r\npragma experimental ABIEncoderV2;\r\n\r\nimport \"./ownable.sol\";\r\nimport \"./strings.sol\";\r\nimport \"./bytesUtil.sol\";\r\nimport \"./intUtil.sol\";\r\nimport \"./compareShape.sol\";\r\nimport \"./signatureShape.sol\";\r\n\r\ncontract Mp4AnalysisInterface is CompareShape, SignatureShape{\r\n  function compareResult(string memory header, Compare chunk) public view returns (string[] memory, uint);\r\n  function getSignatures() public view returns (Signature[] memory);\r\n}\r\ncontract AviAnalysisInterface is CompareShape, SignatureShape{\r\n  function compareResult(string memory header, Compare chunk) public view returns (string[] memory, uint);\r\n  function getSignatures() public view returns (Signature[] memory);\r\n}\r\n\r\ncontract VideoParser is CompareShape, SignatureShape, Ownable{\r\n\r\n    using Strings for *;\r\n    using BytesUtil for *;\r\n    using IntUtil for *;\r\n\r\n    Mp4AnalysisInterface mp4Contract = Mp4AnalysisInterface(0x03bbb1ffee2be9485743fac40191ca9856d319c1);\r\n    AviAnalysisInterface aviContract = AviAnalysisInterface(0x4c6609896274ea3b52f92a79d15be352a18bed65);\r\n\r\n    function compareResult(string memory header) public view returns (string[] memory, uint){\r\n        string memory isFormat = string(header.substring(0, 8).fromHex());\r\n        string[] memory result;\r\n        Compare memory chunk;\r\n        uint cnt;\r\n        if(keccak256(bytes(isFormat)) == keccak256(\"RIFF\")){\r\n            (chunk, cnt) = aviParser(header);\r\n            chunk = arraySlice(chunk, cnt);\r\n            (result, cnt) = aviContract.compareResult(header, chunk);\r\n        }else{\r\n            (chunk, cnt) = mp4Parser(header);\r\n            chunk = arraySlice(chunk, cnt);\r\n            (result, cnt) = mp4Contract.compareResult(header, chunk);\r\n        }\r\n        return (result, cnt);\r\n    }\r\n\r\n    function arraySlice(Compare chunk, uint cnt) public pure returns (Compare){\r\n        Compare memory temp;\r\n        temp.idSeq = new string[](cnt);\r\n        temp.idSeqStart = new uint[](cnt);\r\n\r\n        for(uint i = 0; i < cnt; i++){\r\n            temp.idSeq[i] = chunk.idSeq[i];\r\n            temp.idSeqStart[i] = chunk.idSeqStart[i];\r\n        }\r\n\r\n        return temp;\r\n    }\r\n\r\n    //mp4parser\r\n    function mp4Parser(string memory header) public pure returns (Compare, uint){\r\n        string memory str;\r\n        bytes memory b;\r\n        uint n;\r\n\r\n        Compare memory chunk;\r\n        chunk.idSeq = new string[](100);\r\n        chunk.idSeqStart = new uint[](100);\r\n        uint cnt = 0;\r\n    \r\n        for(uint i = 8; i < bytes(header).length;){\r\n            str = header.substring(i, i + 8);\r\n            if(keccak256(bytes(str.substring(0, 2))) == keccak256(\"a9\")){\r\n                str = \"e29392\".concat(str.substring(2, 8));\r\n            }\r\n            b = str.fromHex();\r\n            chunk.idSeq[cnt] = string(b);\r\n            chunk.idSeqStart[cnt++] = i;\r\n\r\n            if(!isMp4Child(string(b))){\r\n                str = header.substring(i - 8, i);\r\n                b = str.fromHex();\r\n                n = b.bytesToUint() * 2;\r\n                i = i + n;\r\n            }\r\n            else{\r\n                i = i + 16;\r\n            }\r\n        }\r\n        return (chunk, cnt);\r\n    }\r\n\r\n    function isMp4Child(string memory str) public pure returns (bool){\r\n        string[9] memory root = [\"mdat\", \"moov\", \"udta\", \"trak\", \"mdia\", \"minf\", \"dinf\", \"stbl\", \"edts\"];\r\n        for(uint j = 0; j < root.length; j++){\r\n            if(keccak256(bytes(str)) == keccak256(bytes(root[j])))\r\n                return true;\r\n        }\r\n        return false;\r\n    }\r\n\r\n    //aviParser\r\n    function aviParser(string memory header) public pure returns (Compare, uint){\r\n        string memory str;\r\n        bytes memory b;\r\n        uint n;\r\n\r\n        Compare memory chunk;\r\n        uint cnt = 0;\r\n        chunk.idSeq = new string[](100);\r\n        chunk.idSeqStart = new uint[](100);\r\n\r\n        for(uint i = 0; i < bytes(header).length;){\r\n            str = header.substring(i, i + 8);\r\n            b = str.fromHex();\r\n            if(keccak256(bytes(string(b))) == keccak256(\"RIFF\") || keccak256(bytes(string(b))) == keccak256(\"LIST\")){\r\n                i = i + (8 * 2);\r\n                str = header.substring(i, i + 8);\r\n                b = str.fromHex();\r\n                chunk.idSeq[cnt] = string(b);\r\n                chunk.idSeqStart[cnt++] = i;\r\n                i = i + 8;\r\n            }\r\n            else{\r\n                chunk.idSeq[cnt] = string(b);\r\n                chunk.idSeqStart[cnt++] = i;\r\n                i = i + 8;\r\n                n = getAviFieldSize(header.substring(i, i + 8));\r\n                i = i + 8 + n;\r\n            }\r\n        }\r\n        // (movi    )\r\n        //chunk.idSeq.push(\"idx1\");\r\n        return (chunk, cnt);\r\n    }\r\n\r\n    function getAviFieldSize(string memory size) public pure returns (uint) {\r\n        string memory s = size.reverseValue();\r\n        uint n = s.fromHex().bytesToUint();\r\n        if(n % 2 != 0)\r\n            n += 1;\r\n        n = n * 2;\r\n        return n;\r\n    }\r\n\r\n    function displayAllSignatures() external view  returns(Signature[] memory) {\r\n        Signature[] memory signatures1 = aviContract.getSignatures();  \r\n        Signature[] memory signatures2 = aviContract.getSignatures();\r\n\r\n        Signature[] memory signatures = new Signature[](signatures1.length + signatures2.length);\r\n        \r\n        uint cnt = 0;\r\n        for(uint i = 0; i < signatures1.length; i++){\r\n            signatures[cnt++] = signatures1[i];\r\n        }\r\n        for(i = 0; i < signatures2.length; i++){\r\n            signatures[cnt++] = signatures2[i];\r\n        }\r\n\r\n        return signatures;\r\n    }\r\n}",
  "sourcePath": "C:\\Users\\Eunsil\\KlaytnProject\\finalfinalfinalproject\\contracts\\videoParser.sol",
  "compiler": {
    "name": "solc",
    "version": "0.4.25+commit.59dbf8f1.Emscripten.clang"
  },
  "schemaVersion": "2.0.2",
  "updatedAt": "2019-09-10T09:07:06.394Z"
}